:020000040800F2
:10000000980900202902000891200008BF1B000861
:100010008D200008F5030008CD3200080000000024
:100020000000000000000000000000009D24000807
:100030004705000800000000DD2100086D250008CC
:10004000430200084302000843020008430200087C
:10005000430200084302000843020008430200086C
:10006000430200084302000843020008430200085C
:10007000430200084302000843020008430200084C
:10008000430200084302000843020008430200083C
:10009000430200084302000843020008430200082C
:1000A000430200084302000843020008430200081C
:1000B000430200082D2600084302000843020008FE
:1000C00043020008430200084302000843020008FC
:1000D000430200088D320008430200084302000872
:1000E00043020008430200084302000843020008DC
:1000F00043020008430200084302000843020008CC
:100100004302000843020008952600084302000845
:1001100043020008430200084302000843020008AB
:10012000430200084302000843020008430200089B
:10013000430200084302000843020008430200088B
:10014000430200084302000843020008430200087B
:10015000430200084302000843020008430200086B
:10016000430200084302000843020008430200085B
:100170004302000843020008430200080000000098
:10018000430200084302000800F002F800F03CF8C7
:100190000AA090E8000C82448344AAF10107DA45E2
:1001A00001D100F031F8AFF2090EBAE80F0013F0F8
:1001B000010F18BFFB1A43F0010318479C8200008F
:1001C000BC820000103A24BF78C878C1FAD8520720
:1001D00024BF30C830C144BF04680C6070470000C1
:1001E0000023002400250026103A28BF78C1FBD840
:1001F000520728BF30C148BF0B6070471FB503F0DE
:1002000072FD1FBD10B510BD00F074F81146FFF768
:10021000F5FF03F07BF900F092F803B4FFF7F2FF6B
:1002200003BC03F055F8000009488047094800471F
:10023000FEE7FEE7FEE7FEE7FEE7FEE7FEE7FEE796
:10024000FEE7FEE704480549054A064B70470000F3
:1002500075250008890100089803002098090020EE
:100260009805002098050020704700004FF0013CE1
:1002700050F8042B51F8043B9A4221D1A2EB0C0315
:10028000934313EACC1317D150F8042B51F8043BD5
:100290009A4215D1A2EB0C03934313EACC130BD172
:1002A00050F8042B51F8043B9A4209D1A2EB0C03FD
:1002B000934313EACC13DBD04FF00000704700BF2C
:1002C000D01A01BAB1FA81F101F0180122FA01F055
:1002D000CB40C1F12001DBB2C0B2C01A2CFA01F34D
:1002E000D11A914311EAC311E6D1704770477047A4
:1002F00070477047754600F02BF8AE46050069461A
:10030000534620F00700854618B020B5FFF79AFF46
:10031000BDE820404FF000064FF000074FF0000806
:100320004FF0000B21F00701AC46ACE8C009ACE887
:10033000C009ACE8C009ACE8C0098D46704710B5EB
:100340000446AFF300802046BDE81040FFF765BFCC
:100350000048704738030020FCB503460A4615469E
:10036000D71702EB9777C7F3870600200025009583
:100370000195002117E000240AE01F781DF80150C4
:1003800007EB4505EDB20DF801505B1C651CECB2A6
:10039000042CF2DB1DF8015000EB800705EB47054C
:1003A000A8B24D1CE9B2B142E5DBFCBD70B5034615
:1003B0000846CE1701EB9676C6F387050C48002653
:1003C0000660868000220FE0002409E01E780848BD
:1003D000805C06EB4000064EB0545B1C601CC4B24F
:1003E000042CF3DB501CC2B2AA42EDDB004870BD06
:1003F0006F00002000BFFEE710B594B0002400BFDE
:1004000013E0002004EB84016A4602EB810148609E
:10041000032004EB840102EB8101C860012004EB9E
:10042000840102EB81018860641C042CE9DB082054
:1004300000900003059040100A9040100F9069460C
:10044000084800F0B9F805A9074800F0B5F80AA96E
:10045000054800F0B1F80FA9034800F0ADF814B05A
:1004600010BD0000000402400018024010B594B016
:10047000002400BF13E0012004EB84016A4602EB74
:1004800081014860032004EB840102EB8101C86014
:10049000022004EB840102EB81018860641C042CBF
:1004A000E9DB082000900003059040100A904010FE
:1004B0000F906946134800F07FF805A9124800F034
:1004C0007BF80AA9104800F077F80FA90E4800F051
:1004D00073F8002208210B4800F076F900224FF44F
:1004E0000041094800F070F900224FF480410648AD
:1004F00000F06AF900224FF40051034800F064F95B
:1005000014B010BD00040240001802402DE9FC4167
:1005100005460E461746002000900190002406E094
:10052000285D3030C0B20DF80400601CC4B2B44283
:10053000F6DB39466846FFF799FE10B90120BDE8A1
:10054000FC810020FBE7704708B500BF0020009049
:100550000E48006840F002000C4908600846006838
:1005600000F00200009000BF00BF00BF002000901C
:100570000846006840F0400008600846006800F047
:100580004000009000BF00BF08BD000030380240AE
:10059000014691F83500022803D0802048650120EB
:1005A0007047052081F835000868006820F00100D8
:1005B0000A6810600020F3E7F8B502460B460025F4
:1005C000002400200021DCE0012606FA01F51E6867
:1005D00006EA0504AC4273D15E68022E02D05E6862
:1005E000122E13D1CF0802F1200656F827004E072D
:1005F000F70E0F26BE40B0434F07FF0E1E69BE40E8
:100600003043CF0802F1200646F8270010684F005B
:100610000326BE40B0431E7906F003064F00BE40DD
:10062000304310605E68012E08D05E68022E05D04F
:100630005E68112E02D05E68122E13D190684F00B2
:100640000326BE40B0434F00DE68BE40304390609A
:10065000506801268E40B0431E79C6F300168E40C6
:1006600030435060D0684F000326BE40B0434F0077
:100670009E68BE403043D0605E6806F08056B6F19A
:10068000805F7DD100BF00260096404E366846F45C
:1006900080463E4F3E603E46366806F480460096F1
:1006A00000BF00BF3A4E8F0856F827008E07370F5D
:1006B0000F26BE40B043374EB24202D1002624E09E
:1006C0005EE0354EB24201D101261EE0334EB24209
:1006D00001D1022619E0324EB24201D1032614E0C4
:1006E000304EB24201D104260FE02F4EB24201D16A
:1006F00005260AE02D4EB24201D1062605E02C4E19
:10070000B24201D1072600E008268F073F0FBE4006
:1007100030431F4E8F0846F82700264E3068A0430E
:100720005E6806F48036B6F5803F00D12043214E46
:100730003060361D3068A0435E6806F40036B6F5BA
:10074000003F00D120431B4E361D3060361D3068FF
:10075000A0435E6806F48016B6F5801F00D12043E2
:10076000144E08363060361D3068A0435E6806F4CB
:100770000016B6F5001F00D120430E4E0C36306037
:10078000491C1029FFF420AFF8BD00004438024096
:100790000838014000000240000402400008024006
:1007A000000C0240001002400014024000180240F9
:1007B000001C0240003C0140024613690B400BB193
:1007C000012000E0002070470AB1816101E00B04C4
:1007D0008361704701480068000C7047002004E006
:1007E00001480068704700000400002002480068CB
:1007F000401C0149086070470400002010B50A48F9
:10080000006840F40070084908600846006840F439
:1008100080600860052000F069F80F2000F006F8FD
:1008200000F018F8002010BD003C024070B50446EE
:10083000074800684FF47A71B0FBF1F5284600F0E4
:1008400017FC00222146501E00F012F8002070BD57
:1008500000000020704700BF00F01F0201219140FE
:100860004209920002F1E022C2F8001100BF704775
:100870002DE9F05F80460D461646002701F00AFC80
:10088000074639462A46334601F00700C0F1070AF9
:10089000BAF1040F02D94FF0040A01E0C0F1070ACF
:1008A000D14600F1040ABAF1070F02D24FF0000A54
:1008B00001E0A0F1030AD4464FF0010A0AFA09FA4E
:1008C000AAF1010A0AEA020A0AFA0CFA4FF0010B2D
:1008D0000BFA0CFBABF1010B0BEA030B4AEA0B041E
:1008E0002146404601F0DEFBBDE8F09F00BF00F06E
:1008F0000702064B19684FF6FF031940044B0B43E0
:1009000043EA0221014B196000BF70470CED00E083
:100910000000FA0570B504460D4600266D480068D3
:1009200000F00F00A84209D26A490D70084600681D
:1009300000F00F00A84201D0012070BD207800F027
:100940000200022807D16448006820F0F000A16886
:10095000084361490860207800F00100002877D042
:100960006068012807D15C4808380068C0F340403F
:10097000B8B90120E1E76068022802D06068032866
:1009800007D1554808380068C0F3406048B90120D5
:10099000D3E7514808380068C0F3400008B9012087
:1009A000CBE74D48006820F00300616808434A49DE
:1009B0000860FFF715FF06466068012810D108E0BF
:1009C000FFF70EFF801B41F28831884201D90320D6
:1009D000B3E74148006800F00C000428F0D137E08C
:1009E0006068022810D108E0FFF7FAFE801B41F290
:1009F0008831884201D903209FE73748006800F01A
:100A00000C000828F0D123E06068032810D108E02A
:100A1000FFF7E6FE801B41F28831884201D90320AE
:100A20008BE72D48006800F00C000C28F0D10FE097
:100A300008E0FFF7D5FE801B41F28831884201D9DA
:100A400003207AE72448006800F00C000028F0D169
:100A50002048006800F00F00A84209D91D490D7018
:100A60000846006800F00F00A84201D0012064E7AA
:100A7000207800F00400042807D11748006820F40B
:100A8000E050E168084314490860207800F008004D
:100A9000082808D11048006820F46040216940EA25
:100AA000C1000D49086000F04FF80B49096801F0DA
:100AB000F001F02292FAA2F2B2FA82F2D140074A91
:100AC000515CC840064908600F20FFF7AFFE0020C8
:100AD00033E70000003C024008380240F03C0008C8
:100AE000000000200148006870470000000000205E
:100AF00000B5FFF7F7FF0749096801F4E0514FF42B
:100B0000E05292FAA2F2B2FA82F2D140024A515C69
:100B1000C84000BD08380240003D000800B5FFF79E
:100B2000E1FF0749096801F460414FF4604292FA1D
:100B3000A2F2B2FA82F2D140024A515CC84000BD32
:100B400008380240003D000870B500210022002353
:100B50000020274C246804F00C0424B1042C04D099
:100B6000082C41D103E0234840E023483EE0204CDC
:100B7000241F246804F03F011D4C241F246804F442
:100B8000800484B11C4CB4FBF1F5194C241F24687B
:100B900047F6C076344096FAA6F6B6FA86F6F440E2
:100BA00005FB04F20FE0134CB4FBF1F5104C241FCD
:100BB000246847F6C076344096FAA6F6B6FA86F66A
:100BC000F44005FB04F20A4C241F246804F440346A
:100BD0004FF4403595FAA5F5B5FA85F5EC40641C5F
:100BE0006300B2FBF3F001E0024800BF00BF70BD3C
:100BF000083802400024F40000127A0038B5044698
:100C00000025207800F00100002874D0F748006823
:100C100000F00C0004280DD0F448006800F00C002F
:100C2000082813D1F148001F006800F48000B0F5D7
:100C3000800F0BD1ED4808380068C0F34040002811
:100C400059D06068002856D1012038BD00BF6068C7
:100C5000B0F5803F08D1E5480838006840F480309E
:100C6000E249083908601EE06068B0F5A02F0DD198
:100C7000DE480838006840F48020DC490839086004
:100C80000846006840F4803008600CE0D748083817
:100C9000006820F48030D5490839086008460068AB
:100CA00020F48020086000BF606890B1FFF798FDD5
:100CB000054606E0FFF794FD401B642801D9032098
:100CC000C3E7CA4808380068C0F340400028F1D0A4
:100CD00011E0FFF785FD054606E0FFF781FD401BAB
:100CE000642801D90320B0E7C04808380068C0F381
:100CF00040400028F1D1207800F00200022869D19C
:100D0000BA48006800F00C0058B1B848006800F01C
:100D10000C00082821D1B548001F006800F48000AD
:100D2000D8B9B24808380068C0F3400020B1E06884
:100D3000012801D0012088E7AC480838006820F07D
:100D4000F800F82292FAA2F2B2FA82F221699140F6
:100D50000843A649083908603CE0E06828B3012050
:100D6000A3490860FFF73CFD054606E0FFF738FDA4
:100D7000401B022801D9032067E79C480838006817
:100D8000C0F340000028F1D098480838006820F0EF
:100D9000F800F82292FAA2F2B2FA82F221699140A6
:100DA000084392490839086014E00020904908601F
:100DB000FFF716FD054606E0FFF712FD401B02286F
:100DC00001D9032041E7894808380068C0F3400092
:100DD0000028F1D1207800F0080008282CD16069A3
:100DE000A8B1012083490860FFF7FAFC054606E038
:100DF000FFF7F6FC401B022801D9032025E77B48BA
:100E00006C300068C0F340000028F1D014E00020EE
:100E100078490860FFF7E4FC054606E0FFF7E0FCD0
:100E2000401B022801D903200FE770486C3000688E
:100E3000C0F340000028F1D1207800F0040004281D
:100E40007FD100BF0020009068483830006840F033
:100E500080506649383108600846006800F08050CC
:100E6000009000BF00BF6448006840F48070624991
:100E70000860FFF7B5FC054606E0FFF7B1FC401B34
:100E8000022801D90320E0E65B48006800F4807086
:100E90000028F2D000BFA068012808D1534868306C
:100EA000006840F001005149683108601DE0A06809
:100EB00005280DD14D486830006840F004004B49CA
:100EC000683108600846006840F0010008600CE0E6
:100ED00046486830006820F00100444968310860E5
:100EE0000846006820F00400086000BFA068A0B1B8
:100EF000FFF776FC054608E0FFF772FC401B41F265
:100F00008831884201D903209FE63848683000685C
:100F1000C0F340000028EFD013E0FFF761FC054666
:100F200008E0FFF75DFC401B41F28831884201D99F
:100F300003208AE62D4868300068C0F3400000288E
:100F4000EFD1A069F0B32948006800F00C00082830
:100F500071D0A069022858D1002025490866FFF702
:100F60003FFC054606E0FFF73BFC401B022801D989
:100F700003206AE61D4808380068C0F34060002876
:100F8000F1D1D4E90701084347F6C07292FAA2F200
:100F9000B2FA82F2616A914008430122A16AC2EB6F
:100FA00051014FF4403292FAA2F2B2FA82F2914029
:100FB00008434FF0706292FAA2F2B2FA82F2E16A4A
:100FC000914000E039E008430849091F086001200A
:100FD00007490866FFF704FC05460FE0FFF700FC31
:100FE000401B02280AD903202FE6000008380240DF
:100FF00000004742800E47420070004010480068E1
:10100000C0F340600028E9D017E000200D490866D1
:10101000FFF7E6FB054606E0FFF7E2FB401B022870
:1010200001D9032011E606480068C0F3406000289B
:10103000F2D102E0FFE7012007E6002005E600000C
:101040000038024000004742042808D14FF0E02158
:10105000096941F004014FF0E022116107E04FF00F
:10106000E021096921F004014FF0E022116170478D
:1010700070B504462546681EB0F1807F01D301207B
:101080000FE0681E4FF0E02148610F214FF0FF3064
:1010900001F008F800204FF0E02188610720086186
:1010A000002070BD7047704770B52DED028B84B085
:1010B00006465C480078002812D05B48006880B97A
:1010C00000205A4908605A4908605A49096848622C
:1010D00059490968486254480068401C52490860F0
:1010E0009BE055480068406A514908604E480068D6
:1010F000B0F59C7F7DD90846006802F0C0FB41EC4A
:10110000180B9FED4E0B53EC102B02F05BFC7BD2C7
:101110004548006842F21071B0FBF1F0C0F30714CB
:10112000434800684749B0FBF1F0C0F307150020C1
:101130004549087014E001204449454A1278885412
:1011400043480078401C424908700846007814283B
:1011500001DB042008703C480078401C3A490870C4
:1011600039480078A042E6DB00203749087014E0D7
:1011700000203649364A1278885435480078401C99
:101180003349087008460078142801DB04200870F1
:101190002D480078401C2C4908702B480078A84244
:1011A000E6DB0021234800F02EFB204908600846BA
:1011B00000681F490968401A1C4908600846006811
:1011C0002049B0FBF1F0B4EB101F15D04FF6E070E2
:1011D000204908604FF478401F49086000201FA193
:1011E00020221346CDE900210290C0221E210A20B0
:1011F00000E009E000F0CFFE01200B49086000206C
:101200000C490968486204E007480068401C064928
:101210000860002008490968486204B0BDEC028BF0
:1012200070BD000054000020580000204C00002039
:1012300050000020E40200205002002000000000C6
:10124000006AE84040420F005D00002020030020BB
:101250005C000020480000204400002044657465C4
:101260006374204572726F72210000002DE9F04115
:1012700004460D46164600BF94F83800012802D1F6
:101280000220BDE8F081012084F8380000BF022070
:1012900084F8390096B9EB68D5E90012206801F0AE
:1012A00061FB2068806920F00C002168886120685B
:1012B0008069A9680843216888613DE0042E13D144
:1012C000EB68D5E90012206801F098FB206880697E
:1012D00020F440602168886120688069A96840EA3C
:1012E00001202168886127E0082E12D1EB68D5E93A
:1012F0000012206801F0A1FB2068C06920F00C00FA
:101300002168C8612068C069A96808432168C8616C
:1013100012E0EB68D5E90012206801F0ACFB206810
:10132000C06920F440602168C8612068C069A9686C
:1013300040EA01202168C861012084F8390000BF1B
:10134000002084F8380000BF00BF9AE710B50446BB
:101350000CB9012010BD94F8390028B9002084F898
:101360003800204600F00CF8022084F83900211DD6
:10137000206801F097F9012084F839000020E9E79E
:1013800010B586B0044600BF002000901A480068DF
:1013900040F00800184908600846006800F008009E
:1013A000009000BF00BF00BF00200090124810381E
:1013B000006840F0010010491039086008460068D4
:1013C00000F00100009000BF00BF0120019002204A
:1013D00002900390032004900220059001A9074881
:1013E000FFF7EAF8002202213220FFF741FA32200B
:1013F000FFF731FA06B010BD40380240000002404D
:1014000030B504460D4635B1042D0BD0082D10D053
:101410000C2D1CD114E02068C06840F00200216847
:10142000C86015E02068C06840F004002168C8600A
:101430000EE02068C06840F008002168C86007E03E
:101440002068C06840F010002168C86000E000BF5C
:1014500000BF01222946206801F096F92068006843
:1014600040F0010021680860002030BD10B504463E
:1014700020680069C0F34000D8B12068C068C0F39C
:101480004000B0B16FF002002168086101202076B1
:101490002068806900F0030018B12046FFF704FEC1
:1014A00005E0204600F0ADF8204600F083F900206A
:1014B000207620680069C0F38000D8B12068C06839
:1014C000C0F38000B0B16FF0040021680861022011
:1014D00020762068806900F4407018B12046FFF73C
:1014E000E3FD05E0204600F08CF8204600F062F9AC
:1014F0000020207620680069C0F3C000D8B12068C1
:10150000C068C0F3C000B0B16FF008002168086186
:10151000042020762068C06900F0030018B120463E
:10152000FFF7C2FD05E0204600F06BF8204600F012
:1015300041F90020207620680069C0F30010D8B17E
:101540002068C068C0F30010B0B16FF010002168CF
:101550000861082020762068C06900F4407018B146
:101560002046FFF7A1FD05E0204600F04AF820469E
:1015700000F020F9002020762068006900F00100CA
:1015800058B12068C06800F0010030B16FF0010070
:1015900021680861204600F035F920680069C0F331
:1015A000C01058B12068C068C0F3C01030B16FF0EF
:1015B0008000216808612046FFF774FD20680069FB
:1015C000C0F3801058B12068C068C0F3801030B1FB
:1015D0006FF0400021680861204600F03EF9206865
:1015E0000069C0F3401058B12068C068C0F34010D3
:1015F00030B16FF02000216808612046FFF753FDED
:1016000010BD704770B504460D46164600BF94F8ED
:101610003800012801D1022070BD012084F8380073
:1016200000BF022084F8390036B1042E1BD0082EEA
:1016300031D00C2E5ED145E02946206801F0B2F889
:101640002068806940F0080021688861206880690E
:1016500020F00400216888612068806929690843B6
:101660002168886147E02946206801F0D3F82068A6
:10167000806940F40060216888612068806920F4F6
:1016800080602168886120688069296940EA0120BA
:10169000216888612FE02946206801F0F7F820686A
:1016A000C06940F008002168C8612068C06920F066
:1016B00004002168C8612068C0692969084321685D
:1016C000C86118E02946206801F01CF92068C0694B
:1016D00040F400602168C8612068C06920F480601F
:1016E0002168C8612068C069296940EA0120216831
:1016F000C86100E000BF00BF012084F8390000BFCE
:10170000002084F8380000BF00BF85E710B504460C
:101710000CB9012010BD94F8390028B9002084F8D4
:101720003800204600F00CF8022084F83900211D12
:10173000206800F0B7FF012084F839000020E9E7B5
:1017400010B586B0044600BF00200090174800681E
:1017500040F48070154908600846006800F4807005
:10176000009000BF00BF00BF002000900F4810385D
:10177000006840F020000D491039086008460068F4
:1017800000F02000009000BF00BF4815019002202B
:10179000029001200390032004900920059001A9E4
:1017A0000348FEF709FF06B010BD000040380240B4
:1017B000001402407047000030B504460D46012277
:1017C0002946206800F0E0FF0C492068884203D0D9
:1017D0000B492068884201D1012000E0002028B197
:1017E0002068406C40F4004021684864206800682C
:1017F00040F0010021680860002030BD0000014079
:101800000004014070470246002300BF92F83800F0
:10181000012801D102207047012082F8380000BF62
:1018200031B1042907D0082908D00C290CD108E0CF
:101830001068436B09E01068836B06E01068C36BA7
:1018400003E01068036C00E000BF00BF00BF002091
:1018500082F8380000BF1846DDE770477047014640
:101860000022002391F8392091F83A3042EA03002F
:10187000704700002DE9F04704462068056820689D
:10188000C668206847694FF00008C14605F00F0898
:10189000B8F1000F0AD105F0200038B106F02000A1
:1018A00020B1204601F0BCFABDE8F087B8F1000F86
:1018B0006DD007F0010018B906F49070002866D0CA
:1018C00005F0010030B106F4807018B1E06B40F013
:1018D0000100E06305F0040030B107F0010018B129
:1018E000E06B40F00200E06305F0020030B107F069
:1018F000010018B1E06B40F00400E06305F008005F
:1019000030B107F0010018B1E06B40F00800E0636F
:10191000E06B68B305F0200028B106F0200010B19C
:10192000204601F07DFA20684069C0F38019E06B21
:1019300000F0080010B9B9F1000F22D0204601F0E4
:101940004FFA2068406900F04000B0B1206840695B
:1019500020F0400021684861606B50B11748616B0E
:101960000865606BFEF714FE10B1606B016D88476F
:101970000CE02046FFF772FF08E02046FFF76EFFFD
:1019800004E02046FFF76AFF0020E0638CE705F0E3
:10199000800030B106F0800018B1204601F042FC12
:1019A00082E705F0400030B106F0400018B1204653
:1019B00001F026FA78E700BF76E70000CD2D000899
:1019C00010B504460CB9012010BDA06900B100E0BB
:1019D00000BF94F8390028B9002084F83800204668
:1019E00000F028F8242084F839002068C06820F42A
:1019F00000502168C860204601F060FA2068006944
:101A000020F49040216808612068406920F02A0095
:101A1000216848612068C06840F400502168C860AF
:101A20000020E063202084F8390084F83A00002088
:101A3000CAE7000010B586B00446224920688842F3
:101A40003ED100BF002000901F48006840F0010018
:101A50001D4908600846006800F00100009000BFC2
:101A600000BF00BF0020009017481430006840F00D
:101A700010001549143108600846006800F0100095
:101A8000009000BF00BF4815019002200290012085
:101A90000390022004900720059001A90B48FEF74F
:101AA0008BFD4FF48060019001A90848FEF784FD8A
:101AB0002520FEF7D0FE032211462520FEF7D8FE92
:101AC00006B010BD00100140303802400000024056
:101AD00010B5034693F83A00202829D101B10AB97C
:101AE000012010BD00BF93F83800012801D1022069
:101AF000F7E7012083F8380000BF99629A85DA85FC
:101B00000020D863222083F83A0000BF002083F829
:101B1000380000BF1868406940F001001C6860612F
:101B20001868C06840F490701C68E0600020D8E736
:101B30000220D6E71D4A0168914236D11C49098826
:101B400001F4004189BB1A49098801F4804171B14F
:101B5000184909780A2903D00021154A118024E088
:101B60001349098841F40041114A11801DE01149CF
:101B700009780D2906D10E49098841F480410C4AA3
:101B8000118012E00B490978094A1288C2F30D024C
:101B9000094B995406490988491C054A1180114688
:101BA0000988C72901DD002111807047001001401C
:101BB000100000201200002078000020704700BFB5
:101BC000FEE7000010B5002007490860012001F081
:101BD00097FB01200549C1F8B00201F091FB0020FC
:101BE0000149086010BD0000B082404200804042C0
:101BF00010B50120054908600549C1F8B40201F09B
:101C00007FFB00200149091D086010BDB0824042E1
:101C10000080404210B500200A490860012001F010
:101C20006FFB00200849C1F8B402012001F068FBF5
:101C300001200449086001F063FB01200249C1F85A
:101C4000B40210BDB08240420080404270B50446EC
:101C5000002519E000200E49086004F001000D493C
:101C6000C1F8B402012001F04BFB012008490860D3
:101C700001F046FB00200749C1F8B002012001F045
:101C80003FFB6410681CC5B2082DE3DB70BD00008B
:101C9000B082404200804042012811D17021124A96
:101CA0001171B0215171D0219171E021D1710721C1
:101CB00011700B2151700D2191700E21D17011E026
:101CC00080B90721084A11710B2151710D219171C1
:101CD0000E21D17170211170B0215170D0219170FD
:101CE000E021D170704700002000002010B50120D5
:101CF000FFF7D2FFFEF728FC00F071FA10BD0000DC
:101D000030B504460D463948808845F21051884266
:101D100020D13649488900F07FF9201200F070F98F
:101D200032494989491C88B200F076F9E0B200F0E6
:101D300067F92E49888900F06FF9281200F060F9E0
:101D40002A498989491C88B200F066F9E8B200F096
:101D500057F942E02548808841F66311884228D12E
:101D60002248807920B921480088401E001B84B297
:101D70001E49488900F050F9201200F041F9E0B204
:101D800000F03EF9201200F03BF9E0B200F038F923
:101D90001649888900F040F9281200F031F9E8B2BC
:101DA00000F02EF9281200F02BF9E8B200F028F923
:101DB00013E00E49488900F02FF9201200F020F9B5
:101DC000E0B200F01DF90949888900F025F92812D0
:101DD00000F016F9E8B200F013F90448008904494C
:101DE00008804FF0D841A1F8802030BD04020020C7
:101DF0007E00006C2DE9F84F80460F4616461C46C3
:101E0000BB462046E31704EB5373DB1021464FEA31
:101E1000E47C04EB5C7C4FEAEC0CA4EBCC0CBCF156
:101E2000000F02D04FF0010C01E04FF0000C6344B2
:101E3000224604EBD27C4FEA6C0C03FB0CF3DBB2C2
:101E40000093A6F12000C6B200255EE00C2C07D15D
:101E500006EB46002F4901EB800010F805901BE0CF
:101E6000102C05D12C4800EB061010F8059013E05B
:101E7000182C07D106EBC600284901EB800010F8AA
:101E8000059009E0202C05D1254800EBC61010F87C
:101E9000059001E0BDE8F88F4FF0000A2FE009F04F
:101EA000800030B11F48394602684046FFF728FFDE
:101EB00007E00A9828B91C48394602684046FFF7EF
:101EC0001FFF4FEA49604FEA1069781C87B2174834
:101ED0004088B84200DCDDE7A7EB0B00A0420AD146
:101EE0005F4608F101001FFA80F81048008840455D
:101EF00000DCCFE706E00AF1010000F0FF0ABAF1CA
:101F0000080FCCDB00BF681CC5B2009885429DDB82
:101F100000BFBFE7183D00088C4100087C4700085F
:101F2000D85400084400002048000020040200208B
:101F30002DE9F84704460D4690469946DDE90967C4
:101F400004F0FF0A08EB04001FFA80F809EB050013
:101F50001FFA80F916E0444502DB5446A81985B201
:101F60004D4500DB14E0002000903A7833462946C6
:101F70002046FFF73FFF304606EBD07104EB6101CE
:101F80008CB27F1C38787E2802DC38782028E2DA90
:101F900000BFBDE8F8872DE9F84F04460D4690468E
:101FA0009946DDE90B7A0A9E04F0FF0B08EB04006A
:101FB0001FFA80F809EB05001FFA80F916E0444586
:101FC00002DB5C46A81985B24D4500DB14E0CDF874
:101FD00000A03A78334629462046FFF70BFF3046EB
:101FE00006EBD07104EB61018CB27F1C38787E283F
:101FF00002DC38782028E2DA00BFBDE8F88F000064
:1020000001B5BDF800000090BDF80000014908804E
:1020100008BD00008000006C01B5BDF80000009014
:10202000BDF800000149088008BD00007E00006C7A
:1020300000B587B000BF002001901248006840F052
:102040002000104908600846006800F02000019058
:1020500000BF00BF4FF4C0600290012003900490C5
:102060000320059002A90848FEF7A6FA01225102B2
:102070000548FEF7A9FB012291020348FEF7A4FBE5
:1020800007B000BD303802400014024000BFFEE738
:102090007047000002480068C0F30220704700004B
:1020A0000CED00E010B5002807DA0A07140E054A07
:1020B00000F00F031B1FD45403E00A07130E024A5B
:1020C000135410BD18ED00E000E400E070B50446C4
:1020D0004FF47A7094FBF0F0C5B2284600F046F851
:1020E000642094FBF0F00A2190FBF1F201FB120056
:1020F000C5B2284600F03AF8642094FBF0F100FBEA
:1021000011400A2190FBF1F0C5B2284600F02EF8EC
:102110000A2094FBF0F100FB1140C5B2284600F004
:1021200025F870BD00B587B000BF002001900D48B4
:10213000006840F002000B4908600846006800F0A3
:102140000200019000BF00BF4FF4804002900120C8
:10215000039004900320059002A90348FEF72CFA8F
:1021600007B000BD303802400004024038B50446D4
:1021700000200090102C20DA00250EE0204604EB11
:10218000D0714910A4EB4101C9B20DF8051004EB60
:10219000D071C1F34704681CC5B2002CEED10025F4
:1021A00009E01DF80500054908609FED050A01F0EA
:1021B000CBF8681CC5B2042DF3DB38BDB8824042B1
:1021C0000000784210B5FFF7ADFF0E20FFF7CEFFFD
:1021D00010BD10B50F20FFF7C9FF10BD704710B537
:1021E00000F004F8FEF742F910BD000010B594B0FD
:1021F000002400BF13E0002004EB84016A4602EBD8
:1022000081014860032004EB840102EB8101C86076
:10221000012004EB840102EB81018860641C042C22
:10222000E9DB802000904020059020200A901020BB
:102230000F9069460848FEF7BFF905A90648FEF762
:10224000BBF90AA90448FEF7B7F90FA90248FEF73F
:10225000B3F914B010BD00000004024010B5FEF741
:10226000CBF800F001F810BD10B594B0002400BF09
:1022700013E0012004EB84016A4602EB810148600F
:10228000032004EB840102EB8101C860022004EB0F
:10229000840102EB81018860641C042CE9DB80204E
:1022A00000904020059020200A9010200F90694651
:1022B0001248FEF781F905A91048FEF77DF90AA931
:1022C0000E48FEF779F90FA90C48FEF775F90022C0
:1022D00080210A48FEF778FA002240210748FEF7DD
:1022E00073FA002220210548FEF76EFA0022102121
:1022F0000248FEF769FA14B010BD00000004024065
:1023000070B56425002480216248FEF755FA78B143
:1023100040216048FEF750FA50B120215D48FEF799
:102320004BFA28B110215B48FEF746FA00287DD110
:102330004FF4FA7000F0E4FF80215648FEF73CFAB3
:1023400078B140215348FEF737FA50B12021514867
:10235000FEF732FA28B110214E48FEF72DFA002878
:10236000E5D100F009FD0446FFF778FFFFF776FF9F
:10237000642000F0C5FF00F0D1FC0443D72C40D00E
:1023800012DCB72C3BD008DC772C36D07B2C2CD041
:102390007D2C22D07E2C38D117E0BB2C27D0BD2C31
:1023A0001DD0BE2C31D112E0E72C2CD006DCDB2C6A
:1023B0001FD0DD2C15D0DE2C27D10AE0EB2C1AD053
:1023C000ED2C10D0EE2C20D105E00A251FE00025D1
:1023D0001DE00C251BE0102519E0072517E0082556
:1023E00015E0092513E00F2511E004250FE0052570
:1023F0000DE006250BE00E2509E0012507E002258A
:1024000005E0032503E00D2501E0112500BF00BF15
:1024100000BF08211F48FEF7CFF90028F9D04FF47C
:1024200000411D48FEF7C8F9002800E02DE0F0D07B
:102430004FF480411848FEF7BFF90028E9D04FF467
:1024400000511548FEF7B8F90028E2D0052000F049
:1024500057FF00BF08210F48FEF7AEF90028F9D05A
:102460004FF400410C48FEF7A7F90028F2D04FF4D2
:1024700080410948FEF7A0F90028EBD04FF4005145
:102480000548FEF799F90028E4D0FFF7A8FE284692
:1024900070BD0000000402400018024070470000B8
:1024A0002DE9F04192B00446884615461E460027A5
:1024B00000BF002000902A48006840F08050284962
:1024C00008600846006800F08050009000BF00BF20
:1024D00000BF002000902348006840F4804021495C
:1024E00008600846006800F48040009000BF00BF0C
:1024F000012006900004079002200C9041050D91E8
:10250000CDF838800F941095119606A8FEF776FB4B
:1025100007460FB100BFFEE70F2001900220029096
:10252000002003904FF4A05004904FF48050059089
:10253000052101A8FEF7EEF907460FB100BFFEE73F
:10254000FEF748F941F20101884205D106480068CA
:1025500040F480700449086012B0BDE8F0810000CA
:102560004038024000700040003C024010B5FEF7C9
:102570003DF910BD1448006840F47000124908602D
:102580001248006840F001001049086000200F491F
:10259000083108600D4800680D4908400B49086083
:1025A0000C48091D0860081F006820F48020091FDE
:1025B0000860002005490C3108604FF000600249B6
:1025C000803908607047000088ED00E00038024064
:1025D000FFFFF6FE1030002470B504460D4610488B
:1025E000104908600846456000218160C4600161AF
:1025F000FFF78CF860200C490860204604EBD0718E
:102600004910094A5160022011468860002205489D
:10261000FEF7F8FF00210348FFF7CEF870BD000079
:10262000002000408C020020C802002010B50248A3
:10263000FEF71CFF10BD0000140200207FB5054608
:102640000C46124812490860084644600021816027
:10265000C5600161FEF77AFE002000900120019024
:10266000002002900390002269460948FEF7FEFD13
:1026700000210748FEF7C4FE05480068C06840F026
:10268000010003490968C8607FBD0000000C0040DC
:10269000E402002010B50248FEF7E8FE10BD00007D
:1026A000E4020020002202682C4B98420ED0B0F1C8
:1026B000804F0BD02A4B984208D02A4B984205D025
:1026C000294B984202D0294B984201D1012300E0C6
:1026D00000231BB122F070024B681A431F4B984233
:1026E00020D0B0F1804F1DD01D4B98421AD01D4B09
:1026F000984217D01C4B984214D01C4B984211D0D2
:102700001B4B98420ED01B4B98420BD01A4B984251
:1027100008D01A4B984205D0194B984202D0194B59
:10272000984201D1012300E000231BB122F4407242
:10273000CB681A4302608B68C3620B688362074BE5
:10274000984202D0094B984201D1012300E00023B6
:102750000BB10B6903630123436170470000014023
:102760000004004000080040000C0040000401404C
:102770000040014000440140004801400018004072
:10278000001C00400020004030B50023012404FA62
:1027900001F3046A9C430462046A02FA01F52C43C3
:1027A000046230BD30B5002400220023056A25F004
:1027B00001050562026A4368846924F0700424F00C
:1027C00003040D682C4322F002028D682A430F4D4A
:1027D000A84202D00E4DA84201D1012500E00025FB
:1027E0006DB122F00802CD682A4322F0040223F4DE
:1027F000807323F400734D692B438D692B43436031
:1028000084614D684563026230BD000000000140F4
:102810000004014030B5002400220023056A25F0A1
:1028200010050562026A4368846924F4E04424F4D4
:1028300040740D6844EA052422F020028D6842EAC3
:102840000512104DA84202D00F4DA84201D101251A
:1028500000E0002585B122F08002CD6842EA051231
:1028600022F0400223F4806323F400634D6943EABD
:1028700085038D6943EA8503436084614D68856300
:10288000026230BD000001400004014030B5002468
:1028900000220023056A25F480750562026A4368F8
:1028A000C46924F0700424F003040D682C4322F45E
:1028B00000728D6842EA0522104DA84202D0104DE8
:1028C000A84201D1012500E0002585B122F4006273
:1028D000CD6842EA052222F4806223F4805323F477
:1028E00000534D6943EA05138D6943EA05134360BC
:1028F000C4614D68C563026230BD00000000014044
:102900000004014030B5002200230024056A25F4AC
:1029100080550562036A4468C26922F4E04222F4E9
:1029200040720D6842EA052223F400538D6843EAA1
:1029300005330A4DA84202D0094DA84201D1012514
:1029400000E0002525B124F480444D6944EA851453
:102950004460C2614D680564036230BD00000140FF
:102960000004014070B50C46154600210022066A9D
:1029700026F0010606628169026A194EB04214D03F
:10298000B0F1804F11D0174EB0420ED0164EB0426B
:102990000BD0164EB04208D0154EB04205D0154EA1
:1029A000B04202D0144EB04201D1012600E0002610
:1029B0001EB121F00301294303E021F0030141F09E
:1029C000010121F0F001F02606EA0316314322F05E
:1029D0000A0204F00A0632438161026270BD0000FF
:1029E000000001400004004000080040000C0040CE
:1029F00000040140004001400018004070B50C4642
:102A0000154600210022066A26F01006066281693A
:102A1000026A21F4407141EA052121F470414FF42A
:102A2000704606EA0336314322F0A002A02606EAE9
:102A3000041632438161026270BD70B50C461546C2
:102A400000210022066A26F480760662C169026AC5
:102A500021F00301294321F0F001F02606EA0316D4
:102A6000314322F420624FF4206606EA0426324302
:102A7000C161026270BD70B50C461546002100228E
:102A8000066A26F480560662C169026A21F4407122
:102A900041EA052121F470414FF4704606EA0336FD
:102AA000314322F420424FF4204606EA04363243F2
:102AB000C161026270BD70B504460D460CB10821BB
:102AC00000E0002180312944C8B200F0FBF870BD5D
:102AD00000B587B000BF002001901048006840F0AA
:102AE00002000E4908600846006800F002000190EC
:102AF00000BF00BF4FF440500290012003900490AB
:102B00000320059002A90648FDF756FD012108465D
:102B1000FFF7D1FF00F006F807B000BD30380240E3
:102B20000004024010B5002405E00021204600F01A
:102B3000D5F8601CC4B2042CF7DB10BD70B5044698
:102B40004FF47A7094FBF0F0C5B20022294610468B
:102B500000F028F8642094FBF0F00A2190FBF1F2D9
:102B600001FB1200C5B200222946012000F01AF82C
:102B7000642094FBF0F100FB11400A2190FBF1F07E
:102B8000C5B200222946022000F00CF80A2094FB6E
:102B9000F0F100FB1140C5B200222946032000F0ED
:102BA00001F870BD70B506460C4615460548005D37
:102BB0000DB1202200E0002240EA0201304600F080
:102BC0008DF870BD5F00002070B5044642F20F70B2
:102BD000844200DD0446B4F57A7F31DB4FF47A702D
:102BE00094FBF0F0C5B2002229461046FFF7DAFF49
:102BF000642094FBF0F00A2190FBF1F201FB12003B
:102C0000C5B2002229460120FFF7CCFF642094FBC7
:102C1000F0F100FB11400A2190FBF1F0C5B2002257
:102C200029460220FFF7BEFF0A2094FBF0F100FBCB
:102C30001140C5B2002229460320FFF7B3FF40E050
:102C4000632C22DD642094FBF0F0C5B200222946FB
:102C50000120FFF7A7FF642094FBF0F100FB114077
:102C60000A2190FBF1F0C5B2002229460220FFF7AD
:102C700099FF0A2094FBF0F100FB1140C5B200223D
:102C800029460320FFF78EFF1BE0092C14DD0A20E4
:102C900094FBF0F0C5B2002229460220FFF782FF24
:102CA0000A2094FBF0F100FB1140C5B20022294636
:102CB0000320FFF777FF04E0E1B200220320FFF7D3
:102CC00071FF70BD10B50446FEF792FF2046FEF777
:102CD000BDFFFEF777FFFEF79DFF10BD70B5044600
:102CE0000D46FEF785FF04F14001C8B2FEF7AEFFC6
:102CF000FEF768FFFEF78EFFFEF77AFF04F1C001D2
:102D0000C8B2FEF7A3FFFEF75DFF2846FEF79EFF61
:102D1000FEF758FFFEF77EFF70BD000010B50024DF
:102D200008211248FDF748FD10B9114804791BE04D
:102D30004FF400410F48FDF73FFD10B90C484479AE
:102D400012E04FF480410B48FDF736FD10B90848FA
:102D5000847909E04FF400510648FDF72DFD10B9C4
:102D60000348C47900E00024204610BD000402405E
:102D7000200000200018024010B5002480211148D6
:102D8000FDF71AFD10B91048047818E040210D48ED
:102D9000FDF712FD10B90C48447810E020210948D5
:102DA000FDF70AFD10B90848847808E010210548AD
:102DB000FDF702FD10B90448C47800E00F24204656
:102DC00010BD0000000402402000002070B5054640
:102DD000AC6B0020E085E0842046FEF73FFD70BD2F
:102DE0000168C96821F490710268D160016849697D
:102DF00021F0010102685161202180F83A107047EA
:102E000010B504462068C06820F040002168C86002
:102E1000202084F839002046FEF7D0FE002010BDA7
:102E200070B5044694F83A00222844D1A068B0F561
:102E3000805F13D1A56A206940B920684068C0F35B
:102E400008002880A06A801CA06219E02068406801
:102E5000C0B22880A06A401CA06211E0206938B985
:102E600020684068C1B2A26A501CA062117007E0DD
:102E70002068406800F07F01A26A501CA0621170B7
:102E8000E08D401E80B2E08598B92068C06820F4CB
:102E900090702168C8602068406920F001002168B6
:102EA0004861202084F83A002046FEF743FE0020C7
:102EB00070BD0020FCE70220FAE700002DE9F04198
:102EC000044600252068056925F44055E06805435F
:102ED000206805612068C56849F20C608543216956
:102EE000A068084361690843E16908430543206815
:102EF000C5602068456925F44075A06905432068D0
:102F00004561E069B0F5004F7ED1C4492068884230
:102F100003D0C349206888425DD1FDF7FFFD00EB77
:102F2000C00101EB001061684900B0FBF1F06421C1
:102F3000B0FBF1F00601FDF7F1FD00EBC00101EB84
:102F4000001061684900B0FBF1F7FDF7E7FD00EB09
:102F5000C00101EB001061684900B0FBF1F0642191
:102F6000B0FBF1F000EBC00101EB0010A7EB80001B
:102F7000322101EBC0006421B0FBF1F000F0F80059
:102F800006EB4006FDF7CAFD00EBC00101EB0010A7
:102F900061684900B0FBF1F7FDF7C0FD00EBC0012F
:102FA00001EB001061684900B0FBF1F06421B0FB57
:102FB000F1F000EBC00101EB0010A7EB8000322123
:102FC00001EBC0006421B0FBF1F000F007003044D9
:102FD0002168886020E1FDF78BFD00EBC00101EB6B
:102FE000001061684900B0FBF1F06421B0FBF1F022
:102FF0000601FDF77DFD00EBC00101EB00106168EB
:103000004900B0FBF1F700E045E0FDF771FD00EB92
:10301000C00101EB001061684900B0FBF1F06421D0
:10302000B0FBF1F000EBC00101EB0010A7EB80005A
:10303000322101EBC0006421B0FBF1F000F0F80098
:1030400006EB4006FDF754FD00EBC00101EB00105C
:1030500061684900B0FBF1F7FDF74AFD00EBC001E4
:1030600001EB001061684900B0FBF1F06421B0FB96
:10307000F1F000EBC00101EB0010A7EB8000322162
:1030800001EBC0006421B0FBF1F000F00700304418
:1030900021688860C0E061492068884203D06049A7
:1030A000206888425CD1FDF739FD00EBC00101EBDF
:1030B000001061688900B0FBF1F6FDF72FFD00EB11
:1030C000C00101EB001061688900B0FBF1F06421E0
:1030D000B0FBF1F000EBC00101EB0010A6EB8000AB
:1030E000322101EB00106421B0FBF1F000F0F0069A
:1030F000FDF714FD00EBC00101EB001061688900D1
:10310000B0FBF1F06421B0FBF1F006EB0016FDF727
:1031100005FD00EBC00101EB001061688900B0FB08
:10312000F1F7FDF7FBFC00EBC00101EB001061685B
:103130008900B0FBF1F06421B0FBF1F000EBC001BD
:1031400001EB0010A7EB8000322101EB001064219D
:10315000B0FBF1F000F00F003044216888605BE0C4
:10316000FDF7C6FC00EBC00101EB001061688900AF
:10317000B0FBF1F6FDF7BCFC00EBC00101EB001069
:1031800061688900B0FBF1F06421B0FBF1F000EB65
:10319000C00101EB0010A6EB8000322101EB001012
:1031A0006421B0FBF1F000F0F006FDF7A1FC00EBAC
:1031B000C00101EB001061688900B0FBF1F06421EF
:1031C000B0FBF1F006EB0016FDF792FC00EBC0013E
:1031D00001EB001061688900B0FBF1F7FDF788FC96
:1031E00000EBC00101EB001061688900B0FBF1F059
:1031F0006421B0FBF1F000EBC00101EB0010A7EB84
:103200008000322101EB00106421B0FBF1F000F0EE
:103210000F00304421688860BDE8F0810010014053
:1032200000140140014691F8390021282CD188680A
:10323000B0F5805F0FD10A6A1088C0F308000B68F0
:103240005860086918B9086A801C086209E0086AB1
:10325000401C086205E00B6A581C086218780B686D
:103260005860C88C401E80B2C88458B90868C068CD
:1032700020F080000B68D8600868C06840F040000B
:103280000B68D860002070470220FCE710B50024CE
:103290000C48FEF7EFFA00BF01E0641C00BF0948CC
:1032A000FEF7DDFA2028F8D100BF002401E0641CFD
:1032B00000BF012204490348FEF70AFC0028F6D1AA
:1032C00000BF10BD400100201200002000BFFEE73B
:1032D00000BF704710B504460420FDF7B5FE014855
:1032E000046010BD0800002030B50446002504E04D
:1032F0004FF47A7000F004F86D1CA542F8D330BD8D
:1033000070B5034600224FF0E02675690D4E366811
:1033100003FB06F44FF0E026B16910E04FF0E02621
:10332000B06988420BD0884202D20E1A324402E0C1
:103330002E1A0E4432440146A24200D300E0EDE7CB
:1033400000BF70BD080000202DE9F0412DED068B77
:10335000B0EE408A00264FF0E020D0F814801A48E2
:1033600090ED000AB8EE400A28EE000A10EE101A9E
:10337000084600F047FC41EC1A0B9FED140B53EC90
:10338000102B00F09BF941EC190B00F04BFA0746AB
:103390004FF0E020856911E04FF0E0208469AC42F5
:1033A0000CD0AC4202D2281B064403E0A8EB040078
:1033B000284406442546BE4200D300E0ECE700BFA7
:1033C000BDEC068BBDE8F081080000200000000085
:1033D0000000E03F2DE9FC4104460D460027002691
:1033E000FEF7FDFE3FA02021CDE90010A9B2A0B25A
:1033F00020234FF4A072FEF79BFD3846FFF7E4FB55
:1034000066E0FEF77DFFC6B20A2E28DA384800785B
:10341000032824DC3748815D3748354A12788154C7
:103420000021024632480078401C115410462021E9
:10343000CDE90010A9B2A0B220234FF4A072FEF78C
:1034400077FD2E48008800EB800006EB40002B49FA
:10345000088027480078401C254908702DE00E2E72
:1034600000D136E00D2E28D121480078002824DD37
:103470001F480078401E1E49087000211E481C4A43
:10348000127881541EA02021CDE90010A9B2A0B26B
:103490002023A022FEF74CFD17482021CDE9001083
:1034A000A9B2A0B22023A022FEF742FD1348008853
:1034B0000A2190FBF1F011490880104800888742EA
:1034C00006D00E480788FFF72DFB3846FFF77CFB38
:1034D00097E700BF00200649087008490880384671
:1034E000BDE8FC812020202020202020202000007A
:1034F0003A000020083D000880010020380000202C
:103500002020202020202020202020000EB5002771
:103510000025FDF773F90723022208214FF4A87054
:10352000FEF7BEFFA820FFF7D5FEFEF7DFFB4FF446
:10353000E13000F0A7F8FEF77BFDFFF7C9FA532151
:1035400040F2F310FFF748F85321681EFFF776F8B2
:103550007BE0FEF744FEFEF7D3FEC4B2012C1ED181
:103560003A48006808B9012000E0002037490860A7
:10357000FFF7D8FA00210846FFF72CFF0746FEF7B1
:1035800021FE0BE03846FEF7A1FDFEF728FEFEF710
:10359000B7FEC4B2022C01D1FEF71BFEF2E7032CEA
:1035A0004ED100202AA120221346CDE9002102900D
:1035B000C0221E210A20FEF7EEFC00270025012074
:1035C00027490870FFF7AEFA26480078002837D060
:1035D00025A204212648FCF799FF28B3102124488E
:1035E000001DFCF7B9FE0546AF4229D01021204846
:1035F000001DFCF7DBFE80462846FFF79FFA0026F9
:103600000EE018F806000F2808D1002014490870B1
:1036100041F28830FFF768FEFFF784FA701CC6B2EB
:10362000042EEEDB2F460BE0002012A120221346D1
:10363000CDE900210290C0221E210A20FEF7ABFC3A
:10364000042C02D100200649087082E7A48242427D
:10365000416363657074696E672E2E2E2100000031
:10366000540000205E0000203131313000000000A5
:1036700020030020446574656374204572726F7284
:103680002100000010B5044609480A4908600846B0
:10369000446000218160C160016181610C21416150
:1036A000FEF78EF9012204490248FEF711FA10BD17
:1036B00000100140400100201200002010B591EAE6
:1036C000030F48BF83F0004300F1BA81841A71EB05
:1036D000030C05D2121943EB0C03001B61EB0C0128
:1036E000DFF824E14FEA1154A4EB135C1EEA430F08
:1036F00018BF9EEA445F73D023EA0E03DCF1200E6C
:1037000021EA045143F4801332D322FA0CFE10EB69
:103710000E0023FA0CFE41EB0E01CCF1200E03FA51
:103720000EFE10EB0E0051F10001B1F5801FCCF13F
:10373000200E32D201EB045112FA0EF2BDE8104015
:1037400058BF7047401C38BF5FEA420218BF70473D
:10375000002814BF20F0010041F100014FEA4103AD
:1037600013F5001F38BF7047A1F1C04100F024B924
:10377000012A43EB0302ACF1200CDCF11F0E32BF37
:103780004FF0000E23FA0CF310EB030041EB045151
:10379000B4EB115FD0D0A1EB045101F580114908C1
:1037A0005FEA300001EB04510ED350F1000038BF46
:1037B00012FA0EFE08D1BDE81040C9E7401C38BF20
:1037C0005FEA4202CAD1C3E7BDE810404FEA4103B5
:1037D00013F5001F38BF7047A1F1C04100F0ECB8ED
:1037E0009EEA445F08D011EA5E0FBDE8104004BFB6
:1037F00001F0004100207047BDE8104070B500F0B6
:103800008DF800BF64FBBE3E0000E0FF491058BFCA
:10381000C1F140415B1058BFC3F140438B42EFF30D
:10382000008070474FEA1153A3F58063D3F11E0364
:10383000A8BFD3F1200C08DB4FF0004242EAC122BE
:1038400052EA505232FA03F0704709420BD4102B5F
:10385000C4BF0020704703F5787CBCF1FF3F05D062
:103860004FF0FF3070474FF00000704770B500F028
:1038700055F800BF4992248000207047F0E7B0FA65
:1038800080F310FA03F10AD0C3F11D0303F580633E
:103890004FEA41504FEA035202EBD12170474FF0FB
:1038A0000000704751EA030C17D41CF5801F58BF65
:1038B000BCF5801F00F10680994218BF704708BF11
:1038C0009042704707D711F5801F58BF13F5801F2E
:1038D00019D499427047894270471CF5801F08D55A
:1038E000BCF5801FF7D58B4218BF704708BF8242D6
:1038F00070474FF4001C1CEB410F38BF1CEB430F0B
:1039000001D28B42704770B500F008F8922449004C
:103910004FF000514FF08053FFF778BF0EF1020EC9
:103920002EF0030E5EF8046B364205D4012A43EBF9
:10393000030515F5001F12D8012841EB010C1CF5F9
:10394000001F0CD80ED14FEAD17C15F5001F0CEBEF
:103950004C0C0CF1020C08BF4CEBD37C04E04FF094
:10396000080C01E04FEAD37C0CEB4C0526FA05F677
:1039700006F00706B6F1040C06D20EEB860CBDE885
:1039800070404CF0010C6047DFE80CF0090B0202BC
:103990004FF000414FF00000A1F5002170BD194625
:1039A0001046012851EB010418BFD4F5001484BF60
:1039B000002001F0004170BD0808A0F500114FEA99
:1039C0003101704753EA010C17D41CF5801F58BF12
:1039D000BCF5801F00F106808B4218BF704708BFFE
:1039E0008242704707D713F5801F58BF11F5801F1B
:1039F00019D48B4270479B4270471CF5801F08D535
:103A0000BCF5801FF7D5994218BF704708BF904298
:103A100070474FF4001C1CEB430F38BF1CEB410FE9
:103A200001D2994270470FB40CBC03BCFFF76BBFC7
:103A300010B591EA030F48BF83F000433FF546AE4F
:103A4000841A71EB030C07D212198CF0004C43EB73
:103A50000C03001B61EB0C01DFF8A4E14FEA1154E9
:103A6000A4EB135C1EEA430F18BF9EEA445F00F00C
:103A7000B08023EA6E03524221EA0451C3EB6E0385
:103A800038BF5B1EDCF1200E25D322FA0CFE10EBB2
:103A90000E0043FA0CFE41EB0E01CCF1200E03FAAE
:103AA0000EFE10EB0E0051F10001CCF1200E29D4D6
:103AB00012FA0EF201EB0451BDE8104058BF7047F6
:103AC000401C1CBFB2F1004F704700280CBF491CBE
:103AD00020F00100704712EB020E43EB030218BF07
:103AE0004FF0010E4EEA4202ACF1200CDCF11E0E4A
:103AF00054D943FA0CFE10EB0E0051F1FF31CCF11A
:103B00001E0ED5D50EF1010E12FA0EFE404141EB0C
:103B1000010101EB445C5FEA5C5C10D910EBDE70E4
:103B200001EB045138BFBEF1004FBDE8104018BF93
:103B3000704700280CBF491C20F00100704730D2AC
:103B40004FEAD42C11F5001124F400641BD0B1FA13
:103B500081F20B3AA41AA41ED2F12003914030FA4C
:103B600003F31943904001EBCC71002C01EB04519D
:103B7000BDE81040A8BF704701F1C0414FF0000000
:103B800001F000417047B0FA80F310FA03F100D160
:103B900010BDE41A173C4805C90AE4E701EB0451DB
:103BA00010BD491001EB0451BDE810404FEA300050
:103BB00002E04FF0000170474A0008BF0042F8D011
:103BC000B2F5001F28BF704701F000414FF0000020
:103BD00070479EEA445F07D011EA5E0FBDE81040CF
:103BE00004BF002100207047BDE8104070B5FFF70A
:103BF00095FE00BF40DFF63E83F00041104670475F
:103C00000000E0FF43004FEAD30C4FEA3C0C434076
:103C10001FBF40070CF1605113F0FE4F70471CF0BE
:103C2000006F03D100200CF0004170470CF00043FE
:103C300043EA507010B540EACC0000F00EF800BF27
:103C4000000000924FEA0001FFF7B6BE4FF00041BE
:103C50004FF00000A1F5002170470EF1020E2EF08A
:103C6000030E5EF8044B244204D44FEA4102B2F141
:103C70007F4F11D84FEA4003B3F17F4F0CD80ED1DC
:103C80004FEAD07CB2F17F4F0CEB4C0C0CF1020CE4
:103C900008BF4CEBD17C04E04FF0080C01E04FEA88
:103CA000D17C0CEB4C0324FA03F404F00704B4F1C8
:103CB000040C06D20EEB840CBDE810404CF0010C55
:103CC0006047DFE80CF0070802024FF00040A0F563
:103CD000800010BD0846420018BFD2F1807288BF34
:103CE00000F0004010BD4FF04070E1EE100A704748
:103CF000000000000000000001020304060708099C
:103D0000000000000102030430313233343536370D
:103D100038394142432A23440000000000000000DB
:103D200000000000000000003F4000000000000014
:103D300000003000400030004000000009000BC0CF
:103D40003D000BC03D00090018C024407FE0224028
:103D500031800000180024C01B000D80324001801B
:103D600003801C4027401C8007400040100060007A
:103D700000000000000000000000000000001F80A4
:103D8000204040200000402020401F800000000014
:103D9000090006001F80060009000000040004005E
:103DA0003F800400040000000010006000000000DC
:103DB00000000000040004000400040004000000EF
:103DC000000000400000000000000000002001C0D2
:103DD00006003800400000001F80204020402040A6
:103DE0001F800000000010403FC0004000000000A5
:103DF00018C021402240244018400000108020407C
:103E0000244024401B80000002000D0011003FC030
:103E1000014000003C8024402440244023800000D6
:103E20001F802440244034400380000030002000E4
:103E300027C03800200000001B802440244024407C
:103E40001B8000001C0022C0224022401F80000076
:103E5000000000000840000000000000000000001A
:103E60000460000000000000000004000A001100CF
:103E700020804040090009000900090009000000F5
:103E800000004040208011000A00040018002000BB
:103E900023402400180000001F80204027402940B4
:103EA0001F400000004007C039000F0001C0004063
:103EB00020403FC0244024401B8000001F80204041
:103EC000204020403080000020403FC02040204063
:103ED0001F80000020403FC024402E4030C0000022
:103EE00020403FC024402E00300000000F00108012
:103EF000204022403380020020403FC004000400E4
:103F00003FC02040204020403FC0204020400000D3
:103F10000060202020203FC02000200020403FC023
:103F200024400B0030C0204020403FC020400040D3
:103F3000004000C03FC03C0003C03C003FC0000048
:103F400020403FC00C4023003FC020001F80204085
:103F5000204020401F80000020403FC0244024001B
:103F6000180000001F802140214020E01FA0000019
:103F700020403FC02440260019C0004018C0244003
:103F80002440224031800000300020403FC02040CB
:103F90003000000020003F80004000403F802000B3
:103FA00020003E0001C0070038002000380007C094
:103FB0003C0007C038000000204039C0060039C06E
:103FC000204000002000384007C03840200000009A
:103FD000304021C02640384020C0000000000000D2
:103FE0007FE0402040200000000070000C000380B3
:103FF000004000000000402040207FE00000000062
:104000000000200040002000000000000010001010
:104010000010001000100010000000004000000020
:1040200000000000000002800540054003C0004081
:1040300020003FC0044004400380000000000380D3
:104040000440044006400000000003800440244077
:104050003FC00040000003800540054003400000D1
:10406000000004401FC0244024402000000002E063
:10407000055005500650042020403FC00440040075
:1040800003C000400000044027C0004000000000C2
:1040900000100010041027E00000000020403FC086
:1040A0000140070004C00440204020403FC00040C1
:1040B0000040000007C0040007C0040003C0000067
:1040C000044007C00440040003C000400000038017
:1040D0000440044003800000041007F00450044032
:1040E00003800000000003800440045007F000102B
:1040F000044007C002400400040000000000064025
:104100000540054004C00000000004001F8004407A
:1041100000400000040007800040044007C0004049
:104120000400070004C0018006000400060001C06E
:10413000070001C006000000044006C0010006C0E0
:10414000044000000410071004E001800600040091
:104150000000044005C006400440000000000000CC
:1041600004007BE040200000000000000000FFF0A1
:1041700000000000000040207BE004000000000080
:1041800040008000400020002000400000000000AF
:10419000000000000000000000000000000000001F
:1041A00000001FCC000C0000000000000000080010
:1041B000300060000800300060000000022003FCB6
:1041C0001E20022003FC1E200220000000000E180A
:1041D00011043FFF10840C78000000000F001084D1
:1041E0000F3800C0077818840078000000780F842A
:1041F00010C411240E9800E4008400080800680030
:10420000700000000000000000000000000000003E
:10421000000007E0181820044002000000004002DF
:104220002004181807E000000000000002400240CF
:1042300001800FF0018002400240000000800080F9
:1042400000800FF800800080008000000001000D59
:10425000000E0000000000000000000000000080D0
:104260000080008000800080008000800000000C42
:10427000000C00000000000000000000000000062C
:10428000001800600180060018002000000007F000
:10429000080810041004080807F0000000000804D3
:1042A00008041FFC000400040000000000000E0CC5
:1042B00010141024104411840E0C000000000C187F
:1042C00010041104110412880C700000000000E0BA
:1042D0000320042408241FFC0024000000001F9871
:1042E000108411041104108810700000000007F001
:1042F00008881104110418880070000000001C00D8
:10430000100010FC13001C001000000000000E380C
:1043100011441084108411440E380000000007007E
:10432000088C10441044088807F0000000000000CA
:104330000000030C030C000000000000000000005F
:1043400000010106000000000000000000000080E5
:10435000014002200410080810040000022002207E
:10436000022002200220022002200000000010048F
:1043700008080410022001400080000000000E0028
:104380001200100C106C10800F00000003E00C18DD
:1043900013E4142417C4082807D000000004003CCC
:1043A00003C41C40074000E4001C000410041FFC70
:1043B0001104110411040E880070000003E00C18B1
:1043C00010041004100410081C10000010041FFC3E
:1043D000100410041004080807F0000010041FFC6B
:1043E0001104110417C410040818000010041FFC65
:1043F0001104110017C010000800000003E00C18A1
:104400001004100410441C780040000010041FFC2D
:1044100010840080008010841FFC10040000100431
:1044200010041FFC10041004000000000003000131
:10443000100110011FFE10001000000010041FFCEE
:10444000110403801464181C1004000010041FFCE5
:104450001004000400040004000C000010041FFC01
:104460001F0000FC1F001FFC1004000010041FFCB4
:104470000C04030000E010181FFC100007F00808EF
:10448000100410041004080807F0000010041FFCBA
:1044900010841080108010800F00000007F00818B2
:1044A00010241024101C080A07F2000010041FFC3E
:1044B0001104110011C011300E0C000400000E1C7C
:1044C00011041084108410441C38000018001000DF
:1044D00010041FFC100410001800000010001FF84A
:1044E00010040004000410041FF8100010001E0047
:1044F00011E0001C007013801C0010001FC0103C55
:1045000000E01F0000E0103C1FC000001004180C69
:10451000163401C001C01634180C100410001C0021
:10452000130400FC13041C00100000000804101CFD
:104530001064108413041C04101800000000000014
:1045400000007FFE400240024002000000003000F8
:104550000C0003800060001C00030000000040020B
:10456000400240027FFE000000000000000000004A
:104570002000400040004000200000000001000139
:1045800000010001000100010001000100004000E5
:104590004000200000000000000000000000009823
:1045A000012401440144014400FC000410001FFCEC
:1045B0000088010401040088007000000000007001
:1045C000008801040104010400880000000000705C
:1045D00000880104010411081FFC0004000000F819
:1045E000014401440144014400C8000000000104EA
:1045F00001040FFC1104110411001800000000D682
:1046000001290129012901C90106000010041FFC2C
:10461000008401000100010400FC0004000001040A
:10462000190419FC0004000400000000000000034D
:1046300000010101190119FE0000000010041FFC17
:104640000024004001B4010C01040000000010042B
:1046500010041FFC0004000400000000010401FC21
:104660000104010001FC0104010000FC010401FC43
:10467000008401000100010400FC0004000000F8B7
:10468000010401040104010400F80000010101FF1C
:104690000085010401040088007000000000007023
:1046A000008801040104010501FF00010104010467
:1046B00001FC00840104010001800000000000CC26
:1046C00001240124012401240198000000000100BC
:1046D000010007F80104010400000000010001F8D6
:1046E000000400040004010801FC00040100018032
:1046F0000170000C001001600180010001F0010C4C
:10470000003001C00030010C01F001000000010484
:10471000018C00740170018C010400000101018111
:104720000171000E00180160018001000000018489
:10473000010C013401440184010C00000000000060
:104740000000000001003EFC4002400200000000AA
:1047500000000000FFFF0000000000000000400219
:1047600040023EFC0100000000000000000060006C
:104770008000800040004000200020000000000079
:104780000000000000000000000000000000000029
:104790000000000000000000000000000000000019
:1047A0000000000000000000000000000000000FFA
:1047B00080380FFE380F8038000000000000000035
:1047C00000000000000000000000010000060000E2
:1047D0000C00003800003100000600000C0000381A
:1047E0000000300000000000000000006180006751
:1047F000F807F980006180006180006180006180BD
:104800000067F807F98000618000000000000000E8
:10481000000001C0E003E0F00630080418081FFFA4
:10482000FE040E080787F00381E00000000000008E
:1048300001F000060C00040408060C7001F9C00029
:104840000E00003BE000EC18070808040C180003F9
:10485000E00000000001E00007F003F818041C0865
:1048600004170807E1D003C0E00023B0003C0800B3
:1048700020080000100000000000000100003100CE
:10488000003200001C0000000000000000000000DA
:104890000000000000000000000000000000000018
:1048A0000000000000000000000000007F0001FF89
:1048B000C00780F00C001810000420000200000067
:1048C0000000002000021000040C00180780F00116
:1048D000FFC0007F0000000000000000000000009A
:1048E00000000000000000004200006600006600BA
:1048F000003C0000180003FFC0001800003C00004E
:104900006600006600004200000000000800000889
:104910000000080000080000080001FFC0000800B7
:104920000008000008000008000008000000000067
:10493000000100003100003200001C0000000000F7
:104940000000000000000000000000000000000067
:104950000000000008000008000008000008000037
:104960000800000800000800000800000800000817
:1049700000000000000000000000000038000038C7
:1049800000003800000000000000000000000000EF
:104990000000000000000000000000000006000011
:1049A0001C000070000180000E0000380000C000F4
:1049B0000700001C000030000000000000000000A4
:1049C0007F8001FFE00380700600180400080400E7
:1049D0000806001803807001FFE0007F80000000DF
:1049E00000000000000001000801000801000803A9
:1049F000FFF807FFF80000080000080000080000AA
:104A00000000000000000001C03802C058040098F7
:104A1000040118040218040418061C1803F81801ED
:104A2000E0F800000000000000000001C0E003C04A
:104A3000F004000804080804080806180803F4181D
:104A400001E7F00001E000000000000000000000AD
:104A50000300000D00001100006100008108030147
:104A60000807FFF80FFFF800010800010800000028
:104A70000000000000E007FCD00608080610080649
:104A80001008061008061838060FF00607C00000C8
:104A900000000000000000003F8001FFE0038430C0
:104AA000020818041008041008041008071810035E
:104AB0000FF00007C000000000000000000003C06D
:104AC000000700000600000600F80607F8061800B8
:104AD00006E00007000006000000000000000001E2
:104AE000E1E003F7F0063410041808041808040C79
:104AF00008040C0806161803F3F001C1E0000000DA
:104B000000000000F80003FC30030638040208042B
:104B100002080402080404100308F001FFC0007F2B
:104B20000000000000000000000000000000000085
:104B3000000000007038007038007038000000007D
:104B40000000000000000000000000000000000065
:104B50000000000000000000301A00301C000000BF
:104B60000000000000000000000000000000000045
:104B70000000000800001400002200004100008036
:104B8000800100400200200400100800080000001E
:104B90000000000021000021000021000021000091
:104BA000210000210000210000210000210000213F
:104BB00000000000000000000000080008040010D1
:104BC000020020010040008080004100002200001F
:104BD000140000080000000000000003C00004C032
:104BE00000040000080038080F38080838081000D2
:104BF0000C300007E00003C00000000000000000CF
:104C00003F8000FFE0038070020F1006708804C030
:104C100088048308047F8802C09003012000FE40BE
:104C20000000080000180001F8003E0801C200075B
:104C3000020007E20000FE00001FC80001F80000AB
:104C40003800000804000807FFF807FFF804080808
:104C500004080804080804080806180803F41801E2
:104C6000E7F00001E0000000000000003F8001FFCD
:104C7000E003807002001804000804000804000823
:104C80000400100600200780C00000000400080790
:104C9000FFF807FFF80400080400080400080400F7
:104CA0001802001003807001FFE0007F8000000008
:104CB00004000807FFF807FFF804080804080804C0
:104CC0000808040808043E0804000806001801004B
:104CD0006000000004000807FFF807FFF804080858
:104CE000040800040800040800043E000600000652
:104CF0000000018000000000000000003F8001FF74
:104D0000E00380700600180400080402080402088A
:104D10000203F00783F0000200000200040008070D
:104D2000FFF807FFF8040808000800000800000862
:104D30000000080004080807FFF807FFF80400084F
:104D40000000000000000400080400080400080738
:104D5000FFF807FFF804000804000804000800003A
:104D60000000000000000000000600000700000135
:104D700004000104000104000307FFFE07FFFC0418
:104D8000000004000004000004000807FFF807FF0B
:104D9000F8040C08001800003E0004C7800503C892
:104DA0000600F80400380400180000080400080792
:104DB000FFF807FFF80400080000080000080000E2
:104DC0000800000800000800001800006000000053
:104DD00004000807FFF807800807FC00007FC000F8
:104DE00003F80007C000780007800807FFF807FFF6
:104DF000F804000804000807FFF807000803C000D3
:104E000000E000003800001E000007000001C004A0
:104E100000F007FFF8040000000000007F8001FFA1
:104E2000E00380700600180400080400080600185B
:104E300003003001FFE0007F80000000040008074D
:104E4000FFF807FFF8040408040400040400040445
:104E500000040400060C0003F80001F0000000004C
:104E6000000000007F8001FFE003807006008804DE
:104E700000880400C806003C03003E01FFE6007FF6
:104E80008400000004000807FFF807FFF804080882
:104E9000040800040C00040F00040BC00610F0030B
:104EA000F03801E00800000800000001E0F803F01D
:104EB00030063010041808041808040C08040C0804
:104EC0000206180207F00781E000000001800006DA
:104ED000000004000004000004000807FFF807FFBA
:104EE000F80400080400000400000600000180002F
:104EF00004000007FFE007FFF004001800000800AE
:104F0000000800000800000800000804001007FF67
:104F1000E004000004000006000007E00007FE00B7
:104F2000041FE00001F80000380001E0043E000723
:104F3000C00006000004000004000007E00007FFB6
:104F4000C0041FF80007C007F80007FF80043FF8FF
:104F50000007C004F800070000040000000000047F
:104F6000000806001807C07805F1C8003E00001FC1
:104F7000800463E80780F8060018040008000000B9
:104F800004000006000007800007E008047C080019
:104F90001FF80007F800180804E0080700000600E2
:104FA000000400000000000100080600380400F8BA
:104FB0000403E8040F08047C0805F00807C008078C
:104FC0000018040060000000000000000000000065
:104FD000000000000000003FFFFE20000220000251
:104FE000200002200002200002000000000000005B
:104FF000000008000007000000C0000038000006A4
:10500000000001C000003000000E000001000000A0
:10501000000000000000200002200002200002200A
:1050200000022000023FFFFE000000000000000020
:105030000000000000000000000000000008000068
:1050400010000030000020000030000010000008B8
:10505000000000000000000000000100000100004E
:10506000010000010000010000010000010000013A
:10507000000001000001000001000001000000002C
:1050800000000000002000002000001000001000C0
:105090000000000000000000000000000000000010
:1050A0000000000000F00019F8001B1800220800A2
:1050B0002608002408002410003FF8001FF8000014
:1050C0000800001800000004000007FFF80FFFF0C0
:1050D00000181800100800200800200800301800F0
:1050E0001FF0000FC00000000000000007C0001FFC
:1050F000F0001830002008002008002008003C08BC
:10510000001C100000600000000000000000000013
:1051100007C0001FF00038180020080020080020F9
:105120000804101007FFF80FFFF000001000000047
:105130000000000000000007C0001FF00012300057
:105140002218002208002208003208001E10000E5B
:1051500020000000000000002000002008002008BF
:1051600001FFF803FFF806200804200804200807C0
:10517000200003000000000000000000000E000EF0
:105180006E001FF30031B10020B10020B100319159
:10519000001F13002E1E00200E003000000000042F
:1051A000000807FFF80FFFF800100800200000209B
:1051B00000002008003FF8001FF800000800000071
:1051C0000000000000000020080020080020080661
:1051D0003FF8063FF8000008000008000008000043
:1051E00000000000000000000000000003000003B9
:1051F000002001002001002003063FFE063FFC00C6
:10520000000000000000000000000004000807FF8C
:10521000F80FFFF8000188000300002FC00038F8E5
:1052200000203800200800000800000000000000F6
:10523000000004000804000804000807FFF80FFF3E
:10524000F80000080000080000080000000000004E
:10525000002008003FF8003FF80010080020000080
:105260003FF8003FF8001008002000003FF8003F22
:10527000F8000008000000002008003FF8003FF898
:10528000001008001000002000002008003FF80077
:105290001FF80000080000000000000007C0000F19
:1052A000F000183000300800200800200800300806
:1052B000001830000FF00007C000000000000000E0
:1052C0002001003FFF003FFF0010110020090020D7
:1052D00008002008003038001FF0000FC000000058
:1052E0000000000007C0001FF00038180020080070
:1052F0002008002009001011001FFF003FFF0000E0
:1053000001000000002008002008002008003FF8ED
:10531000003FF800080800100800200800200000E6
:105320003000003000000000000000000000000C11
:1053300078001E1800330800230800210800218887
:105340000021980030F000386000000000000000EC
:10535000200000200000200000FFF003FFF80020E4
:1053600008002008002008000030000000000000B5
:10537000000000002000003FF0007FF8000018004F
:105380000008000008002010003FF8007FF0000037
:1053900010000000000000002000003000003C0071
:1053A000003F800023F000007800007000238000A0
:1053B0003C00003000002000002000003C00003FC6
:1053C000E00023F80000E0002700003E00003FE07E
:1053D0000021F80001E0003E000020000000000075
:1053E0002008002008003838003E680027800003AD
:1053F000C8002CF8003838002018002008000000F1
:10540000000000002000003003003C01003F83004A
:1054100023EC000070002380003C000020000020EE
:1054200000000000000000000000003808002038E4
:105430000020F80023E8002F88003E08003808000C
:1054400020180000700000000000000000000000B4
:10545000000000000000000008000014001FF7FC1E
:1054600030000620000200000000000000000000E4
:105470000000000000000000000000000000FFFF2E
:10548000FF0000000000000000000000000000001D
:105490000000000000002000023000061FF7FC00A2
:1054A00014000008000000000000000000000000E0
:1054B0000000000000000018000060000040000034
:1054C000400000200000100000080000040000045C
:1054D00000000C00001000000000000000000000B0
:1054E00000000000000000000000000000000000BC
:1054F00000000000000000000000000000000000AC
:10550000000000000000000000000000000000009B
:10551000000000000000000000000000000000008B
:10552000000000000000000000000000000000007B
:10553000000000000000000000000000000000006B
:10554000000000000000000000000000000000005B
:10555000000000000000000000000000000000004B
:10556000000000000000000000000000000000003B
:1055700007F000C007FFE1E007F001E0000000C015
:10558000000000000000000000000000000000001B
:10559000000000000000000000000000000000000B
:1055A00000000000000000000000000000000000FB
:1055B00000000000000000000000000000000000EB
:1055C00000000000000000000000000000000000DB
:1055D00000000000000000000000000000000000CB
:1055E0000020000001C00000078000001F00000034
:1055F0001E0000001C20000001C000000780000009
:105600001F0000001E0000001C0000000000000041
:10561000000000000000000000000000000000008A
:10562000000000000000000000000000000000007A
:10563000000000000000000000000000000000006A
:10564000000000000000000000000000000000005A
:1056500000000000000000000000000000180C0026
:1056600000180C0000180FE0001FFC0003F80C00ED
:1056700000180C0000180C0000180C0000180C009A
:1056800000180FE0001FFC0003F80C0000180C00CD
:1056900000180C00000000000000000000000000E6
:1056A00000000000000000000000000000000000FA
:1056B00000000000000000000000000000000000EA
:1056C00000000000000000000000000000000000DA
:1056D00000000000000000000000000000000000CA
:1056E00000000780007807C000FC0640010E002083
:1056F00003070020020380200FFFFFFC0201C020EF
:105700000200E0600130704001F03F8000F01F00B7
:105710000000000000000000000000000000000089
:105720000000000000000000000000000000000079
:105730000000000000000000000000000000000069
:105740000000000000000000000000000000000059
:10575000000000000000000000FE000001FF00004B
:105760000301800002008060030181C001FF070087
:1057700000FE18000000E0000003BF00000CFFC0A6
:105780000071806001C10020030180600000FFC043
:1057900000003F00000000000000000000000000CA
:1057A00000000000000000000000000000000000F9
:1057B00000000000000000000000000000000000E9
:1057C00000000000000000000000000000000000D9
:1057D000000000000000000000001F0000007FC06B
:1057E00000FCC0C001FF80600303E02002027820BB
:1057F00002061E2003FC074001F00380000103C0E5
:1058000000011C600001E0200001002000010040B8
:105810000000018000000000000000000000000007
:105820000000000000000000000000000000000078
:105830000000000000000000000000000000000068
:105840000000000000000000000000000000000058
:105850000000000000000000000000000020000028
:105860001C6000001C4000001F8000000F000000B2
:105870000000000000000000000000000000000028
:105880000000000000000000000000000000000018
:105890000000000000000000000000000000000008
:1058A00000000000000000000000000000000000F8
:1058B00000000000000000000000000000000000E8
:1058C00000000000000000000000000000000000D8
:1058D00000000000000000000000000000000000C8
:1058E00000000000000000000000000000000000B8
:1058F000000000000007F800003FFF00007807C02C
:1059000001C000E0030000300400000808000004AB
:105910001000000200000000000000000000000075
:105920000000000000000000000000000000000077
:105930000000000000000000000000000000000067
:105940000000000000000000000000000000000057
:105950000000000000000000000000001000000235
:1059600008000004040000080300003001C000E04B
:10597000007807C0003FFF000007F80000000000AB
:105980000000000000000000000000000000000017
:105990000000000000000000000000000000000007
:1059A00000000000000000000000000000000000F7
:1059B00000000000000000000000000000000000E7
:1059C00000000000000000000000000000000000D7
:1059D00000000000000000000000000000000000C7
:1059E000000C1800000E3800000E380000063000D1
:1059F000000360000061438000FFFF8000614300FE
:105A00000003600000063000000E3800000E380071
:105A1000000C180000000000000000000000000062
:105A20000000000000000000000000000000000076
:105A30000000000000000000000000000000000066
:105A40000000000000000000000000000000000056
:105A50000000000000000000000000000000000046
:105A60000000800000008000000080000000800036
:105A70000000800000008000007FFF000000800028
:105A80000000800000008000000080000000800016
:105A90000000800000000000000000000000000086
:105AA00000000000000000000000000000000000F6
:105AB00000000000000000000000000000000000E6
:105AC00000000000000000000000000000000000D6
:105AD00000000000000000000000000000000001C5
