:020000040800F2
:10000000380900206D020008CF660008C7300008DC
:10001000CD660008DF140008556D000800000000E0
:100020000000000000000000000000007D680008E3
:100030000915000800000000F16600085969000871
:10004000870200088702000887020008870200086C
:10005000870200088702000887020008870200085C
:10006000870200088702000887020008870200084C
:10007000870200088702000887020008870200083C
:10008000870200088702000887020008870200082C
:100090008702000887020008870200080B15000885
:1000A000870200088702000887020008870200080C
:1000B00087020008870200088702000887020008FC
:1000C00087020008870200088702000887020008EC
:1000D00087020008E96C0008870200088702000810
:1000E00087020008870200088702000887020008CC
:1000F00087020008870200088702000887020008BC
:1001000087020008870200088702000887020008AB
:10011000870200088702000887020008870200089B
:10012000870200088702000887020008870200088B
:10013000870200088702000887020008870200087B
:10014000870200088702000887020008870200086B
:10015000870200088702000887020008870200085B
:10016000870200088702000887020008870200084B
:1001700087020008870200088702000800000000CC
:10018000870200088702000887020008870200082B
:10019000870200088702000887020008870200081B
:1001A00087020008870200088702000800F002F8B2
:1001B00000F04CF80AA090E8000C82448344AAF1B5
:1001C0000107DA4501D100F041F8AFF2090EBAE8B3
:1001D0000F0013F0010F18BFFB1A43F0010318477B
:1001E000CCB90000ECB90000103A24BF78C878C13F
:1001F000FAD8520724BF30C830C144BF04680C602D
:10020000704700000023002400250026103A28BF74
:1002100078C1FBD8520728BF30C148BF0B60704778
:10022000662907F0BA80782900F08A80002070479C
:100230001FB507F0A8F800F029FC040000200021F9
:1002400006F0AAFEE0601FBD10B510BD00F01EFD57
:100250001146FFF7EDFF06F0DBFD00F03CFD03B4B7
:10026000FFF7F2FF03BC06F095FD00000948804748
:1002700009480047FEE7FEE7FEE7FEE7FEE7FEE788
:10028000FEE7FEE7FEE7FEE704480549054A064BA0
:10029000704700005D690008AD01000838030020C8
:1002A000380900203805002038050020704700007C
:1002B0000FB4044910B503AA029800F0D5FB10BC96
:1002C0005DF814FB200000200FB41CB5074B06AAF4
:1002D0007B4469460090059800F0ADFB002069461C
:1002E00000F0BCFB1CBC5DF814FB0000890700009B
:1002F00070B5044685690068C10601D5302600E066
:100300002026C00707D070BDD4E9012130469047B0
:10031000206A401C20626D1EF6D570BD70B5044683
:1003200085690078C00707D170BDD4E9012120207C
:100330009047206A401C20626D1EF6D570BD0000FB
:1003400070B504460D4621461068AFF30080218841
:10035000090502D50F4A7A4402E00E4A7A440E3269
:10036000002104F1240305E000F00F060009965D6A
:100370005E54491C0028F7D120780023000704D5DB
:10038000702D02D009B1022311322046BDE8704021
:1003900000F0E6B894B700002DE9F0474FF0000AEE
:1003A00089460446C0F820A02046E1688847002816
:1003B00076D0252806D0D4E901219047206A401C38
:1003C0002062F1E7E168204600258847C4F81CA0B8
:1003D00006460027C4F818A02A2E09D0304606F099
:1003E000D2FC38B304EB8708303EC8F8186019E037
:1003F00059F8041B204604EB87029161E1688847A5
:10040000012F064618D1E069002820DA25F02005E2
:100410001DE0D8F8180000EB800006EB40003038F3
:10042000C8F818002046E1688847064606F0ABFC8D
:100430000028EED1012F0AD02E2E08D12046E168E7
:1004400088477F1C0646022F45F02005C4DBA069C3
:10045000002803DA404245F00105A061E80701D019
:1004600025F01005B6B1A6F14100192802D82036B2
:1004700045F400654A463146204625604D46FFF763
:10048000CFFE58B1012806D0ED1D25F0070000F180
:10049000080989E704E005F1040985E730468AE7A1
:1004A000206ABDE8F08710B5203AC0F00B80B1E8B3
:1004B0001850203AA0E81850B1E81850A0E8185099
:1004C000BFF4F5AF5FEA027C24BFB1E81850A0E8A2
:1004D000185044BF18C918C0BDE810405FEA827CBC
:1004E00024BF51F8043B40F8043B08BF7047D207D3
:1004F00028BF31F8023B48BF11F8012B28BF20F874
:10050000023B48BF00F8012B70474FF0000200B5D6
:10051000134694469646203922BFA0E80C50A0E826
:100520000C50B1F12001BFF4F7AF090728BFA0E8D4
:100530000C5048BF0CC05DF804EB890028BF40F8A0
:10054000042B08BF704748BF20F8022B11F0804FE2
:1005500018BF00F8012B704770477047704770470D
:100560002DE9F0470D4699469246044600F12408CD
:100570000168880604D5E06921F01001216000E0DF
:100580000120A84201DD471B00E00027A1697A197C
:1005900002EB0900081AA0612078C00602D42046A8
:1005A000FFF7A6FE002608E0D4E901211AF80600AC
:1005B0009047206A401C761C20624E45F4DB207870
:1005C000C0060AD52046FFF793FE06E0D4E90121D4
:1005D00030209047206A401C2062381EA7F1010796
:1005E000F4DC07E0D4E9012118F805009047206AFF
:1005F000401C2062281EA5F10105F3DC2046FFF710
:100600008DFE2078000602D50220BDE8F08701208B
:10061000FBE770472DE9FF4F0C461E464FF0FF37B2
:100620008BB0D2E90001DDF860800A908A46C1F300
:100630000A5505B93D46002108464FF00000BAF1C1
:10064000000F00F4400005DA00EB80004FF4400199
:1006500001EA50004FEA9059B9F1010F00DDB946A7
:100660000A9850EA4A000ED044F61050A5F2FF3521
:1006700045432F14B8F1000F1ED07542291E1EDD10
:10068000C9F100021CE0B8F1010F4FF0000001D0E9
:10069000302103E0F24305E02154401CB042FBDB73
:1006A00030460022002121540B99C1F80880C1E98D
:1006B00000200FB0BDE8F08FBD1B6D1CDEE74A4681
:1006C00000DA694206A800F06BFA06AB93E807006F
:1006D00003AB83E8070050460A9900F045FB8DE81C
:1006E0000700A0F500501F3800900398002D09DD89
:1006F00042F21F014A46084403A90390684600F0ED
:10070000A4FD08E0A0F500504A461F3803A9039055
:10071000684600F0AEFD8DE807000004000C03D031
:100720004FF0FF30410800E01046B8F1000F03D051
:100730000022009215461EE0751E05D400F0AAF9AD
:10074000303262556D1EF9D5B3460122084302D0FE
:1007500000227F1C04E02078302801D100227F1E77
:10076000002A099786D01DE0112D07DA00F092F9D2
:10077000303262556D1C50EA0102F5D1084302D0B7
:100780000098C8B10EE00021681E05E0235C625CA1
:1007900063542254401E491C8142F7DBAB46A81B20
:1007A000401E0990002004F80B000B98099AC0F82D
:1007B0000880C0E9002B7CE711264FF0000859E7BC
:1007C0002DE9F04F88460446D21D22F0070191B072
:1007D000D1E90001CDE90A0106F0BDFA02460B9805
:1007E000C00F01D02D2007E02068810701D52B2004
:1007F00002E0202101EAC000032A099001D0072A63
:1008000005DB03464146204600F08AF90BE12078DB
:10081000800601D5E06900E00620B8F1650F814649
:1008200006D0B8F1660F18D0B8F1670F70D131E07B
:100830000020B9F1110F009001DB112301E009F153
:1008400001030AAA01A90CA8FFF7E4FEDDE90C7078
:10085000002609F10105834647E001204B46009040
:100860004FF000470AAA01A90CA8FFF7D3FEDDE963
:100870000DB00C995D46002610B909F101000D1864
:10088000B9EB050003D4C0F1FF3609F10105A5EB72
:1008900009002BE0B9F1010F01DA4FF00109002046
:1008A000B9F1110F0090484601DD112300E0034625
:1008B0000AAA01A90CA8FFF7ADFEDDE90C704D46B0
:1008C00000268346207800070AD4AB4500DA5D464F
:1008D00001A8012D04DD411911F8011C302907D0B0
:1008E0004F4502DA17F1040F04DA012082460FE0C7
:1008F0006D1EEEE7002F02DCED1B3E4403E0781C8A
:10090000A84200DD7D1CB81B00F1010A4FF0004732
:100910002078000703D4AA4501DB4FF0FF3A0021FD
:10092000B7F1004F0DF143088DF8431024D0022099
:100930002B23002F01DA7F422D230A21021EA0F172
:10094000010000DC5FB197FBF1FC97FBF1F201FBCA
:100950001C7C17460CF1300C08F801CDEEE7A8F12D
:10096000010003702188090501D5452100E06521BA
:10097000A0F1010800F8011C09980FA9A1EB0807D4
:10098000FF1D00B10120411901EBEA70A169384453
:10099000081A401EA0612078C00602D42046FFF746
:1009A000A7FC099828B1D4E901219047206A401C8E
:1009B00020622078C00622D52046FFF799FC1EE071
:1009C000002E04DBB34502DD01A8805D00E030208D
:1009D000D4E901219047206A401C2062761CAAF1CC
:1009E00001005FEA000A0AD100F050F8C06801680F
:1009F000405CD4E901219047206A401C2062281EF7
:100A0000A5F10105DCDC07E0D4E9012118F8010BB0
:100A10009047206A401C2062381EA7F10107F3DCD2
:100A20002046FFF77BFC032011B043E601694A1C16
:100A300002610878704700B58FB0CDE9013100211F
:100A4000059105497944CDE9031011466846FFF741
:100A5000A3FC0FB000BD0000E5FFFFFF0A6802F82D
:100A6000010B0A6070470000074B70B50D467B44D0
:100A7000FFF7E1FF0446284600F000F910B14FF0FF
:100A8000FF3070BD204670BD8B630000004870478A
:100A9000F402002030B5B0F10A024FEA900E71F175
:100AA00000034EEA817EB0EB0E0061EB91014FEA4C
:100AB000101E4EEA017E10EB0E0041EB11114FEAC1
:100AC000102E4EEA016E10EB0E0041EB11214FEAA1
:100AD000104E4EEA014E10EB0E0041EB1141401852
:100AE00041F100014FEAD00040EA41704FEAD101E4
:100AF00010EB80054FEA810444EA907444EB010452
:100B00006D1944EB0404521BA3414FF0000348BF8E
:100B10000A3200D530BD401C41F1000130BD00005B
:100B20002DE9F0411F46044603260168072A01F417
:100B3000006004DB08B116A505E016A503E008B1C6
:100B400015A500E015A521F010002060A069C01EC9
:100B5000A0610FB1401EA0612046FFF7C9FB4FB155
:100B6000D4E9012138469047206A401C2062C01C0D
:100B7000206206E0206AFAE7D4E9012115F8010BAA
:100B80009047761EF8D22046FFF7C8FBBDE8F081FB
:100B90004E414E006E616E00494E4600696E660021
:100BA0002DE9F047814616468AB0334878440DC88F
:100BB0008DE80D0030487844801C03AC0DC884E8F3
:100BC0000D0041F69B300844372190FBF1F290FB79
:100BD000F1F5A5F1800501FB12041B3C02D564422E
:100BE000012000E00020DFF890A080460027FA44B2
:100BF000AAF1BE0A0DE0E00709D03246684607EBCD
:100C000047010AEB810100F034FB8DE80700641016
:100C10007F1C002CEFD1184F7F44AC3F18E0E80751
:100C200014D007EB04100DF1180A90E80E008AE8C2
:100C30000E00C068F04201D198190890324606A90A
:100C400003A800F016FB03AB83E807006D10641CDB
:100C5000002DE4D132466946B8F1000F03A802D056
:100C600000F0F3FA01E000F004FBC9E90001C9F863
:100C700008200AB0BDE8F087E4AF0000007B00F078
:100C80008000704700487047D40200207546FFF787
:100C9000F9FFAE4605006946534620F00700854639
:100CA00018B020B5FFF7F0FABDE820404FF000067D
:100CB0004FF000074FF000084FF0000B21F0070144
:100CC000AC46ACE8C009ACE8C009ACE8C009ACE887
:100CD000C0098D46704710B50446AFF3008020462A
:100CE000BDE81040FFF7BBBA4FF0013C50F8042BB1
:100CF00051F8043B9A4221D1A2EB0C03934313EA2F
:100D0000CC1317D150F8042B51F8043B9A4215D15B
:100D1000A2EB0C03934313EACC130BD150F8042B32
:100D200051F8043B9A4209D1A2EB0C03934313EA16
:100D3000CC13DBD04FF00000704700BFD01A01BACF
:100D4000B1FA81F101F0180122FA01F0CB40C1F1B2
:100D50002001DBB2C0B2C01A2CFA01F3D11A9143C0
:100D600011EAC311E6D170475FEA400C08BF91F069
:100D7000000F4FEA8C234FEAC12243EA51514FEA58
:100D80001C5018BF00F5F0404FEA300018BF41F08A
:100D900000415FEA6C5C00F02980BCF1FF3F08BFB6
:100DA00040F080407047130C06BF12044FF0100C47
:100DB0004FF0000C130E04BF12020CF1080C130FBD
:100DC00004BF12010CF1040C930F04BF92000CF14C
:100DD000020CD30F04BF52000CF1010C11464FF06E
:100DE0000002A0F11F00A0EB0C00704711F0004FB3
:100DF00008BF704731F000413FF4D5AF0B0C06BF80
:100E000009044FF0100C4FF0000C0B0E04BF090248
:100E10000CF1080C0B0F04BF09010CF1040C8B0F33
:100E200004BF89000CF1020CCB0F04BF49000CF188
:100E3000010CCCF12003A0EB0C0022FA03F302FA20
:100E40000CF241EA030100F10100704720F07F4CF1
:100E500080EA030023F07F47ACEB070303F57C53E4
:100E600000F0004003F1FF032DE980494FEA154BE4
:100E700009B44FEA144325EA0B4E24EA03480FF263
:100E8000042606EB132749083E785FEA320203FB8B
:100E90000667C7F5000707FB06F64FEA54374FEA27
:100EA000D64606F1020607FB066CCCF1005C4FEA61
:100EB0001C472CEA074C07FB06F40CFB06F504EB79
:100EC00015464FEA961634BF00204FF000404FEA17
:100ED000D13706FB07FC4FEA1C4C0CFB0BF7D21B6F
:100EE00003FB0CF761EB07010CFB0EF7B0EB0740BF
:100EF00072EB17420CFB08F734BFA2EB0742B2EBD0
:100F0000074261EB17414FEA0C444FEA910706FB99
:100F100007FC4FEA1C4C0CFB0BF7B0EBC74072EB25
:100F2000573203FB0CF734BFA2EBC742B2EBC74208
:100F300061EB57310CFB0EF7B0EBC70072EB577249
:100F40000CFB08F734BFA2EBC702B2EBC70261EBA0
:100F50005771039F4FEA816141EA921104EBCC047F
:100F60004FEAD1374FEA826206FB07FC42EA901251
:100F70004FEA80604FEA1C4C0CFB0BF7D21B03FBC3
:100F80000CF761EB07010CFB0EF7B0EB074072EBBF
:100F900017420CFB08F734BFA2EB0742B2EB074243
:100FA00061EB17414FEA8C554FEA910704EB9C2403
:100FB00006FB07FC4FEA1C4C0CFB0BF7B0EBC740E1
:100FC00072EB573203FB0CF734BFA2EBC742B2EB14
:100FD000C74261EB57310CFB0EF7B0EBC70072EB69
:100FE00057720CFB08F734BFA2EBC702B2EBC70283
:100FF00061EB577115EB4C254FEA816141EA921183
:101000004FEA82624FEAD13742EA901206FB07FCB0
:1010100044F100044FEA80604FEA1C4C0CFB0BF7D4
:10102000D21B03FB0CF761EB07010CFB0EF7B0EBD7
:10103000074072EB17420CFB08F734BFA2EB0742E4
:10104000B2EB074261EB174115EB1C154FEA8131FA
:1010500041EA92414FEA823242EA90424FEA8030BE
:101060004FEA0C7644F1000448EA03434EEA0B4889
:101070004FF0000EB2EB080C71EB030724BF624681
:1010800039464EEB0E0E4FF0000B0018524149410D
:101090004BEB0B0BB2EB080C71EB03077BF1000B76
:1010A00024BF624639464EEB0E0E4FF0000B00187F
:1010B000524149414BEB0B0BB2EB080C71EB0307B0
:1010C0007BF1000B24BF624639464EEB0E0E51EA0F
:1010D000020718BF46F0010616EB0E7655F1000226
:1010E00054F1000103D5BDE88901BDE80088BDE8E1
:1010F0008901BDE80048B619524141EB0101A3F155
:101100000103704780807F7E7D7C7B7A797877765B
:1011100076757473727171706F6E6E6D6C6C6B6AD4
:101120006A69686867666665646463636261616072
:10113000605F5F5E5E5D5D5C5C5B5B5A5A595958EF
:101140005857575656555555545453535252525159
:10115000515050504F4F4F4E4E4D4D4D4C4C4C4BAF
:101160004B4B4A4A4A4949494848484747474746F6
:101170004646454545444444444343434342424232
:1011800042414141002B26D4770021D01CB54FEAC3
:10119000370703B44FF010004FF010014FF000007C
:1011A0000FBCBDE810400BF1010BBBF1010F08BFF4
:1011B0005FEA170722BF12F1010211F101014FF09E
:1011C000004143F1000300F0004043EA0000704793
:1011D000F9D35708DAE746EA064613F1400F4FEA1B
:1011E00016461FDD13F1200FDFBF16430A4600210C
:1011F00020335B42C8D0C3F1200746EA064602FA14
:1012000007F74FEA164646EA0706C3F1200722FA17
:1012100003F201FA07F721FA03F14FF0000342EA63
:101220000702B1E746EA020646EA06464FEA1646D4
:1012300046EA0106BCBF46EA0646360C4FF00003FC
:101240004FF000024FF000019EE72DE9C0489346A1
:1012500030B491E8380007C831EA400C48BF34EA9E
:10126000430C03D5FFF7F2FDFFF78CFFF0BCBDE8A0
:1012700000882DE9C048934630B491E8380007C88B
:1012800010F0804F08BF13F0804F03D100F005F835
:10129000FFF778FFF0BCBDE8008820F07F4780EAC8
:1012A000030023F07F4C07EB0C03A3F57C5300F005
:1012B0000040A3F1FE0392F0000F00F0B38095F020
:1012C000000F00F077802DE901494FEA11404FEA05
:1012D000144621EA004800FB06FC24EA064708FB06
:1012E00006F607FB08F800FB07F718EB06484CEB7F
:1012F000164C4FEA124B18EB07484FEA15464CEBD9
:10130000174022EA0B4E0BFB06FC25EA06470EFBB4
:1013100006F607FB0EFE0BFB07F71EEB064E4CEB2B
:10132000164C4FF000061EEB074E4CEB174B18EB1C
:101330000B0840F1000018EB0E0B58EB000840F1D1
:1013400000008F1A4FF000013CBFC943661B14BF59
:10135000B5EB040C00213CBFC943F61B4FEA174410
:101360004EEA8E0E27EA04454FEA1C4704FB07624B
:101370002CEA074C05FB07F70CFB05F604FB0CFCFD
:1013800016EB074642EB174216EB0C4642EB1C42AB
:101390001BEB060658EB0202414146EA9E0601D5C8
:1013A000BDE80189B619524141EB0101A3F10103E6
:1013B000BDE801894FEA14454FEA114724EA054682
:1013C00021EA074C05FB07F406FB07F70CFB06F1C7
:1013D00005FB0CFC11EB074144EB17444FEA1247A5
:1013E00011EB0C4144EB1C4422EA074C05FB07F2CD
:1013F00006FB07F70CFB06F605FB0CFC16EB074695
:1014000042EB174216EB0C4642EB1C456A1854F1AE
:10141000000148BF7047B619524141EB0101A3F1E9
:101420000103704795F0000F37D04FEA11424FEAA1
:10143000144721EA024624EA074C02FB07F106FBA7
:1014400007F70CFB06F402FB0CFC14EB074441EB22
:1014500017414FEA154714EB0C4441EB1C4125EAB8
:10146000074C02FB07F506FB07F70CFB06F602FB31
:101470000CFC16EB074645EB174516EB0C4645EB07
:101480001C42121951F1000148BF7047B619524170
:1014900041EB0101A3F1010370474FEA14454FEA04
:1014A000114724EA054621EA074C05FB07F106FB34
:1014B00007F70CFB06F24FF0000605FB0CFC12EBE5
:1014C000074241EB174112EB0C4251EB1C4148BF64
:1014D0007047921841EB0101A3F101037047FEE749
:1014E0001CB50022019201228DF804208DF8051010
:1014F0004FF6FF7100910146022301AA014800F056
:101500003BFC1CBD9802002070474FF4807000F037
:101510008BB900000F4800B5016887B041F00201A7
:1015200001600068694600F0020005904FF4807089
:1015300000900948019001200290084800F080F9CD
:1015400001221146172000F059FE172000F04AFE34
:1015500007B000BD303802400000211000040240F6
:1015600070B5B3F5804F05D06FF0704140F8221090
:10157000002070BD50F82230084C2340D1E90045CE
:1015800044EA05148D688E892D0245EA064589696D
:101590002C430C431C4340F82240E9E70000F0CF05
:1015A000F0B50C6850F82450194A1540D1E90123D0
:1015B000D1E903671A433E4332434E6932438E6991
:1015C0003243CE6932430E6A32434E6A32438E6AE8
:1015D0003243CE6A3243CE6B32430E6B32434E6B94
:1015E00032432A43082B01D142F0400240F8242024
:1015F0004A6BB2F5801F08D10A6832B14FF480728D
:101600000A6104490268114301600020F0BD000036
:101610008000E0FF00011000F0B500EB820253688B
:101620008E8903F04044D1E9003543EA05138D6803
:101630002D0245EA06452B430E8A0D4D05EB065655
:1016400033430E7D6F0107EB066633438E693343E8
:10165000234353600268D20207D54268098A22F404
:10166000700205EB0151114341600020F0BD000004
:101670000000F0FF30B5D1E901231A43D1E903346A
:1016800023431A434B690D681A438B691A43D1E906
:101690000734012D496A05686FF30E0505D01A431A
:1016A00022430A432A43026008E0234329430B43B1
:1016B000416803606FF30E010A434260002030BDB1
:1016C000426942EA4101416100207047F8B5144681
:1016D0000546D1E9000210438A686FF01F03C9680C
:1016E00003EB421242EA412108430090286100F0D6
:1016F0009FF9064609E0601C07D024B100F098F974
:10170000801BA04201D90320F8BDA8698006F2D44D
:101710000020F8BDF0B56FF00F05D1E9003405EBFE
:1017200004145B1E2E0123438C682F0306EB042454
:101730004FEA054C23430D8A8E8ACC68097E4FF010
:101740007F4E07EB05450CEB06560EEB0161012AB7
:101750000CD082683F1107EB043423432B433343FF
:1017600002F070420B43134383600FE0C2682B43C7
:101770000B4302F070428168134301F07042210371
:10178000A1F5805131431143C36081600020F0BD59
:10179000F0B54FF4807487B0A0421ED1164F214699
:1017A000384600F03BF901460120144D102601296E
:1017B00015D013490294CDE9031002A9384600F070
:1017C0003FF80020C5F884020EA0CDE90060102388
:1017D000F02278211E2004F0D9FB07B0F0BD0D499E
:1017E0000490CDE90241044602A9384600F028F8E9
:1017F000C5F8844208A0E8E70004024000804042A7
:101800000000111073746174653A20414C41524DCF
:10181000200000000000211073746174653A204EAE
:101820006F726D616C000000044910B50A680242D5
:1018300002D00860FFF7ACFF10BD0000143C01406F
:101840002DE9F84FDFF8A091002209F1040A0AF10E
:10185000040B4FF00F080BF1040E01260B689640A5
:101860003340B34271D14C68022C01D0122C11D1FB
:10187000D40800EB84073D6A5407E40E08FA04FC20
:1018800025EA0C05D1F810C00CFA04FC4CEA050C52
:10189000C7F820C007685400032591F804C0A5408C
:1018A0000CF0030CAF430CFA04FC4CEA070CC0F834
:1018B00000C04F68012F05D0022F03D0112F01D097
:1018C000122F11D18768D1F80CC0AF430CFA04FC79
:1018D0004CEA070CC0F808C04768B7430E79C6F356
:1018E000001696403E434660C668AE438D68A540EC
:1018F0003543C5604C68E4006FD53C4C256845F421
:1019000080452560246822F0030504F48044009497
:10191000374C2E19D6F808789407250F08FA05F4E5
:10192000A743344CA04201D100242EE0324CA04207
:1019300001D1012429E0314CA04201D1022424E04C
:101940002F4CA04202D103241FE046E02D4CA042C0
:1019500001D1042419E02C4CA04201D1052414E04B
:101960002A4CA04201D106240FE0294CA04201D10B
:1019700007240AE0274CA04201D1082405E0264CA8
:10198000A04201D1092400E00A24AC403C43C6F83F
:101990000848D9F800404D464E689C43F60300D5F0
:1019A0001C432C60DAF8004055464E689C43B60351
:1019B00000D51C432C60DBF800405D464E689C431C
:1019C000F60200D51C432C60DEF8004075464E68D8
:1019D0009C43B60200D51C432C60521C102AFFF415
:1019E0003CAFBDE8F88F0000003C014044380240A5
:1019F00000300140000002400004024000080240A4
:101A0000000C024000100240001402400018024086
:101A1000001C0240002002400024024000690840EF
:101A200000D0012070470AB1816170470904FBE7CB
:101A300001480068704700001400002090F835202D
:101A4000022A1ED0122A1CD0222A1AD0022280F882
:101A500035200268136823F0010313600268536A9B
:101A600023F0100353620268536A0B435362016808
:101A70000A6842F001020A60012180F83510002056
:101A800070470220704790F83520022A1CD0122A95
:101A90001AD0222A18D0022280F835200268136852
:101AA00023F0010313600268536A23F00F030B4312
:101AB00099B2516201680A6842F001020A6001218C
:101AC00080F83510002070470220704770B5040080
:101AD00004D094F83500002510B106E0012070BD57
:101AE00084F83450204600F0BBF9022084F8350019
:101AF0002068016821F00101016000F055FE3149C4
:101B00002268B0FBF1F151602F4A6368934206D915
:101B10004FF4967359434FF47A73B1FBF3F1236892
:101B2000491C1962616891420BD84900B0FBF1F27F
:101B3000C2F30B02042A01D2042019E0B0FBF1F039
:101B400016E0A26882B301EBC10303EB0113B0FB03
:101B5000F3F343F480431B052CD06AB301EBC102BD
:101B600002EB0111B0FBF1F040F4804040F4004082
:101B70002168C861D4E90701084321680860D4E9F5
:101B80000310084321688860D4E9050108432168EF
:101B9000C8602068016841F001010160A56301206F
:101BA00084F83500002070BDFFE701EB4103B0FB76
:101BB000F3F3D0E70120DBE701EB4101B0FBF1F0EB
:101BC000D4E7000040420F00A08601002DE9F84F45
:101BD000044690F83500DDF828B01D4616468846C4
:101BE00001286FD156B14DB142F210730122604904
:101BF000204601F001FB0028F3D102E00120BDE8FE
:101C0000F88F94F8340001285CD04FF0010984F873
:101C100034902068016821F400610160222084F87A
:101C200035000027A7635A464146204601F04CFA8A
:101C300028B1A06B84F834700428DFD07BE0012D3C
:101C40001FD02068022D016829D041F48061016015
:101C50002068416980690090DFF818A1DFF81481DD
:101C60000AF13C0A032D5FD8012D20D0022D5B46DE
:101C70004FF000024146204625D001F0BDFA88BB56
:101C800031E02068016821F48061016020684169C9
:101C900081690091016841F400710160DCE721F481
:101CA000806101602068016841F40061CFE75B4614
:101CB00000225146204601F09FFA98B92068006939
:101CC00030704CE051E001F097FA58B92068016893
:101CD00041F400710160206800693070206800697B
:101CE00070703CE027E02068016821F480610160A9
:101CF0002068006906F8010B6D1EADB25B4600223C
:101D00004146204601F078FAA8B92068016841F4FC
:101D1000007101602068006906F8010B2068006905
:101D200006F8010BAD1E17E05B4600225146204627
:101D300001F062FA08B1032061E72068006906F843
:101D4000010B20686D1EADB24169C943490704D437
:101D5000006906F8010B6D1EADB2002D82D184F82A
:101D6000359084F83470002049E7022047E70000EE
:101D700002001000040001002DE9F84F044690F81D
:101D80003500DDF828A01D4616468946012861D198
:101D90004EB145B142F2107301222F49204601F0A5
:101DA0002BFAE8BB02E00120BDE8F88F94F834007C
:101DB00001284FD04FF0010884F834802068016872
:101DC00021F400610160122084F835000027A76328
:101DD00052464946204601F0D5F928B1A06B84F857
:101DE00034700428DFD028E0206841698069DFF87A
:101DF0006C900090534600224946204601F0FCF9C1
:101E0000D8B9216816F8010B086120686D1EADB2C3
:101E10004169C943490707D445B116F8011B00E0E1
:101E200018E001616D1EADB2002DE3D153460022D2
:101E30004946204601F0E0F908B10320B4E72068E4
:101E4000016841F40071016084F8358084F83470D1
:101E50000020A9E70220A7E702001000800001008F
:101E600010B586B0044614216846FEF74EFB1349B0
:101E70002068884220D11248016841F002010160C7
:101E80000068694600F002000590C0200090122012
:101E9000019001200290032003900420049009483F
:101EA000FFF7CEFC06481030016841F400110160D4
:101EB000006800F40010059006B010BD005400400A
:101EC000303802400004024002480168491C0160A9
:101ED000704700001400002010B5044600F04AFCD2
:101EE0004FF47A71B0FBF1F000F07EFF0022214642
:101EF000501E00F083F9002010BD2DE9F04104468A
:101F000090F8A00015460F4601281DD0012684F840
:101F1000A060022084F8A10005EB850000EBC5005D
:101F200004EB800034223830FEF7BDFA2A463946E9
:101F3000204604F0F1FA2068466284F8A16000208F
:101F400084F8A000BDE8F0810220FBE770B5040032
:101F500004D094F8A100002510B106E0012070BD66
:101F600084F8A050204600F06FF8022084F8A10009
:101F70002068816921F070418161D4E90110014339
:101F8000D4E903021043014320688269114381614F
:101F9000206882682B490A408260A08A0204206877
:101FA0008368A6693343134383602068C2680A408C
:101FB000C260A08B02042068C368266A33431343BF
:101FC000C360206802690A400261A08C0204206894
:101FD0000369A66A334313430361206842690A40D8
:101FE0004261A08D010420684269236B1A430A43B1
:101FF000426194F83500020294F83600010420682A
:10200000C36A03F07F43C3622068C36A94F83460F4
:10201000114333430B43C3622068416B41F0040119
:1020200041632068416B41F002014163206881698E
:1020300041F001018161C4F8A450012084F8A1009D
:10204000002070BD00F800F030B5364887B000259C
:10205000016841F080610160006800F080600590D7
:1020600030481438016841F400010160016801F44E
:1020700000010591016841F002010160016801F071
:1020800002010591016841F020010160016801F041
:1020900020010591016841F040010160016801F0F3
:1020A00040010591016841F080010160016801F083
:1020B00080010591016841F480710160006803248A
:1020C00000F480700590202000900120CDE90204EA
:1020D000019069461448FFF7B3FB4FF4806000900D
:1020E0000220CDE901050E20CDE9034069460F48E5
:1020F000FFF7A6FB4FF40C60009069460C48FFF711
:102100009FFB4FF47E40009069460A48FFF798FB1A
:1021100040F2F760009069460748FFF791FB07B06F
:1021200030BD000044380240000402400014024068
:1021300000180240001C02400020024070B5044616
:1021400090F8A0000E46012820D0012584F8A05068
:10215000022084F8A10003EB830000EBC30004EB32
:10216000800141F8386F886A3044C1E90102C86AC9
:102170001044C8601A46204604F0CEF92068456233
:1021800084F8A150002084F8A00070BD022070BD2A
:102190002DE9F041044690F8A0000F4601281FD019
:1021A000012584F8A050022084F8A10003EB8300ED
:1021B00000EBC30004EB80010026E1E90E67204636
:1021C000C1E90262C1E90A721A4604F0A5F9206861
:1021D000456284F8A15084F8A0600020BDE8F08139
:1021E0000220FBE700F01F0201219140400980001E
:1021F00000F1E020C0F8001170470000F0B40E4B71
:102200001B68C3F30223C3F10704042C00D9042480
:102210001D1D072D01D2002300E0DB1E012606FA5A
:1022200004F56D1E0D409D409E40761E164045EA09
:102230000601F0BC04F04CBA0CED00E02DE9F843C7
:102240001D48016841F0805101600068012700F0DD
:1022500080500090380490FAA0F0DFF86080B0FA67
:1022600080F048F82070FFF7E3FB04464FF47A75DE
:10227000134E04E0FFF7DCFB001BA84213D8706884
:10228000C003F7D54FF4003090FAA0F0B0FA80F018
:1022900048F82070FFF7CCFB044607E0FFF7C8FBC7
:1022A000001BA84202D90320BDE8F88370688003B0
:1022B000F4D50020F8E700004038024000000E424C
:1022C000007000402DE9F84F04460068DFF878827E
:1022D0009E4DC10747F6C07A4FF0E0464FF0010B24
:1022E0004FF0000901D180074BD59949C1F868909A
:1022F000FFF79EFB074604E0FFF79AFBC01B64282C
:102300007ED828680001F7D420789249C0070DD004
:102310009AFAAAF26068B2FA82F2904096FAA6F3AC
:10232000A268B3FA83F39A401043086020788007CC
:1023300018D5086896FAA6F200F0E040B2FA82F2E8
:10234000D0406268237B920142EA036242EA007055
:102350000860D8F80010E26921F01F01521E1143F5
:10236000C8F800107A49C1F868B0FFF761FB07466A
:1023700004E0FFF75DFBC01B642841D8286800011A
:10238000F7D52068410701D4000776D57049C1F818
:102390007090FFF74DFB074604E0FFF749FBC01BB9
:1023A00064282DD82868C0438000F6D520786A4F6D
:1023B00040074FF0706C29D5386896FAA6F100F006
:1023C000E040B1FA81F1C8409AFAAAF22169B2FA62
:1023D00082F291409CFAACF36269B3FA83F39A40BB
:1023E000114396FAA6F2B2FA82F2904001433960A4
:1023F000D8F800106FF0FF0321F4F851226A00E0D2
:1024000079E003EB02221143C8F80010207800079E
:1024100023D538689CFAACF100F07060B1FA81F114
:10242000C8409AFAAAF22169B2FA82F291409CFA63
:10243000ACF2B2FA82F29040014396FAA6F2A06999
:10244000B2FA82F2904001433960D8F80010626A13
:1024500021F440311143C8F800103D49C1F870B073
:10246000FFF7E6FA064604E0FFF7E2FA801B64286D
:1024700041D82868C0438000F6D42078800651D522
:1024800032484F464030016841F080510160006899
:10249000324E00F080500090306840F48070306020
:1024A000FFF7C6FA054604E0FFF7C2FA401B6428AE
:1024B00021D83068C005F7D5264E143E3068218DEE
:1024C00000F4407001F4407188422BD030682449F8
:1024D00020F44070C1F800B00F603060800710D564
:1024E000FFF7A6FA054641F2883707E0FFF7A0FAA2
:1024F000401BB84202D90320BDE8F88F306880073E
:10250000F4D5A06A1149C0F301220831032A13D07F
:10251000086820F4F81008603068218DC1F30B01C1
:10252000084330602078C00604D50E4994F82C008A
:10253000C1F8E0010020DFE70A680B4B22F4F81233
:10254000184002430A60E7E78C3802400038024036
:102550000000474284380240883802400070004042
:10256000400E474200104742FFFCFF0F2DE9F05F8D
:10257000DFF8F8A104460F46DAF80000DFF8F08132
:1025800000F00F02C8B27A49814641F2883608F15C
:102590000808BA4261D202468AF80020DAF8000040
:1025A00000F00F00B8427DD12078800707D5D8F819
:1025B0000020A36822F0F0021A43C8F80020207817
:1025C000C0072DD0606801281AD002281BD003282C
:1025D00019D009688907002964DAD8F8001047463D
:1025E00021F003010143C8F80010FFF721FA054666
:1025F000606801280FD0022818D003281CD027E0DB
:1026000009688903E7E709688901E4E7FFF710FA39
:10261000401BB04258D83868C0F381000128F5D17A
:1026200088E0FFF705FA401BB0424DD83868C0F388
:1026300081000228F5D17DE03868FFF7F9F9401BE9
:10264000B042F9D940E0FFF7F3F9401BB0423BD864
:10265000386810F00C0FF6D16CE02078800707D5B1
:10266000D8F80020A36822F0F0021A43C8F800202E
:102670002078C0074CD06068012828D0022829D0D3
:10268000032827D009688907002949DAD8F80020EB
:1026900022F003020243C8F80020FFF7C9F90546FB
:1026A000606800E03CE001281DD0022829D0032802
:1026B00038D0B3464646306810F00C0F28D0FFF7EC
:1026C000B7F9411B5945F6D90320BDE8F09F0968C9
:1026D0008903D9E709688901D6E7FFF7A9F9411B02
:1026E000594502D9F0E7B34646463068C0F3810049
:1026F0000128F2D10CE0FFF79BF9411B594502D9A3
:10270000E2E7B34646463068C0F381000228F2D1C2
:102710008AF80090DAF8000000F00F00B84209D003
:102720000120D2E744462068FFF782F9401BB042FF
:10273000F9D9C9E72078400707D5D8F80010E26832
:1027400021F4E0511143C8F800102078000708D5A3
:10275000D8F80010226921F4604141EAC201C8F8AA
:1027600000100F20FFF7B8FB0020AEE7003C02404E
:102770000038024010B500F043F808490968F0221B
:1027800092FAA2F201F0F001B2FA82F2D140044AC8
:10279000515CC8400349086010BD00000838024081
:1027A0009E7300080000002010B5FFF7E3FF074903
:1027B00009684FF4E05292FAA2F201F4E051B2FA41
:1027C00082F2D140024A515CC84010BD0838024034
:1027D0009E73000810B5FFF7CDFF074909684FF455
:1027E000604292FAA2F201F46041B2FA82F2D14060
:1027F000024A515CC84010BD083802409E73000870
:1028000030B51948006810F00C01184812D0184C67
:1028100004290ED008290DD1134A121F116813681C
:1028200001F03F015D0247F6C07304D5B4FBF1F03F
:1028300003E0204630BDB0FBF1F01168194093FA77
:10284000A3F3B3FA83F3D940484311684FF44032FD
:1028500092FAA2F201F44031B2FA82F2D140491C5C
:102860004900B0FBF1F030BD083802400024F4000C
:1028700040787D012DE9F84F04460078DFF8FCA28E
:10288000BF4DC0074FF0000648D0DAF800105046A0
:10289000C1F38101012908D00068C0F3810002283A
:1028A0000AD1281D0068400206D52868800335D566
:1028B0006068002873D031E0DFF8C49209F10209A2
:1028C00089F80060FFF7B4F8074641F2883804E061
:1028D000FFF7AEF8C11B41457AD828688003F7D4CA
:1028E000207989F80000606860B1FFF7A1F8074619
:1028F00004E0FFF79DF8C11B4145EDD8286880032F
:10290000F7D50BE0FFF794F8074604E0FFF790F8DF
:10291000C11B4145E0D828688003F7D42078DFF850
:102920006492800744D5DAF80010504611F00C0F7D
:102930004FF0F80809D00068C0F3810002280BD1DD
:102940008E48001F0068400206D42868800714D50E
:10295000E068012823D110E0E068D0B10120C9F877
:102960000000FFF765F8074604E0FFF761F8C01BB9
:102970006428B1D828688007F7D5286898FAA8F2A3
:102980002169B2FA82F220F0F800914008432860F1
:102990000EE0C9F80060FFF74BF8074605E0EAE0F3
:1029A000FFF746F8C01B642812D828688007F7D4C0
:1029B0002078000725D5DFF8C4817348616908F1E4
:1029C0006C0881B101210160FFF732F8074605E08C
:1029D0007EE0FFF72DF8C01B642879D8D8F80000F6
:1029E0008007F6D50DE00660FFF722F8074604E001
:1029F000FFF71EF8C01B64286AD8D8F800008007CB
:102A0000F6D42078400753D55C483830016841F04F
:102A1000805101600068DFF8748100F08050009000
:102A2000D8F8001041F48071C8F80010FFF700F8E2
:102A3000074604E0FEF7FCFFC01B642848D8D8F81E
:102A40000000C005F6D5DFF834B10BF1680B8BF848
:102A50000060FEF7EDFF074641F2883804E0FEF71C
:102A6000E7FFC11B41457ED8DBF800008007F6D4A4
:102A7000207A8BF80000A06868B1FEF7D9FF0746FE
:102A800004E0FEF7D5FFC11B41456CD8DBF8000020
:102A90008007F6D50CE0FEF7CBFF074604E0FEF713
:102AA000C7FFC11B41455ED8DBF800008007F6D4A4
:102AB000A069E8B3DAF80010C1F3810102295AD005
:102AC000022806D0C9F86060FEF7B2FF04464DE068
:102AD00049E04F46C9F86060FEF7AAFF064604E0E9
:102AE000FEF7A6FF801B64283DD828688001F7D434
:102AF000D4E90701084347F6C07191FAA1F1626A6F
:102B0000B1FA81F18A40A16A4FF0FF3303EB510122
:102B10004FF4403393FAA3F3B3FA83F399400A4393
:102B200010434FF0706292FAA2F2B2FA82F200E021
:102B30001FE0E16A914008431049091F0860012025
:102B40003866FEF775FF044604E0FEF771FF001BD0
:102B5000642808D828688001F7D50AE0FEF768FFE6
:102B6000001B642802D90320BDE8F88F2868800183
:102B7000F4D40020F8E70120F6E70000083802400E
:102B80000038024000004742800E4742007000407B
:102B900070B50D46040003D094F82C0010B107E086
:102BA000012070BD002084F82D00204600F012F8AE
:102BB000022084F82C00211D2068FEF75BFDD4E97B
:102BC00000022946FEF7A6FD012084F82C00002013
:102BD00070BD0000304800B5016887B041F00101C8
:102BE0000160006800F0010005902B48083801687A
:102BF00041F004010160016801F0040105910168E0
:102C000041F008010160016801F0080105910168C7
:102C100041F010010160016801F0100105910168A7
:102C200041F020010160016801F020010591016877
:102C300041F0400101600068694600F040000590E5
:102C40000D200090022001900120029003200390AB
:102C50000C2004901148FEF7F3FD4CF20370009035
:102C600069460F48FEF7ECFD4FF683700090694609
:102C70000C48FEF7E5FD4FF63F00009069460A4814
:102C8000FEF7DEFD48F23710009069460748FEF770
:102C9000D7FD07B000BD00003838024000080240F0
:102CA000000C0240001002400014024000180240D4
:102CB00010B5044690F82C00022809D0022084F8B0
:102CC0002C002068FEF7FCFC012084F82C0000207A
:102CD00010BD70B5044690F82C000D4602280CD0AB
:102CE000022084F82C002068FEF7F0FC28680228F7
:102CF00004D0012084F82C00002070BD0520F9E7E5
:102D000070B515460E46040003D094F8490010B182
:102D100007E0012070BD002084F84800204600F044
:102D20001BF804F108012068FEF73AFC3146A2685E
:102D30002068FEF771FCD4E901022946236BFEF7F7
:102D40000FFCA168206850F8212042F0010240F8F1
:102D50002120002070BD00001A4800B5016887B02E
:102D600041F001010160006800F001000590154884
:102D70000838016841F008010160016801F00801AC
:102D80000591016841F0100101600068694600F09A
:102D9000100005904EF2B3700090022001900120C7
:102DA0000290032003900C2004900748FEF748FD92
:102DB0004FF68070009069460448FEF741FD07B069
:102DC00000BD000038380240000C024000100240F4
:102DD0004FF0E0210428086903D020F004000861C6
:102DE000704740F00400FAE710B5401EB0F1807F54
:102DF00001D3012010BD4FF0E02460610F21601766
:102E000003F066FC0020A06107202061002010BDB7
:102E1000704738B5016804460868CA68C0F3000006
:102E200002F4807238B132B1086848680090E06BF3
:102E300040F00100E06308684A69C0F3400002F016
:102E4000010238B132B1086848680090E06B40F088
:102E50000400E06308684A69C0F3800002F00102E0
:102E600038B132B1086848680090E06B40F0020069
:102E7000E06308684A69C0F3C00002F0010238B19B
:102E800032B1086848680090E06B40F00800E063E9
:102E90000868C968C0F3401001F0200118B111B1F1
:102EA000204603F097FD20680168C068C1F3C01197
:102EB00000F0800019B110B1204603F099FE21689E
:102EC0000868CA68C0F3801002F04002012568B1AA
:102ED00062B1CA68204622F04002CA6094F83910F4
:102EE00032290CD080F8395000F0ECF8E06B002863
:102EF00004D084F839502046FFF78AFF38BD2221DC
:102F000080F83910F0E770B5040004D094F8390067
:102F1000002510B106E0012070BD84F8385020462D
:102F200000F020F8022084F839002068C16821F4FC
:102F30000051C160204603F0A1FD2068016921F421
:102F4000904101612068416921F02A0141612068B6
:102F5000C16841F40051C160E563012084F8390083
:102F6000002070BD30B504460068204987B0884213
:102F700039D11F48016841F001010160006800F08B
:102F8000010005901A481430016841F010010160F9
:102F90000068012100F0100005904FF400700090CF
:102FA0000220CDE9010103900720124D04906946EB
:102FB0002846FEF745FC2815009069462846FEF78E
:102FC0003FFC2068C16821F04001C1602068C168F1
:102FD00041F02001C1602520FFF704F903221146CA
:102FE0002520FFF70BF907B030BD000000100140AD
:102FF00030380240000002402DE9F047044690F8C6
:10300000390099460D46012801D0122857D125B321
:103010001AB394F83800012851D0012684F838609A
:103020000027E76394F83900122819D0222084F889
:103030003900A285E2854FF48058E08D4B46401E52
:10304000E085A0684FF0000240454FF02001204687
:1030500016D103F000FEB0B904E00120BDE8F0870E
:103060003220E4E7206900282068406803D0C1B21C
:1030700025F8011B12E0C0F3080125F8021B0DE042
:1030800003F0E9FD08B10320E8E720690028206883
:10309000406801D000F07F0005F8010BE08D0028AA
:1030A000CBD194F83900322805D084F8396084F8FF
:1030B00038700020D2E7122084F83900F7E70220A8
:1030C000CCE770477047FEE72DE9F84304460068F7
:1030D0000F469146016841F48061016020680168F3
:1030E00041F48071016013464FF001160022314611
:1030F000204600F081F898BB206906F10108B0F580
:10310000804F10D00620216800EAD71545F0F00066
:1031100008614A46F11D204600F0B3F838B1A06BB3
:1031200004282CD01CE0F8B240F001001DE021681A
:10313000F8B208614A464146204600F0A2F800284D
:10314000EDD12068416981690091016841F4807185
:1031500001604B4600223146204600F04DF810B188
:103160000320BDE8F88345F0F100216808614A4674
:103170004146204600F085F80028D0D1F1E7012033
:10318000EFE7000070B5044600680D46164601687A
:1031900041F480710160134600224FF00111204676
:1031A00000F02AF898B92069B0F5804F11D00620B8
:1031B000216800EAD51040F0F000086132460D4960
:1031C000204600F05EF838B1A06B042810D0032030
:1031D00070BD05F0FE0000E0E8B221680861054915
:1031E0003246891F204600F04CF80028ECD170BD13
:1031F000012070BD080001002DE9F0471C469046F3
:103200000E460546FEF714FC07465FEA08004FF03D
:1032100000094FF0010AC6F3074808D023E0601CFC
:1032200005D0CCB1FEF704FCC01BA04214D828681E
:10323000B8F1010F06D0806926EA00000004000CF6
:103240001BD0ECE74069F7E7601C0CD024B1FEF717
:10325000EFFBC01BA04206D985F835A085F8349055
:103260000320BDE8F0872868B8F1010F07D0806916
:1032700026EA00000004000CE6D00020F1E74069D7
:10328000F6E72DE9F04715460E460446FEF7D0FB5B
:1032900007464FF0000A4FF00109C6F3074824E043
:1032A00020684069C043400511D42068016841F49A
:1032B0000071016021686FF4806048610420A063A0
:1032C00084F8359084F834A00120BDE8F087681CAC
:1032D0000BD025B1FEF7ACFBC01BA84205D984F882
:1032E000359084F834A00320EFE72068B8F1010F8F
:1032F00006D0806926EA00000004000CE5D0CFE784
:103300004069F7E770B51B4886B00025016841F0B9
:1033100001010160016801F001010591016841F0BE
:1033200004010160016801F004010591016841F0A8
:10333000800101600068032400F0800005900220F5
:103340000126CDE90204CDE9006569460A48FEF789
:1033500077FA700303948DE8610069460748FEF729
:103360006FFA0C20009069460548FEF769FA06B02E
:1033700070BD0000303802400000024000080240EA
:10338000001C024070B50E490E4A064608881268B5
:10339000002422B13046BDE8704002F071BE4D8875
:1033A00000214543084602F0F9FC02F031FEB1B2BB
:1033B000054801E00180641CAC42FBD370BD0000F5
:1033C0008C01002078020020000008602DE9F05FE9
:1033D0003C4C3D4DA071296839B102F071FEE88A7C
:1033E0002080288B6080BDE8F09F36492C232A2559
:1033F00089884FF0F00949F2413A47F2897B2B2640
:1034000045F2105E4FF448774FF4A07845F2103C37
:103410004FF4F07268B1A4F80080A4F8029051450E
:1034200003D0614501D059452CD123816581A68106
:103430003DE0A4F80090A4F80280514503D0614516
:1034400001D0594508D123816581A681614533D1D9
:10345000A4F8008062802FE0714509D14FF430500C
:1034600020814FF4285060814FF42C50A08106E059
:10347000A1F5C85063381FD123816681A5812280C0
:10348000678019E0714509D14FF4305020814FF425
:10349000285060814FF42C50A08106E0A1F5C8505F
:1034A000633804D123816581A681278062806145CC
:1034B00002D12280A4F80280BDE8F05F002002F073
:1034C0008DBB00008C010020780200202DE9F04126
:1034D00004463C480D46006820B12046BDE8F04156
:1034E00002F002BE384E270A3146B0884989A0F55D
:1034F00013434FEA1528413B10D0A0F5A643103BDB
:103500000CD0A0F5EE43893B08D0A0F5AA43103BB0
:1035100011D0A0F5C853633B27D04BE0084602F01A
:103520006BFD384602F05CFDE0B202F059FDB08957
:1035300002F062FD38E0084602F05EFD384602F017
:103540004FFD7089401C80B202F056FDE0B202F0DF
:1035500047FDB08902F050FD404602F041FDB089C0
:10356000401C80B202F048FD21E0B07918B93088E3
:10357000001B401E84B2084602F03EFD270A384672
:1035800002F02EFDE0B202F02BFD384602F028FDDD
:10359000E0B202F025FDB08902F02EFD404602F0B7
:1035A0001FFDE8B202F01CFD404602F019FDE8B232
:1035B00002F016FD054930890880881C0280BDE8AC
:1035C000F0810000780200208C010020FEFF0760DF
:1035D0002DE9F04F95B002F043FFFE4C4FF0010B88
:1035E000A4F1500AA08047F2897545F2103845F2DF
:1035F000105641F6631918B102F0EEFD02F096BACA
:10360000F5480027016841F002010160006810A937
:1036100000F0020000902020CDE9100B0320CDE93E
:1036200012B0EE48FEF70CF94FF020415046CAF8B0
:103630000010EB49C0E901171021CAF80C70C0E96D
:103640000471CAF818700902CAF81C70C0E909713F
:103650008900C0E90B71CAF834708901CAE90E719A
:1036600046210B910F20CDE90907CDE9020704900F
:10367000D8480F9702AA09A908975038FFF740FBCE
:10368000322003F093FBD32002F0B6FC02F074FA70
:10369000A08002F071FAA08002F06EFA4FF6FF7778
:1036A00007EA0020A08002F067FAA1880843A0F58D
:1036B0001341A08041397AD0042002F09DFC02F031
:1036C0005BFAA08002F058FAA08002F055FA07EAEF
:1036D0000020A08002F050FAA1880843A0F505411F
:1036E000A08052395FD0A84261D0D42002F084FC7F
:1036F00002F042FAA08002F03FFAA08002F03CFA09
:1037000007EA0020A08002F037FAA1880843A080D1
:1037100040454CD055214FF4704002F083FCAA2163
:103720004FF2010002F07EFC52214FF2020002F043
:1037300079FC08214FF2030002F074FC01214FF2E2
:10374000040002F06FFC4FF4454002F055FC02F01B
:1037500013FA07EA0020A0804CF2015002F04CFC62
:1037600002F00AFAA1880843A080052003F01EFB9E
:10377000A088B0F5004F7DD0B04218D0A12002F053
:103780003BFC02F0F9F9A08002F0F6F907EA00200C
:10379000A08002F0F1F9A1880843A0F5AE41A08015
:1037A000613902D003E0A58001E0A4F80490A1886B
:1037B0008CA0FCF77DFDA088A0F5134141397DD098
:1037C000A8427CD1112002F017FC782003F0EEFA19
:1037D000362002F011FC002002F002FC3A2002F038
:1037E0000BFC052002F0FCFBB22002F005FC0C20D3
:1037F00002F0F6FB0C2002F0F3FB002002F0F0FBDD
:10380000332002F0EDFB332002F0EAFBB72002F098
:10381000F3FB352002F0E4FBBB2002F0EDFB32208D
:1038200002F0DEFBC02002F0E7FB0C2002F0D8FB28
:10383000C22002F0E1FB012002F0D2FBC32002F023
:10384000DBFB102002F0CCFBC42002F0D5FB2020D3
:1038500002F0C6FBC62002F0CFFB0F2002F0C0FB37
:10386000D02002F0C9FBA42002F0BAFBA12002F094
:10387000B7FB00E0A0E1E02002F0BEFBD02002F0A8
:10388000AFFB002002F0ACFB022002F0A9FB0720F6
:1038900002F0A6FB0A2002F0A3FB282002F0A0FB06
:1038A000322002F09DFB442002F09AFB422002F0FD
:1038B00097FB062002F094FB0E2001E059E07DE129
:1038C00002F08EFB122002F08BFB142002F088FB2A
:1038D000172002F085FBE12002F08EFBD02002F0E1
:1038E0007FFB002002F07CFB022002F079FB072026
:1038F00002F076FB0A2002F073FB282002F070FB36
:10390000312002F06DFB542002F06AFB472002F0E8
:1039100067FB0E2002F064FB1C2002F061FB172005
:1039200002F05EFB1B2002F05BFB1E2002F058FB46
:103930002A2002F061FB002002F052FB002002F07E
:103940004FFB002002F04CFBEF2002F049FB2B2044
:1039500002F052FB002002F043FB002002F040FB8B
:10396000012002F03DFB3F2002F03AFB292002F04B
:1039700020B8CF2002F040FB002002F031FBC12034
:1039800002F02EFB302002F02BFBED2002F034FB86
:10399000642002F025FB032002F022FB122002F03B
:1039A0001FFB812002F01CFBE82002F025FB852094
:1039B00002F016FB102002F013FB7A2002F010FB3D
:1039C000CB2002F019FB392002F00AFB2C2002F078
:1039D00007FB0FE08C010020303802400004024059
:1039E000040100A0204C43442049443A25780D0AA4
:1039F00000000000002002F0F3FA342002F0F0FA98
:103A0000022002F0EDFAF72002F0F6FA202002F090
:103A1000E7FAEA2002F0F0FA002002F0E1FA0020D2
:103A200002F0DEFAC02002F0E7FA1B2002F0D8FA1A
:103A3000C12002F0E1FA012002F0D2FAC52002F022
:103A4000DBFA302002F0CCFA302002F0C9FAC720AD
:103A500002F0D2FAB72002F0C3FA362002F0CCFA14
:103A6000482002F0BDFA3A2002F0C6FA552002F0D2
:103A7000B7FAB12002F0C0FA002002F0B1FA1A2021
:103A800002F0AEFAB62002F0B7FA0A2002F0A8FA65
:103A9000A22002F0A5FAF22002F0AEFA002002F015
:103AA0009FFA262002F0A8FA012002F099FAE020FD
:103AB00002F0A2FA0F2002F093FA2A2002F090FA04
:103AC000282002F08DFA082002F08AFA0E2002F077
:103AD00087FA082002F084FA542002F081FAA92023
:103AE00002F07EFA432002F07BFA0A2002F078FA14
:103AF0000F2002F075FA002002F072FA002002F0A6
:103B00006FFA002002F06CFA002002F069FAE1205E
:103B100002F072FA002002F063FA152002F060FA57
:103B2000172002F05DFA072002F05AFA112002F085
:103B300057FA062002F054FA2B2002F051FA5620D0
:103B400002F04EFA3C2002F04BFA052002F048FA4F
:103B5000102002F045FA0F2002F042FA3F2002F056
:103B60003FFA3F2002F03CFA0F2002F039FA2B20F6
:103B700002F042FA002002F033FA002002F030FA9C
:103B8000012002F02DFA3F2002F02AFA2A2002F04A
:103B900033FA002002F024FA002002F021FA00207B
:103BA00002F01EFAEF2002F01BFA112002F024FAB4
:103BB000782003F0FBF8D9E6A680F8E540457CD1F3
:103BC000ED2002F019FA012002F00AFAFE2002F0BC
:103BD00007FAEE2002F010FADE2002F001FA2120AE
:103BE00002F0FEF9F12002F007FA012002F0F8F9E4
:103BF000DF2002F001FA102002F0F2F9C42002F0F6
:103C0000FBF98F2002F0ECF9C62002F0F5F9002054
:103C100002F0E6F9E22002F0E3F9E22002F0E0F936
:103C2000E22002F0DDF9BF2002F0E6F9AA2002F05E
:103C3000D7F9B02002F0E0F90D2002F0D1F9002010
:103C400002F0CEF90D2002F0CBF9002002F0C8F905
:103C5000112002F0C5F9002002F0C2F9192002F08B
:103C6000BFF9002002F0BCF9212002F0B9F90020D0
:103C700002F0B6F92D2002F0B3F9002002F0B0F9FD
:103C80003D2002F0ADF9002002F0AAF95D2002F01B
:103C9000A7F9002002F0A4F95D2002F0A1F90020AC
:103CA00002F09EF9B12002F0A7F9802002F098F905
:103CB000002002F095F98B2000E0FCE302F090F97F
:103CC000002002F08DF9962002F08AF9002002F01F
:103CD00087F9B22002F090F9002002F081F900206B
:103CE00002F07EF9022002F07BF9002002F078F960
:103CF000032002F075F9002002F072F9B32002F0FF
:103D00007BF9002002F06CF9002002F069F9002034
:103D100002F066F9002002F063F9002002F060F979
:103D2000002002F05DF9002002F05AF9002002F0B4
:103D300057F9002002F054F9002002F051F9002058
:103D400002F04EF9002002F04BF9002002F048F991
:103D5000002002F045F9002002F042F9002002F0B4
:103D60003FF9002002F03CF9002002F039F9002070
:103D700002F036F9002002F033F9002002F030F9A9
:103D8000002002F02DF9002002F02AF9002002F0B4
:103D900027F9B42002F030F98B2002F021F900203D
:103DA00002F01EF9962002F01BF9002002F018F92B
:103DB000A12002F015F9002002F012F9B52002F05E
:103DC0001BF9022002F00CF9002002F009F903208F
:103DD00002F006F9002002F003F9042002F000F9D5
:103DE000002002F0FDF8B62002F006F9002002F0F3
:103DF000F7F8002002F0F4F8B72002F0FDF80020F8
:103E000002F0EEF8002002F0EBF83F2002F0E8F8B4
:103E1000002002F0E5F85E2002F0E2F8002002F057
:103E2000DFF8642002F0DCF8002002F0D9F88C20E2
:103E300002F0D6F8002002F0D3F8AC2002F0D0F85F
:103E4000002002F0CDF8DC2002F0CAF8002002F0D9
:103E5000C7F8702002F0C4F8002002F0C1F89020EA
:103E600002F0BEF8002002F0BBF8EB2002F0B8F838
:103E7000002002F0B5F8DC2002F0B2F8002002F0D9
:103E8000AFF8B82002F0B8F8002002F0A9F800203E
:103E900002F0A6F8002002F0A3F8002002F0A0F83B
:103EA000002002F09DF8002002F09AF8002002F0B5
:103EB00097F8002002F094F8BA2002F09DF8242030
:103EC00002F08EF8002002F08BF8002002F088F853
:103ED000002002F085F8C12002F08EF8202002F0C8
:103EE0007FF8002002F07CF8542002F079F80020DE
:103EF00002F076F8FF2002F073F8002002F070F86C
:103F0000C22002F079F80A2002F06AF8002002F0DC
:103F100067F8042002F064F8002002F061F8C32082
:103F200002F06AF83C2002F05BF8002002F058F83A
:103F30003A2002F055F8002002F052F8392002F041
:103F40004FF8002002F04CF8372002F049F800202A
:103F500002F046F83C2002F043F8002002F040F85E
:103F6000362002F03DF8002002F03AF8322002F04C
:103F700037F8002002F034F82F2002F031F800204A
:103F800002F02EF82C2002F02BF8002002F028F886
:103F9000292002F025F8002002F022F8262002F065
:103FA0001FF8002002F01CF8242002F019F800206D
:103FB00002F016F8242002F013F8002002F010F8A6
:103FC000232002F00DF8002002F00AF83C2002F055
:103FD00007F8002002F004F8362002F001F8002073
:103FE00001F0FEFF322001F0FBFF002001F0F8FF9E
:103FF0002F2001F0F5FF002001F0F2FF2C2001F04E
:10400000EFFF002001F0ECFF292001F0E9FF002084
:1040100001F0E6FF262001F0E3FF002001F0E0FFC1
:10402000242001F0DDFF002001F0DAFF242001F060
:10403000D7FF002001F0D4FF232001F0D1FF0020A2
:1040400001F0CEFFC42001F0D7FF622001F0C8FFCD
:10405000002001F0C5FF052001F0C2FF002001F0A3
:10406000BFFF842001F0BCFF002001F0B9FFF02069
:1040700001F0B6FF002001F0B3FF182001F0B0FFFF
:10408000002001F0ADFFA42001F0AAFF002001F004
:10409000A7FF182001F0A4FF002001F0A1FF50208D
:1040A00001F09EFF002001F09BFF0C2001F098FF23
:1040B000002001F095FF172001F092FF002001F091
:1040C0008FFF952001F08CFF002001F089FFF32085
:1040D00001F086FF002001F083FFE62001F080FF61
:1040E000002001F07DFFC52001F086FF322001F0A5
:1040F00077FF002001F074FF442001F071FF0020E1
:1041000001F06EFF652001F06BFF002001F068FFF9
:10411000762001F065FF002001F062FF882001F0A9
:104120005FFF002001F05CFFC62001F065FF20204A
:1041300001F056FF002001F053FF172001F050FF5F
:10414000002001F04DFF012001F04AFF002001F0A6
:1041500047FFC72001F050FF002001F041FF002081
:1041600001F03EFF002001F03BFF002001F038FF8E
:10417000C82001F041FF002001F032FF002001F0D3
:104180002FFF002001F02CFF002001F029FFC920A3
:1041900001F032FF002001F023FF002001F020FF9A
:1041A000002001F01DFF002001F01AFF002001F0A7
:1041B00017FF002001F014FF002001F011FF002084
:1041C00001F00EFF002001F00BFF002001F008FFBE
:1041D000002001F005FF002001F002FF002001F0A7
:1041E000FFFE002001F0FCFE002001F0F9FE00209F
:1041F00001F0F6FEE02001F0FFFE162001F0F0FED7
:10420000002001F0EDFE1C2001F0EAFE002001F08C
:10421000E7FE212001F0E4FE002001F0E1FE36205F
:1042200001F0DEFE002001F0DBFE462001F0D8FEAA
:10423000002001F0D5FE522001F0D2FE002001F056
:10424000CFFE642001F0CCFE002001F0C9FE7A20F0
:1042500001F0C6FE002001F0C3FE8B2001F0C0FE7D
:10426000002001F0BDFE992001F0BAFE002001F00F
:10427000B7FEA82001F0B4FE002001F0B1FEB92085
:1042800001F0AEFE002001F0ABFEC42001F0A8FE5C
:10429000002001F0A5FECA2001F0A2FE002001F0DE
:1042A0009FFED22001F09CFE002001F099FED92053
:1042B00001F096FE002001F093FEE02001F090FE58
:1042C000002001F08DFEF32001F08AFE002001F0B5
:1042D00087FEE12001F090FE162001F081FE002013
:1042E00001F07EFE1C2001F07BFE002001F078FE34
:1042F000222001F075FE002001F072FE362001F050
:104300006FFE002001F06CFE452001F069FE0020E8
:1043100001F066FE522001F063FE002001F060FE15
:10432000642001F05DFE002001F05AFE7A2001F0C9
:1043300057FE002001F054FE8B2001F051FE0020BA
:1043400001F04EFE992001F04BFE002001F048FEE6
:10435000A82001F045FE002001F042FEB92001F046
:104360003FFE002001F03CFEC42001F039FE002099
:1043700001F036FECA2001F033FE002001F030FECD
:10438000D22001F02DFE002001F02AFED82001F0FD
:1043900027FE002001F024FEE02001F021FE002095
:1043A00001F01EFEF32001F01BFE002001F018FEBC
:1043B000E22001F021FE052001F012FE002001F0B4
:1043C0000FFE0B2001F00CFE002001F009FE1B2067
:1043D00001F006FE002001F003FE342001F000FE93
:1043E000002001F0FDFD442001F0FAFD002001F065
:1043F000F7FD4F2001F0F4FD002001F0F1FD6120F8
:1044000001F0EEFD002001F0EBFD792001F0E8FD68
:10441000002001F0E5FD882001F0E2FD002001F020
:10442000DFFD972001F0DCFD002001F0D9FDA62082
:1044300001F0D6FD002001F0D3FDB72001F0D0FD42
:10444000002001F0CDFDC22001F0CAFD002001F0E6
:10445000C7FDC72001F0C4FD002001F0C1FDD1203F
:1044600001F0BEFD002001F0BBFDD62001F0B8FD3B
:10447000002001F0B5FDDD2001F0B2FD002001F0CB
:10448000AFFDF32001F0ACFD002001F0A9FDE32019
:1044900001F0B2FD052001F0A3FD002001F0A0FD18
:1044A0000A2001F09DFD002001F09AFD1C2001F082
:1044B00097FD002000E0FDE201F092FD332001F0C5
:1044C0008FFD002001F08CFD442001F089FD0020CB
:1044D00001F086FD502001F083FD002001F080FDF9
:1044E000622001F07DFD002001F07AFD782001F0CE
:1044F00077FD002001F074FD882001F071FD00209F
:1045000001F06EFD972001F06BFD002001F068FDC9
:10451000A62001F065FD002001F062FDB72001F04A
:104520005FFD002001F05CFDC22001F059FD00207C
:1045300001F056FDC72001F053FD002001F050FDB1
:10454000D12001F04DFD002001F04AFDD52001F001
:1045500047FD002001F044FDDD2001F041FD002079
:1045600001F03EFDF32001F03BFD002001F038FD9D
:10457000E42001F041FD012001F032FD002001F0B6
:104580002FFD012001F02CFD002001F029FD02206B
:1045900001F026FD002001F023FD2A2001F020FD7E
:1045A000002001F01DFD3C2001F01AFD002001F06B
:1045B00017FD4B2001F014FD002001F011FD5D20DE
:1045C00001F00EFD002001F00BFD742001F008FD4C
:1045D000002001F005FD842001F002FD002001F023
:1045E000FFFC932001F0FCFC002001F0F9FCA2206C
:1045F00001F0F6FC002001F0F3FCB32001F0F0FC28
:10460000002001F0EDFCBE2001F0EAFC002001F0EA
:10461000E7FCC42001F0E4FC002001F0E1FCCD2027
:1046200001F0DEFC002001F0DBFCD32001F0D8FC1F
:10463000002001F0D5FCDD2001F0D2FC002001F0CB
:10464000CFFCF32001F0CCFC002001F0C9FCE520F8
:1046500001F0D2FC002001F0C3FC002001F0C0FCFE
:10466000002001F0BDFC002001F0BAFC022001F0A6
:10467000B7FC002001F0B4FC292001F0B1FC0020BF
:1046800001F0AEFC3C2001F0ABFC002001F0A8FCE6
:104690004B2001F0A5FC002001F0A2FC5D2001F000
:1046A0009FFC002001F09CFC742001F099FC00208C
:1046B00001F096FC842001F093FC002001F090FCB6
:1046C000932001F08DFC002001F08AFCA22001F073
:1046D00087FC002001F084FCB32001F081FC002065
:1046E00001F07EFCBE2001F07BFC002001F078FC94
:1046F000C42001F075FC002001F072FCCD2001F017
:104700006FFC002001F06CFCD32001F069FC00205C
:1047100001F066FCDC2001F063FC002001F060FC8D
:10472000F32001F05DFC002001F05AFCE62001F0CE
:1047300063FC112001F054FC002001F051FC3420F6
:1047400001F04EFC002001F04BFC562001F048FC2B
:10475000002001F045FC762001F042FC002001F031
:104760003FFC772001F03CFC002001F039FC662082
:1047700001F036FC002001F033FC882001F030FC11
:10478000002001F02DFC992001F02AFC002001F00E
:1047900027FCBB2001F024FC002001F021FC992023
:1047A00001F01EFC002001F01BFC662001F018FC4B
:1047B000002001F015FC552001F012FC002001F052
:1047C0000FFC552001F00CFC002001F009FC4520F5
:1047D00001F006FC002001F003FC432001F000FC86
:1047E000002001F0FDFB442001F0FAFB002001F065
:1047F000F7FBE72001F000FC322001F0F1FB002084
:1048000001F0EEFB552001F0EBFB002001F0E8FB8E
:10481000762001F0E5FB002001F0E2FB662001F0CC
:10482000DFFB002001F0DCFB672001F0D9FB00205A
:1048300001F0D6FB672001F0D3FB002001F0D0FB94
:10484000872001F0CDFB002001F0CAFB992001F088
:10485000C7FB002001F0C4FBBB2001F0C1FB00201E
:1048600001F0BEFB992001F0BBFB002001F0B8FB7A
:10487000772001F0B5FB002001F0B2FB442001F0ED
:10488000AFFB002001F0ACFB562001F0A9FB00209B
:1048900001F0A6FB232001F0A3FB002001F0A0FB08
:1048A000332001F09DFB002001F09AFB452001F030
:1048B00097FB002001F094FBE82001F09DFB002015
:1048C00001F08EFB002001F08BFB992001F088FBAA
:1048D000002001F085FB872001F082FB002001F021
:1048E0007FFB882001F07CFB002001F079FB772022
:1048F00001F076FB002001F073FB662001F070FBF5
:10490000002001F06DFB882001F06AFB002001F01F
:1049100067FBAA2001F064FB002001F061FBBB20D3
:1049200001F05EFB002001F05BFB992001F058FBD9
:10493000002001F055FB662001F052FB002001F041
:104940004FFB552001F04CFB002001F049FB5520A6
:1049500001F046FB002001F043FB442001F040FB46
:10496000002001F03DFB442001F03AFB002001F063
:1049700037FB552001F034FB002001F031FBE9202A
:1049800001F03AFBAA2001F02BFB002001F028FBEC
:10499000002001F025FB002001F022FB002001F0A7
:1049A0002BFBAA2001F01CFBCF2001F025FB0020EF
:1049B00001F016FB002001F013FB002001F010FBBA
:1049C000002001F00DFB002001F00AFB002001F0A7
:1049D00007FB002001F004FB002001F001FB002098
:1049E00001F0FEFA002001F0FBFA002001F0F8FAD5
:1049F000002001F0F5FA002001F0F2FA002001F0A9
:104A0000EFFA002001F0ECFA002001F0E9FA0020B2
:104A100001F0E6FAF02001F0EFFA002001F0E0FAF0
:104A2000502001F0DDFA002001F0DAFA002001F058
:104A3000D7FA002001F0D4FAF32001F0DDFA0020CB
:104A400001F0CEFAF92001F0D7FA062001F0C8FAF9
:104A5000102001F0C5FA292001F0C2FA002001F06F
:104A6000BFFA3A2001F0C8FA552001F0B9FA112036
:104A700001F0C2FA642002F099F9292001F0BCFA91
:104A8000352001F0B9FA002001F0AAFA512001F016
:104A9000B3FAFF2001F0A4FA532001F0ADFA2C2064
:104AA00001F09EFA552001F0A7FA822001F098FA51
:104AB0002C20FDE3B0427DD155214FF4704001F030
:104AC000B1FAAA214FF2010001F0ACFA52214FF2E3
:104AD000020001F0A7FA4FF203030821184601F083
:104AE000A1FA4FF204070121384601F09BFA0D218B
:104AF0004FF4304001F096FA0D214BF2010001F025
:104B000091FA0D214BF2020001F08CFA34214FF49E
:104B1000364001F087FA34214BF2016001F082FA4D
:104B200034214BF2026001F07DFA0D214FF4314047
:104B300001F078FA0D214BF2011001F073FA0D210A
:104B40004BF2021001F06EFA34214FF4374001F0BD
:104B500069FA34214BF2017001F064FA34214BF20E
:104B6000027001F05FFA00214FF4324001F05AFA6E
:104B700000214BF2012001F055FA00214BF20220F6
:104B800001F050FA24214FF4384001F04BFA24216F
:104B90004BF6010001F046FA24214BF6020001F029
:104BA00041FA01214FF43F4001F03CFA0F214FF44C
:104BB000334000E0FEE301F035FA0F214BF2013003
:104BC00001F030FA0F214BF2023001F02BFA3421C0
:104BD0004FF4394001F026FA34214BF6011001F070
:104BE00021FA34214BF6021001F01CFA08214FF48F
:104BF000354001F017FA08214BF2015001F012FA8A
:104C000008214BF2025001F00DFA03214FF442400B
:104C100001F008FA24214FF43A4001F003FA24216C
:104C20004BF6012001F0FEF924214BF6022001F0A1
:104C3000F9F900214FF43C4001F0F4F978214BF6EA
:104C4000014001F0EFF900214BF6024001F0EAF9D2
:104C500000214FF43D4001F0E5F978214BF6015079
:104C600001F0E0F900214BF6025001F0DBF90021E0
:104C70004FF43E4001F0D6F964214BF6016001F09B
:104C8000D1F900214FF4514001F0CCF933214DF21C
:104C9000011001F0C7F900214DF2021001F0C2F934
:104CA00034214DF2031001F0BDF900214DF2041042
:104CB00001F0B8F93A214DF2051001F0B3F90021E5
:104CC0004DF2061001F0AEF94A214DF2071001F045
:104CD000A9F900214DF2081001F0A4F95C214DF270
:104CE000091001F09FF900214DF20A1001F09AF924
:104CF00081214DF20B1001F095F900214DF20C10BD
:104D000001F090F9A6214DF20D1001F08BF9002170
:104D10004DF20E1001F086F9E5214DF20F1001F071
:104D200081F901214DF2101001F07CF913214DF2AF
:104D3000111001F077F901214DF2121001F072F912
:104D400054214DF2131001F06DF901214DF21410B0
:104D500001F068F982214DF2151001F063F901218B
:104D60004DF2161001F05EF9CA214DF2171001F054
:104D700059F902214DF2181001F054F900214DF2B9
:104D8000191001F04FF902214DF21A1001F04AF901
:104D900001214DF21B1001F045F902214DF21C10CA
:104DA00001F040F934214DF21D1001F03BF90221D0
:104DB0004DF21E1001F036F967214DF21F1001F07F
:104DC00031F902214DF2201001F02CF984214DF22D
:104DD000211001F027F902214DF2221001F022F9F1
:104DE000A4214DF2231001F01DF902214DF22410EF
:104DF00001F018F9B7214DF2251001F013F9022145
:104E00004DF2261001F00EF9CF214DF2271001F0DE
:104E100009F902214DF2281001F004F9DE214DF2CA
:104E2000291001F0FFF802214DF22A1001F0FAF8E2
:104E3000F2214DF22B1001F0F5F802214DF22C1069
:104E400001F0F0F8FE214DF22D1001F0EBF80321F6
:104E50004DF22E1001F0E6F810214DF22F1001F066
:104E6000E1F803214DF2301001F0DCF833214DF26E
:104E7000311001F0D7F803214DF2321001F0D2F8D1
:104E80006D214DF2331001F0CDF800214FF4524066
:104E900001F0C8F833214DF2012001F0C3F80021E0
:104EA0004DF2022001F0BEF834214DF2032001F052
:104EB000B9F800214DF2042001F0B4F83A214DF286
:104EC000052001F0AFF800214DF2062001F0AAF80C
:104ED0004A214DF2072001F0A5F800214DF20820EB
:104EE00001F0A0F85C214DF2092001F09BF80021AF
:104EF0004DF20A2001F096F881214DF20B2001F0CD
:104F000091F800214DF20C2001F08CF8A6214DF211
:104F10000D2001F087F800214DF20E2001F082F8FB
:104F2000E5214DF20F2001F07DF801214DF2102016
:104F300001F078F813214DF2112001F073F80121EE
:104F40004DF2122001F06EF854214DF2132001F0C1
:104F500069F801214DF2142001F064F882214DF22C
:104F6000152001F05FF801214DF2162001F05AF8EA
:104F7000CA214DF2172001F055F802214DF21820F8
:104F800001F050F800214DF2192001F04BF80221F8
:104F90004DF21A2001F046F801214DF21B2001F0DC
:104FA00041F802214DF21C2001F03CF834214DF271
:104FB0001D2001F037F802214DF21E2001F032F8D9
:104FC00067214DF21F2001F02DF802214DF2202023
:104FD00001F028F884214DF2212001F023F802216C
:104FE0004DF2222001F01EF8A4214DF2232001F001
:104FF00019F802214DF2242001F014F8B7214DF2E6
:10500000252001F00FF802214DF2262001F00AF8C8
:10501000CF214DF2272001F005F802214DF2282082
:1050200001F000F8DE214DF2292000F0FBFF022103
:105030004DF22A2000F0F6FFF2214DF22B2000F075
:10504000F1FF02214DF22C2000F0ECFFFE214DF289
:105050002D2000F0E7FF03214DF22E2000F0E2FFAB
:1050600010214DF22F2000F0DDFF03214DF2302002
:1050700000F0D8FF33214DF2312000F0D3FF03219F
:105080004DF2322000F0CEFF6D214DF2332000F0C2
:10509000C9FF00214FF4534000F0C4FF33214DF20B
:1050A000013000F0BFFF00214DF2023000F0BAFFE6
:1050B00034214DF2033000F0B5FF00214DF20430F1
:1050C00000F0B0FF3A214DF2053000F0ABFF0021B7
:1050D0004DF2063000F0A6FF4A214DF2073000F0F5
:1050E000A1FF00214DF2083000F09CFF5C214DF241
:1050F000093000F097FF00214DF20A3000F092FFD6
:1051000081214DF20B3000F08DFF00214DF20C306B
:1051100000F088FFA6214DF20D3000F083FF002142
:105120004DF20E3000F07EFFE5214DF20F3000F021
:1051300079FF01214DF2103000F074FF13214DF280
:10514000113000F06FFF01214DF2123000F06AFFC4
:1051500054214DF2133000F065FF01214DF214305F
:1051600000F060FF82214DF2153000F05BFF01215D
:105170004DF2163000F056FFCA214DF2173000F004
:1051800051FF02214DF2183000F04CFF00214DF28A
:10519000193000F047FF02214DF21A3000F042FFB3
:1051A00001214DF21B3000F03DFF02214DF21C3079
:1051B00000F038FF34214DF21D3000F033FF0221A2
:1051C0004DF21E3000F02EFF67214DF21F3000F02F
:1051D00029FF02214DF2203000F024FF84214DF2FE
:1051E000213000F01FFF02214DF2223000F01AFFA3
:1051F000A4214DF2233000F015FF02214DF224309E
:1052000000F010FFB7214DF2253000F00BFF022116
:105210004DF2263000F006FFCF214DF2273000F08E
:1052200001FF02214DF2283000F0FCFEDE214DF29C
:10523000293000F0F7FE02214DF22A3000F0F2FE94
:10524000F2214DF22B3000F0EDFE02214DF22C3018
:1052500000F0E8FEFE214DF22D3000F0E3FE0321C8
:105260004DF22E3000F0DEFE10214DF22F3000F016
:10527000D9FE03214DF2303000F0D4FE33214DF23F
:10528000313000F0CFFE03214DF2323000F0CAFE83
:105290006D214DF2333000F0C5FE00214FF4544033
:1052A00000F0C0FE33214DF2014000F0BBFE00E0F3
:1052B0007FE300214DF2024000F0B4FE34214DF2B4
:1052C000034000F0AFFE00214DF2044000F0AAFEC2
:1052D0003A214DF2054000F0A5FE00214DF20640B6
:1052E00000F0A0FE4A214DF2074000F09BFE002195
:1052F0004DF2084000F096FE5C214DF2094000F0AE
:1053000091FE00214DF20A4000F08CFE81214DF209
:105310000B4000F087FE00214DF20C4000F082FEB1
:10532000A6214DF20D4000F07DFE00214DF20E4011
:1053300000F078FEE5214DF20F4000F073FE0121F0
:105340004DF2104000F06EFE13214DF2114000F0BE
:1053500069FE01214DF2124000F064FE54214DF22D
:10536000134000F05FFE01214DF2144000F05AFEA0
:1053700082214DF2154000F055FE01214DF21640FC
:1053800000F050FECA214DF2174000F04BFE022102
:105390004DF2184000F046FE00214DF2194000F099
:1053A00041FE02214DF21A4000F03CFE01214DF277
:1053B0001B4000E000E300F035FE02214DF21C40EE
:1053C00000F030FE34214DF21D4000F02BFE022192
:1053D0004DF21E4000F026FE67214DF21F4000F006
:1053E00021FE02214DF2204000F01CFE84214DF2EE
:1053F000214000F017FE02214DF2224000F012FE83
:10540000A4214DF2234000F00DFE02214DF2244074
:1054100000F008FEB7214DF2254000F003FE022106
:105420004DF2264000F0FEFDCF214DF2274000F066
:10543000F9FD02214DF2284000F0F4FDDE214DF28D
:10544000294000F0EFFD02214DF22A4000F0EAFD74
:10545000F2214DF22B4000F0E5FD02214DF22C40EF
:1054600000F0E0FDFE214DF22D4000F0DBFD0321B8
:105470004DF22E4000F0D6FD10214DF22F4000F0ED
:10548000D1FD03214DF2304000F0CCFD33214DF22F
:10549000314000F0C7FD03214DF2324000F0C2FD63
:1054A0006D214DF2334000F0BDFD00214FF4554019
:1054B00000F0B8FD33214DF2015000F0B3FD0021A2
:1054C0004DF2025000F0AEFD34214DF2035000F0D9
:1054D000A9FD00214DF2045000F0A4FD3A214DF247
:1054E000055000F09FFD00214DF2065000F09AFD9E
:1054F0004A214DF2075000F095FD00214DF2085071
:1055000000F090FD5C214DF2095000F08BFD002170
:105510004DF20A5000F086FD81214DF20B5000F053
:1055200081FD00214DF20C5000F07CFDA6214DF2D2
:105530000D5000F077FD00214DF20E5000F072FD8D
:10554000E5214DF20F5000F06DFD01214DF210509C
:1055500000F068FD13214DF2115000F063FD0121B0
:105560004DF2125000F05EFD54214DF2135000F048
:1055700059FD01214DF2145000F054FD82214DF2ED
:10558000155000F04FFD01214DF2165000F04AFD7C
:10559000CA214DF2175000F045FD02214DF218507E
:1055A00000F040FD00214DF2195000F03BFD0221BA
:1055B0004DF21A5000F036FD01214DF21B5000F063
:1055C00031FD02214DF21C5000F02CFD34214DF232
:1055D0001D5000F027FD02214DF21E5000F022FD6B
:1055E00067214DF21F5000F01DFD02214DF22050A9
:1055F00000F018FD84214DF2215000F013FD02212E
:105600004DF2225000F00EFDA4214DF2235000F087
:1056100009FD02214DF2245000F004FDB7214DF2A6
:10562000255000F0FFFC02214DF2265000F0FAFC5C
:10563000CF214DF2275000F0F5FC02214DF2285009
:1056400000F0F0FCDE214DF2295000F0EBFC0221CD
:105650004DF22A5000F0E6FCF2214DF22B5000F002
:10566000E1FC02214DF22C5000F0DCFCFE214DF259
:105670002D5000F0D7FC03214DF22E5000F0D2FC4B
:1056800010214DF22F5000F0CDFC03214DF230508F
:1056900000F0C8FC33214DF2315000F0C3FC03216F
:1056A0004DF2325000F0BEFC6D214DF2335000F04F
:1056B000B9FC00214FF4564000F0B4FC33214DF208
:1056C000016000F0AFFC00214DF2026000F0AAFC86
:1056D00034214DF2036000F0A5FC00214DF204607E
:1056E00000F0A0FC3A214DF2056000F09BFC002187
:1056F0004DF2066000F096FC4A214DF2076000F082
:1057000091FC00214DF2086000F08CFC5C214DF210
:10571000096000F087FC00214DF20A6000F082FC75
:1057200081214DF20B6000F07DFC00214DF20C60F8
:1057300000F078FCA6214DF20D6000F073FC002112
:105740004DF20E6000F06EFCE5214DF20F6000F0AE
:1057500069FC01214DF2106000F064FC13214DF250
:10576000116000F05FFC01214DF2126000F05AFC64
:1057700054214DF2136000F055FC01214DF21460EC
:1057800000F050FC82214DF2156000F04BFC01212D
:105790004DF2166000F046FCCA214DF2176000F091
:1057A00041FC02214DF2186000F03CFC00214DF25A
:1057B000196000F037FC02214DF21A6000F032FC53
:1057C00001214DF21B6000F02DFC02214DF21C6006
:1057D00000F028FC34214DF21D6000F023FC022172
:1057E0004DF21E6000F01EFC67214DF21F6000F0BC
:1057F00019FC02214DF2206000F014FC84214DF2CE
:10580000216000F00FFC02214DF2226000F00AFC42
:10581000A4214DF2236000F005FC02214DF224602A
:1058200000F000FCB7214DF2256000F0FBFB0221E7
:105830004DF2266000F0F6FBCF214DF2276000F01C
:10584000F1FB02214DF2286000F0ECFBDE214DF26D
:10585000296000F0E7FB02214DF22A6000F0E2FB34
:10586000F2214DF22B6000F0DDFB02214DF22C60A5
:1058700000F0D8FBFE214DF22D6000F0D3FB032198
:105880004DF22E6000F0CEFB10214DF22F6000F0A3
:10589000C9FB03214DF2306000F0C4FB33214DF20F
:1058A000316000F0BFFB03214DF2326000F0BAFB23
:1058B0006D214DF2336000F0B5FB5521381F00F02B
:1058C000B1FBAA21F81E00F0ADFB5221B81E00F07A
:1058D000A9FB0821184600F0A5FB0021384600F07E
:1058E000A1FBCC214FF4314000F09CFB00214BF296
:1058F000011000F097FB05214FF4364000F092FBB9
:1059000070214FF4374000F08DFB70214BF2017095
:1059100000F088FB01214FF4384000F083FB0321A5
:105920004BF6010000F07EFB03214BF6020000F075
:1059300079FB03214BF6030000F074FB02214FF4C6
:105940003C4000F06FFB00214BF6014000F06AFB89
:1059500000214BF6024000F065FBD0214FF4494096
:1059600000F060FB02214CF6011000F05BFB5021BF
:105970004CF6021000F056FB50214CF6031000F0DC
:1059800051FB50214CF6041000F04CFB00214FF469
:10599000545000F047FB55214FF4685000F042FB93
:1059A0004FF4885000F028FB782001F00DFA4FF4F6
:1059B000245000F021FBB9E04845FCD1E22000F082
:1059C0001BFB1D2000F00CFB022000F009FB042053
:1059D00000F006FB642001F0F7F9E02000F00CFB7A
:1059E000012000F0FDFA0A2001F0E0F9E02000F0CB
:1059F00003FB032000F0F4FA0C2001F0D7F901209A
:105A000000F0FAFA0A2001F0D1F9E62000F0F4FAE9
:105A10002F2000F0E5FAFF2000F0E2FAFF2000F06E
:105A2000DFFAB02000F0E8FA202000F0D9FA0020D8
:105A300000F0D6FA032000F0D3FA40F21F3000F055
:105A4000CFFA012000F0CCFA40F2DF1000F0C8FAE3
:105A5000002000F0C5FAB42000F0CEFA042000F0D7
:105A6000BFFA40F21F4000F0BBFA002000F0B8FA85
:105A70002E2000F0B5FA002000F0B2FA002000F06D
:105A8000AFFA002000F0ACFA002000F0A9FAB6202E
:105A900000F0B2FA022000F0A3FA4FF4037000F015
:105AA0009FFA002000F09CFA172000F099FA1520C8
:105AB00000F096FA002000F093FA002000F090FA2F
:105AC000F02000F099FA032000F08AFA292000F073
:105AD00093FAD02000F090FA002000F081FABE2066
