:020000040800F2
:10000000C00900206D0200086D7F0008073B000852
:10001000697F000895150008D989000800000000D4
:100020000000000000000000000000004D820008F9
:10003000C915000800000000A97F0008B982000867
:10004000870200088702000887020008870200086C
:10005000870200088702000887020008CB15000805
:10006000870200088702000887020008870200084C
:10007000870200088702000887020008870200083C
:10008000870200088702000887020008870200082C
:10009000870200088702000887020008870200081C
:1000A000870200088702000887020008870200080C
:1000B00087020008870200088702000887020008FC
:1000C00087020008870200088702000887020008EC
:1000D0008702000889890008870200088702000853
:1000E00087020008870200088702000887020008CC
:1000F00087020008870200088702000887020008BC
:1001000087020008870200088702000887020008AB
:100110008702000887020008DD83000887020008C4
:10012000870200088702000887020008870200088B
:10013000870200088702000887020008870200087B
:10014000870200088702000887020008870200086B
:10015000870200088702000887020008870200085B
:10016000870200088702000887020008870200084B
:1001700087020008870200088702000800000000CC
:10018000870200088702000887020008870200082B
:10019000870200088702000887020008870200081B
:1001A00087020008870200088702000800F002F8B2
:1001B00000F04CF80AA090E8000C82448344AAF1B5
:1001C0000107DA4501D100F041F8AFF2090EBAE8B3
:1001D0000F0013F0010F18BFFB1A43F0010318477B
:1001E00038D6000058D60000103A24BF78C878C12D
:1001F000FAD8520724BF30C830C144BF04680C602D
:10020000704700000023002400250026103A28BF74
:1002100078C1FBD8520728BF30C148BF0B60704778
:10022000662908F0EE86782900F08A800020704761
:100230001FB508F0DCFE00F029FC040000200021BE
:1002400008F00CFDE0601FBD10B510BD00F01EFDF4
:100250001146FFF7EDFF08F009FC00F03CFD03B488
:10026000FFF7F2FF03BC08F0D8FB00000948804705
:1002700009480047FEE7FEE7FEE7FEE7FEE7FEE788
:10028000FEE7FEE7FEE7FEE704480549054A064BA0
:100290007047000079830008AD010008C00300200A
:1002A000C0090020C0050020C005002070470000E4
:1002B0000FB4044910B503AA029800F0D5FB10BC96
:1002C0005DF814FB340000200FB41CB5074B06AAE0
:1002D0007B4469460090059800F0ADFB002069461C
:1002E00000F0BCFB1CBC5DF814FB0000890700009B
:1002F00070B5044685690068C10601D5302600E066
:100300002026C00707D070BDD4E9012130469047B0
:10031000206A401C20626D1EF6D570BD70B5044683
:1003200085690078C00707D170BDD4E9012120207C
:100330009047206A401C20626D1EF6D570BD0000FB
:1003400070B504460D4621461068AFF30080218841
:10035000090502D50F4A7A4402E00E4A7A440E3269
:10036000002104F1240305E000F00F060009965D6A
:100370005E54491C0028F7D120780023000704D5DB
:10038000702D02D009B1022311322046BDE8704021
:1003900000F0E6B802D400002DE9F0474FF0000A63
:1003A00089460446C0F820A02046E1688847002816
:1003B00076D0252806D0D4E901219047206A401C38
:1003C0002062F1E7E168204600258847C4F81CA0B8
:1003D00006460027C4F818A02A2E09D0304608F097
:1003E00015FB38B304EB8708303EC8F8186019E0F5
:1003F00059F8041B204604EB87029161E1688847A5
:10040000012F064618D1E069002820DA25F02005E2
:100410001DE0D8F8180000EB800006EB40003038F3
:10042000C8F818002046E1688847064608F0EEFA4A
:100430000028EED1012F0AD02E2E08D12046E168E7
:1004400088477F1C0646022F45F02005C4DBA069C3
:10045000002803DA404245F00105A061E80701D019
:1004600025F01005B6B1A6F14100192802D82036B2
:1004700045F400654A463146204625604D46FFF763
:10048000CFFE58B1012806D0ED1D25F0070000F180
:10049000080989E704E005F1040985E730468AE7A1
:1004A000206ABDE8F08710B5203AC0F00B80B1E8B3
:1004B0001850203AA0E81850B1E81850A0E8185099
:1004C000BFF4F5AF5FEA027C24BFB1E81850A0E8A2
:1004D000185044BF18C918C0BDE810405FEA827CBC
:1004E00024BF51F8043B40F8043B08BF7047D207D3
:1004F00028BF31F8023B48BF11F8012B28BF20F874
:10050000023B48BF00F8012B70474FF0000200B5D6
:10051000134694469646203922BFA0E80C50A0E826
:100520000C50B1F12001BFF4F7AF090728BFA0E8D4
:100530000C5048BF0CC05DF804EB890028BF40F8A0
:10054000042B08BF704748BF20F8022B11F0804FE2
:1005500018BF00F8012B704770477047704770470D
:100560002DE9F0470D4699469246044600F12408CD
:100570000168880604D5E06921F01001216000E0DF
:100580000120A84201DD471B00E00027A1697A197C
:1005900002EB0900081AA0612078C00602D42046A8
:1005A000FFF7A6FE002608E0D4E901211AF80600AC
:1005B0009047206A401C761C20624E45F4DB207870
:1005C000C0060AD52046FFF793FE06E0D4E90121D4
:1005D00030209047206A401C2062381EA7F1010796
:1005E000F4DC07E0D4E9012118F805009047206AFF
:1005F000401C2062281EA5F10105F3DC2046FFF710
:100600008DFE2078000602D50220BDE8F08701208B
:10061000FBE770472DE9FF4F0C461E464FF0FF37B2
:100620008BB0D2E90001DDF860800A908A46C1F300
:100630000A5505B93D46002108464FF00000BAF1C1
:10064000000F00F4400005DA00EB80004FF4400199
:1006500001EA50004FEA9059B9F1010F00DDB946A7
:100660000A9850EA4A000ED044F61050A5F2FF3521
:1006700045432F14B8F1000F1ED07542291E1EDD10
:10068000C9F100021CE0B8F1010F4FF0000001D0E9
:10069000302103E0F24305E02154401CB042FBDB73
:1006A00030460022002121540B99C1F80880C1E98D
:1006B00000200FB0BDE8F08FBD1B6D1CDEE74A4681
:1006C00000DA694206A800F06BFA06AB93E807006F
:1006D00003AB83E8070050460A9900F045FB8DE81C
:1006E0000700A0F500501F3800900398002D09DD89
:1006F00042F21F014A46084403A90390684600F0ED
:10070000A4FD08E0A0F500504A461F3803A9039055
:10071000684600F0AEFD8DE807000004000C03D031
:100720004FF0FF30410800E01046B8F1000F03D051
:100730000022009215461EE0751E05D400F0AAF9AD
:10074000303262556D1EF9D5B3460122084302D0FE
:1007500000227F1C04E02078302801D100227F1E77
:10076000002A099786D01DE0112D07DA00F092F9D2
:10077000303262556D1C50EA0102F5D1084302D0B7
:100780000098C8B10EE00021681E05E0235C625CA1
:1007900063542254401E491C8142F7DBAB46A81B20
:1007A000401E0990002004F80B000B98099AC0F82D
:1007B0000880C0E9002B7CE711264FF0000859E7BC
:1007C0002DE9F04F88460446D21D22F0070191B072
:1007D000D1E90001CDE90A0108F000F902460B98C1
:1007E000C00F01D02D2007E02068810701D52B2004
:1007F00002E0202101EAC000032A099001D0072A63
:1008000005DB03464146204600F08AF90BE12078DB
:10081000800601D5E06900E00620B8F1650F814649
:1008200006D0B8F1660F18D0B8F1670F70D131E07B
:100830000020B9F1110F009001DB112301E009F153
:1008400001030AAA01A90CA8FFF7E4FEDDE90C7078
:10085000002609F10105834647E001204B46009040
:100860004FF000470AAA01A90CA8FFF7D3FEDDE963
:100870000DB00C995D46002610B909F101000D1864
:10088000B9EB050003D4C0F1FF3609F10105A5EB72
:1008900009002BE0B9F1010F01DA4FF00109002046
:1008A000B9F1110F0090484601DD112300E0034625
:1008B0000AAA01A90CA8FFF7ADFEDDE90C704D46B0
:1008C00000268346207800070AD4AB4500DA5D464F
:1008D00001A8012D04DD411911F8011C302907D0B0
:1008E0004F4502DA17F1040F04DA012082460FE0C7
:1008F0006D1EEEE7002F02DCED1B3E4403E0781C8A
:10090000A84200DD7D1CB81B00F1010A4FF0004732
:100910002078000703D4AA4501DB4FF0FF3A0021FD
:10092000B7F1004F0DF143088DF8431024D0022099
:100930002B23002F01DA7F422D230A21021EA0F172
:10094000010000DC5FB197FBF1FC97FBF1F201FBCA
:100950001C7C17460CF1300C08F801CDEEE7A8F12D
:10096000010003702188090501D5452100E06521BA
:10097000A0F1010800F8011C09980FA9A1EB0807D4
:10098000FF1D00B10120411901EBEA70A169384453
:10099000081A401EA0612078C00602D42046FFF746
:1009A000A7FC099828B1D4E901219047206A401C8E
:1009B00020622078C00622D52046FFF799FC1EE071
:1009C000002E04DBB34502DD01A8805D00E030208D
:1009D000D4E901219047206A401C2062761CAAF1CC
:1009E00001005FEA000A0AD100F050F8C06801680F
:1009F000405CD4E901219047206A401C2062281EF7
:100A0000A5F10105DCDC07E0D4E9012118F8010BB0
:100A10009047206A401C2062381EA7F10107F3DCD2
:100A20002046FFF77BFC032011B043E601694A1C16
:100A300002610878704700B58FB0CDE9013100211F
:100A4000059105497944CDE9031011466846FFF741
:100A5000A3FC0FB000BD0000E5FFFFFF0A6802F82D
:100A6000010B0A6070470000074B70B50D467B44D0
:100A7000FFF7E1FF0446284600F000F910B14FF0FF
:100A8000FF3070BD204670BDDF7F0000004870471A
:100A90008003002030B5B0F10A024FEA900E71F1E8
:100AA00000034EEA817EB0EB0E0061EB91014FEA4C
:100AB000101E4EEA017E10EB0E0041EB11114FEAC1
:100AC000102E4EEA016E10EB0E0041EB11214FEAA1
:100AD000104E4EEA014E10EB0E0041EB1141401852
:100AE00041F100014FEAD00040EA41704FEAD101E4
:100AF00010EB80054FEA810444EA907444EB010452
:100B00006D1944EB0404521BA3414FF0000348BF8E
:100B10000A3200D530BD401C41F1000130BD00005B
:100B20002DE9F0411F46044603260168072A01F417
:100B3000006004DB08B116A505E016A503E008B1C6
:100B400015A500E015A521F010002060A069C01EC9
:100B5000A0610FB1401EA0612046FFF7C9FB4FB155
:100B6000D4E9012138469047206A401C2062C01C0D
:100B7000206206E0206AFAE7D4E9012115F8010BAA
:100B80009047761EF8D22046FFF7C8FBBDE8F081FB
:100B90004E414E006E616E00494E4600696E660021
:100BA0002DE9F047814616468AB0334878440DC88F
:100BB0008DE80D0030487844801C03AC0DC884E8F3
:100BC0000D0041F69B300844372190FBF1F290FB79
:100BD000F1F5A5F1800501FB12041B3C02D564422E
:100BE000012000E00020DFF890A080460027FA44B2
:100BF000AAF1BE0A0DE0E00709D03246684607EBCD
:100C000047010AEB810100F034FB8DE80700641016
:100C10007F1C002CEFD1184F7F44AC3F18E0E80751
:100C200014D007EB04100DF1180A90E80E008AE8C2
:100C30000E00C068F04201D198190890324606A90A
:100C400003A800F016FB03AB83E807006D10641CDB
:100C5000002DE4D132466946B8F1000F03A802D056
:100C600000F0F3FA01E000F004FBC9E90001C9F863
:100C700008200AB0BDE8F08750CC0000007B00F0EF
:100C80008000704700487047600300207546FFF7FA
:100C9000F9FFAE4605006946534620F00700854639
:100CA00018B020B5FFF7F0FABDE820404FF000067D
:100CB0004FF000074FF000084FF0000B21F0070144
:100CC000AC46ACE8C009ACE8C009ACE8C009ACE887
:100CD000C0098D46704710B50446AFF3008020462A
:100CE000BDE81040FFF7BBBA4FF0013C50F8042BB1
:100CF00051F8043B9A4221D1A2EB0C03934313EA2F
:100D0000CC1317D150F8042B51F8043B9A4215D15B
:100D1000A2EB0C03934313EACC130BD150F8042B32
:100D200051F8043B9A4209D1A2EB0C03934313EA16
:100D3000CC13DBD04FF00000704700BFD01A01BACF
:100D4000B1FA81F101F0180122FA01F0CB40C1F1B2
:100D50002001DBB2C0B2C01A2CFA01F3D11A9143C0
:100D600011EAC311E6D170475FEA400C08BF91F069
:100D7000000F4FEA8C234FEAC12243EA51514FEA58
:100D80001C5018BF00F5F0404FEA300018BF41F08A
:100D900000415FEA6C5C00F02980BCF1FF3F08BFB6
:100DA00040F080407047130C06BF12044FF0100C47
:100DB0004FF0000C130E04BF12020CF1080C130FBD
:100DC00004BF12010CF1040C930F04BF92000CF14C
:100DD000020CD30F04BF52000CF1010C11464FF06E
:100DE0000002A0F11F00A0EB0C00704711F0004FB3
:100DF00008BF704731F000413FF4D5AF0B0C06BF80
:100E000009044FF0100C4FF0000C0B0E04BF090248
:100E10000CF1080C0B0F04BF09010CF1040C8B0F33
:100E200004BF89000CF1020CCB0F04BF49000CF188
:100E3000010CCCF12003A0EB0C0022FA03F302FA20
:100E40000CF241EA030100F10100704720F07F4CF1
:100E500080EA030023F07F47ACEB070303F57C53E4
:100E600000F0004003F1FF032DE980494FEA154BE4
:100E700009B44FEA144325EA0B4E24EA03480FF263
:100E8000042606EB132749083E785FEA320203FB8B
:100E90000667C7F5000707FB06F64FEA54374FEA27
:100EA000D64606F1020607FB066CCCF1005C4FEA61
:100EB0001C472CEA074C07FB06F40CFB06F504EB79
:100EC00015464FEA961634BF00204FF000404FEA17
:100ED000D13706FB07FC4FEA1C4C0CFB0BF7D21B6F
:100EE00003FB0CF761EB07010CFB0EF7B0EB0740BF
:100EF00072EB17420CFB08F734BFA2EB0742B2EBD0
:100F0000074261EB17414FEA0C444FEA910706FB99
:100F100007FC4FEA1C4C0CFB0BF7B0EBC74072EB25
:100F2000573203FB0CF734BFA2EBC742B2EBC74208
:100F300061EB57310CFB0EF7B0EBC70072EB577249
:100F40000CFB08F734BFA2EBC702B2EBC70261EBA0
:100F50005771039F4FEA816141EA921104EBCC047F
:100F60004FEAD1374FEA826206FB07FC42EA901251
:100F70004FEA80604FEA1C4C0CFB0BF7D21B03FBC3
:100F80000CF761EB07010CFB0EF7B0EB074072EBBF
:100F900017420CFB08F734BFA2EB0742B2EB074243
:100FA00061EB17414FEA8C554FEA910704EB9C2403
:100FB00006FB07FC4FEA1C4C0CFB0BF7B0EBC740E1
:100FC00072EB573203FB0CF734BFA2EBC742B2EB14
:100FD000C74261EB57310CFB0EF7B0EBC70072EB69
:100FE00057720CFB08F734BFA2EBC702B2EBC70283
:100FF00061EB577115EB4C254FEA816141EA921183
:101000004FEA82624FEAD13742EA901206FB07FCB0
:1010100044F100044FEA80604FEA1C4C0CFB0BF7D4
:10102000D21B03FB0CF761EB07010CFB0EF7B0EBD7
:10103000074072EB17420CFB08F734BFA2EB0742E4
:10104000B2EB074261EB174115EB1C154FEA8131FA
:1010500041EA92414FEA823242EA90424FEA8030BE
:101060004FEA0C7644F1000448EA03434EEA0B4889
:101070004FF0000EB2EB080C71EB030724BF624681
:1010800039464EEB0E0E4FF0000B0018524149410D
:101090004BEB0B0BB2EB080C71EB03077BF1000B76
:1010A00024BF624639464EEB0E0E4FF0000B00187F
:1010B000524149414BEB0B0BB2EB080C71EB0307B0
:1010C0007BF1000B24BF624639464EEB0E0E51EA0F
:1010D000020718BF46F0010616EB0E7655F1000226
:1010E00054F1000103D5BDE88901BDE80088BDE8E1
:1010F0008901BDE80048B619524141EB0101A3F155
:101100000103704780807F7E7D7C7B7A797877765B
:1011100076757473727171706F6E6E6D6C6C6B6AD4
:101120006A69686867666665646463636261616072
:10113000605F5F5E5E5D5D5C5C5B5B5A5A595958EF
:101140005857575656555555545453535252525159
:10115000515050504F4F4F4E4E4D4D4D4C4C4C4BAF
:101160004B4B4A4A4A4949494848484747474746F6
:101170004646454545444444444343434342424232
:1011800042414141002B26D4770021D01CB54FEAC3
:10119000370703B44FF010004FF010014FF000007C
:1011A0000FBCBDE810400BF1010BBBF1010F08BFF4
:1011B0005FEA170722BF12F1010211F101014FF09E
:1011C000004143F1000300F0004043EA0000704793
:1011D000F9D35708DAE746EA064613F1400F4FEA1B
:1011E00016461FDD13F1200FDFBF16430A4600210C
:1011F00020335B42C8D0C3F1200746EA064602FA14
:1012000007F74FEA164646EA0706C3F1200722FA17
:1012100003F201FA07F721FA03F14FF0000342EA63
:101220000702B1E746EA020646EA06464FEA1646D4
:1012300046EA0106BCBF46EA0646360C4FF00003FC
:101240004FF000024FF000019EE72DE9C0489346A1
:1012500030B491E8380007C831EA400C48BF34EA9E
:10126000430C03D5FFF7F2FDFFF78CFFF0BCBDE8A0
:1012700000882DE9C048934630B491E8380007C88B
:1012800010F0804F08BF13F0804F03D100F005F835
:10129000FFF778FFF0BCBDE8008820F07F4780EAC8
:1012A000030023F07F4C07EB0C03A3F57C5300F005
:1012B0000040A3F1FE0392F0000F00F0B38095F020
:1012C000000F00F077802DE901494FEA11404FEA05
:1012D000144621EA004800FB06FC24EA064708FB06
:1012E00006F607FB08F800FB07F718EB06484CEB7F
:1012F000164C4FEA124B18EB07484FEA15464CEBD9
:10130000174022EA0B4E0BFB06FC25EA06470EFBB4
:1013100006F607FB0EFE0BFB07F71EEB064E4CEB2B
:10132000164C4FF000061EEB074E4CEB174B18EB1C
:101330000B0840F1000018EB0E0B58EB000840F1D1
:1013400000008F1A4FF000013CBFC943661B14BF59
:10135000B5EB040C00213CBFC943F61B4FEA174410
:101360004EEA8E0E27EA04454FEA1C4704FB07624B
:101370002CEA074C05FB07F70CFB05F604FB0CFCFD
:1013800016EB074642EB174216EB0C4642EB1C42AB
:101390001BEB060658EB0202414146EA9E0601D5C8
:1013A000BDE80189B619524141EB0101A3F10103E6
:1013B000BDE801894FEA14454FEA114724EA054682
:1013C00021EA074C05FB07F406FB07F70CFB06F1C7
:1013D00005FB0CFC11EB074144EB17444FEA1247A5
:1013E00011EB0C4144EB1C4422EA074C05FB07F2CD
:1013F00006FB07F70CFB06F605FB0CFC16EB074695
:1014000042EB174216EB0C4642EB1C456A1854F1AE
:10141000000148BF7047B619524141EB0101A3F1E9
:101420000103704795F0000F37D04FEA11424FEAA1
:10143000144721EA024624EA074C02FB07F106FBA7
:1014400007F70CFB06F402FB0CFC14EB074441EB22
:1014500017414FEA154714EB0C4441EB1C4125EAB8
:10146000074C02FB07F506FB07F70CFB06F602FB31
:101470000CFC16EB074645EB174516EB0C4645EB07
:101480001C42121951F1000148BF7047B619524170
:1014900041EB0101A3F1010370474FEA14454FEA04
:1014A000114724EA054621EA074C05FB07F106FB34
:1014B00007F70CFB06F24FF0000605FB0CFC12EBE5
:1014C000074241EB174112EB0C4251EB1C4148BF64
:1014D0007047921841EB0101A3F10103704700002E
:1014E00010B586B0044600BF7CB900BF0020009054
:1014F0002548006840F0020023490860084600685B
:1015000000F00200009000BF23E0012C0FD100BFCB
:10151000002000901C48006840F020001A49086034
:101520000846006800F02000009000BF11E0022C87
:101530000FD100BF002000901348006840F4807075
:10154000114908600846006800F48070009000BFF0
:1015500000BF00BF0D4830F8140001900120029038
:101560000390032004900A4951F8240001A900F0D7
:1015700003FA064A32F81410054A52F824000122F0
:1015800000F010FB06B010BD303802400690000895
:101590001400002000BFFEE77CB504460D46002085
:1015A0000190022601208DF804008DF805504FF6B9
:1015B000FF70334601AA21460090024800F01CFD4E
:1015C0007CBD0000E0020020704710B5022000F052
:1015D000C5F910BD00B587B000BF002001901048CC
:1015E000006840F002000E4908600846006800F0FC
:1015F0000200019000BF00BF022002900948039042
:101600000120049002A9084800F0B6F90122114611
:10161000072001F04FF8072001F03FF807B000BDA8
:1016200030380240000021100004024070B504462A
:101630001D460023B5F5804F13D154F822300C48D5
:101640000340D1E9000640EA06108E6840EA062011
:101650008E8940EA06408E693043034344F82230C5
:1016600003E06FF0704044F82200002070BD0000DD
:101670000000F0CF10B502460023086852F8203071
:1016800018480340D1E901042043CC6820430C6989
:1016900020434C6920438C692043CC6920430C6A69
:1016A00020434C6A20438C6A2043CC6A2043CC6B95
:1016B00020430C6B20434C6B20430343886808286D
:1016C00001D143F04003086842F82030486BB0F580
:1016D000801F05D1086818B110684C6B204310605A
:1016E000002010BD8000E0FF30B503461446002204
:1016F000601C53F8202002F04042D1E9000540EA86
:1017000005108D6840EA05208D8940EA0545088A64
:10171000401E45EA0055087D801E45EA00608D693F
:1017200028430243601C43F82020186800F480100E
:1017300038B1586820F47002088A401E42EA00520C
:101740005A60002030BD30B50246002300240868EE
:10175000012816D013686FF30E03D1E90105284361
:10176000CD6828430D6928434D6928438D69284376
:10177000CD6928430D6A28434D6A2843034313600B
:1017800019E013686FF30E03D1E9070528434D6A8A
:101790002843034354686FF30E04D1E9010528433D
:1017A000CD6828430D6928434D6928438D69284336
:1017B000044313605460002030BD0246506940EA83
:1017C0004100506100207047F8B506460C461546AA
:1017D000002000900027D4E900010843A168491EB9
:1017E00040EA4110E16840EA4120009000983061F1
:1017F00000F0DEF9074609E0681C38B125B100F0B9
:10180000D7F9C01BA84201D90320F8BDB06900F088
:1018100020000028F0D100BFF7E770B50346154659
:1018200000220024012D1FD09A6802F0704208683F
:10183000401E4E68761E40EA06168868401E46EA3C
:101840000026C868401E46EA0036088A401E46EA5E
:101850000046888A401E46EA0056087E401E46EA38
:10186000006002439A6022E0DA6802F07042086881
:10187000401E4E68761E40EA06168868401E46EAFC
:101880000026088A401E46EA0046087E401E46EAB8
:10189000006002439C6804F07044C868401E060360
:1018A000888A401E46EA00500443DA609C600020AB
:1018B00070BD000010B588B00446022C34D102215E
:1018C0001A4800F067F9012817D102200390184840
:1018D00004900120059003A9144800F04DF8012060
:1018E0001449086014A010210B46C822CDE900104D
:1018F00082211E2004F094FA16E002200390124880
:1019000004900120059003A9084800F035F8002054
:10191000084908600DA010210B46C822CDE900102F
:1019200082211E2004F07CFA08B010BD00040240A1
:10193000000021108C02444273746174653A204E99
:101940006F726D616C00000000001110737461749F
:10195000653A20414C41524D2000000010B504462C
:1019600004480068204020B1024804602046FFF788
:10197000A1FF10BD143C0140F8B502460B460025FE
:10198000002400200021E6E0012606FA01F51E6889
:1019900006EA0504AC4273D15E68022E02D05E688E
:1019A000122E13D1CF0802F1200656F827004E0759
:1019B000F70E0F26BE40B0434F07FF0E1E69BE4014
:1019C0003043CF0802F1200646F8270010684F0088
:1019D0000326BE40B0431E7906F003064F00BE400A
:1019E000304310605E68012E08D05E68022E05D07C
:1019F0005E68112E02D05E68122E13D190684F00DF
:101A00000326BE40B0434F00DE68BE4030439060C6
:101A1000506801268E40B0431E79C6F300168E40F2
:101A200030435060D0684F000326BE40B0434F00A3
:101A30009E68BE403043D0605E6806F08056B6F1C6
:101A4000805FA8D100BF00260096454E366846F458
:101A50008046434F3E603E46366806F48046009618
:101A600000BF00BF3F4E8F0856F827008E07370F84
:101A70000F26BE40B0433C4EB24202D100262EE0BB
:101A800068E03A4EB24201D1012628E0384EB24217
:101A900001D1022623E0374EB24201D103261EE0D7
:101AA000354EB24201D1042619E0344EB24201D182
:101AB000052614E0324EB24201D106260FE0314E27
:101AC000B24201D107260AE02F4EB24201D10826C8
:101AD00005E02E4EB24201D1092600E00A268F070A
:101AE0003F0FBE4030431F4E8F0846F82700284E58
:101AF0003068A0435E6806F48036B6F5803F00D1BA
:101B00002043234E3060361D3068A0435E6806F4E3
:101B10000036B6F5003F00D120431D4E361D306023
:101B2000361D3068A0435E6806F48016B6F5801F47
:101B300000D12043164E08363060361D3068A04371
:101B40005E6806F40016B6F5001F00D12043104E63
:101B50000C363060491C1029FFF416AFF8BD0000A8
:101B600044380240083801400000024000040240AE
:101B700000080240000C0240001002400014024025
:101B800000180240001C02400020024000240240D5
:101B9000003C0140024613690B400BB1012000E0FC
:101BA000002070470AB1816101E00B048361704736
:101BB000014800687047000038000020024692F893
:101BC0003D0020281ED1242082F83D0010680068C6
:101BD00020F00100136818601068406A20F01000BF
:101BE000136858621068406A0843136858621068A6
:101BF000006840F0010013681860202082F83D0062
:101C0000002070470220FCE710B502460B46002179
:101C100092F83D0020281DD1242082F83D00106854
:101C2000006820F00100146820601068406A81B2EA
:101C300021F00F0141EA030081B21068416210688F
:101C4000006840F0010014682060202082F83D0008
:101C5000002010BD0220FCE770B5044600260025D8
:101C60000CB9012070BD94F83D0028B9002084F81B
:101C70003C00204600F064FA242084F83D002068EF
:101C8000006820F001002168086001F07BF805463B
:101C90003948B5FBF0F620684660384960688842EC
:101CA00001D8701C07E04FF4967070434FF47A71BE
:101CB000B0FBF1F0401C216808623049606888423E
:101CC0000ED860684000B5FBF0F0C0F30B000428AC
:101CD00001D204202DE060684000B5FBF0F028E060
:101CE000A06828B9606800EB4000B5FBF0F008E0A0
:101CF000606800EBC00101EB0010B5FBF0F040F4B0
:101D00008040C0F30B0008B9012012E0A06828B998
:101D1000606800EB4000B5FBF0F008E0606800EBA5
:101D2000C00101EB0010B5FBF0F040F4804040F43E
:101D300000402168C861D4E90701084321680860B0
:101D4000D4E90310084321688860D4E905010843F9
:101D50002168C8602068006840F0010021680860C0
:101D600000202064202084F83D000020206384F8B7
:101D70003E0000BF76E7000040420F00A086010051
:101D80002DE9F8430446884615461E46089F94F8F8
:101D90003D0020287ED142F2107301229349204653
:101DA00001F0EDFF10B10220BDE8F88300BF94F808
:101DB0003C00012801D10220F6E7012084F83C0014
:101DC00000BF2068006820F40060216808602220BD
:101DD00084F83D00102084F83E00002020648448F0
:101DE000E0623A464146204601F0AAFE80B1206CEE
:101DF000042806D100BF002084F83C0000BF012069
:101E0000D2E700BF002084F83C0000BF0320CBE7EE
:101E10008EB900BF002000902068406900902068C3
:101E20008069009000BF00BF2068006840F4007027
:101E30002168086045E0012E17D12068006820F471
:101E400080602168086000BF002000902068406921
:101E5000009020688069009000BF00BF2068006883
:101E600040F40070216808602BE0022E18D1206831
:101E7000006820F48060216808602068006840F4F1
:101E800000602168086000BF002000902068406961
:101E9000009000E0A7E020688069009000BF10E09B
:101EA0002068006840F480602168086000BF00205E
:101EB000009020684069009020688069009000BF11
:101EC00000BF82E0032E63D8012E12D1394620468E
:101ED00002F021F830B1206C202801D1032063E703
:101EE000012061E72068006905F8010B701E86B2C9
:101EF0006BE0022E1BD13B4600223E49204601F0FA
:101F00003EFF08B103204FE72068006840F40070EE
:101F1000216808602068006905F8010B701E86B210
:101F20002068006905F8010B701E86B24DE03B4643
:101F300000223049204601F022FF08B1032033E798
:101F40002068006820F480602168086020680069CB
:101F500005F8010B701E86B23B460022254920463B
:101F600001F00DFF08B103201EE72068006840F46F
:101F70000070216808602068006905F8010B701E78
:101F800086B22068006905F8010B701E86B21CE05D
:101F90003946204601F0BFFF30B1206C202801D126
:101FA000032001E70120FFE62068006905F8010B26
:101FB000701E86B220684069C0F3800028B1206896
:101FC000006905F8010B701E86B2002E7FF47AAF0F
:101FD000202084F83D00002084F83E0000BF84F8F3
:101FE0003C0000BFE0E60220DEE600000200100038
:101FF0000000FFFF040001002DE9F8430446884675
:1020000015461E46089F94F83D0020287CD142F2D8
:10201000107301224849204601F0B1FE10B10220A0
:10202000BDE8F88300BF94F83C00012801D10220EC
:10203000F6E7012084F83C0000BF2068006820F427
:10204000006021680860212084F83D00102084F899
:102050003E00002020643948E0623A46414620466E
:1020600001F006FE80B1206C042806D100BF0020DC
:1020700084F83C0000BF0120D2E700BF002084F8B4
:102080003C0000BF0320CBE700BF00200090206889
:102090004069009020688069009000BF00BF36E072
:1020A0003946204601F071FF60B1206C042807D149
:1020B0002068006840F40070216808600120AFE7E4
:1020C0000320ADE715F8010B21680861701E86B288
:1020D00020684069C0F3800030B12EB115F8010BC3
:1020E00021680861701E86B23946204601F01AFE4A
:1020F00068B1206C042808D12068006840F40070A2
:102100002168086001208BE714E0032088E7002E97
:10211000C6D12068006840F4007021680860202063
:1021200084F83D00002084F83E0000BF84F83C00A5
:1021300000BF75E7022073E7020010000000FFFFF8
:1021400010B586B00446142101A8FEF7DEF91B493C
:102150002068884230D100BF0020009018480068F5
:1021600040F00200164908600846006800F00200CE
:10217000009000BF00BF4FF4406001901220029019
:1021800001200390032004900420059001A90D482C
:10219000FFF7F2FB00BF00200090094810300068F4
:1021A00040F480000649103108600846006800F4D9
:1021B0008000009000BF00BF06B010BD0058004076
:1021C000303802400004024002480068401C0149C7
:1021D000086070473800002010B50D48006840F4D2
:1021E00000700B4908600846006840F48060086091
:1021F0000846006840F480700860032000F098FAF8
:102200000F2000F007F800F047FA002010BD000092
:10221000003C0240F0B587B00546002600270022AA
:102220002946362000F046FA362000F036FA00BF84
:10223000002000901948006840F01000174908601D
:102240000846006800F01000009000BF00BF01A920
:1022500002A800F059FD059E1EB900F093FD04464A
:1022600002E000F08FFD44000D48B4FBF0F0471E83
:102270000C480D49086040F2E7310B48C1604760E7
:1022800000210161816001F087F920B9064801F061
:102290009EF907B0F0BD0120FBE700004038024086
:1022A00040420F00001000402403002070B5044697
:1022B0000E46154600BF94F8A000012801D1022067
:1022C00070BD012084F8A00000BF022084F8A100A6
:1022D00005EB850101EBC50204F1380101EB820039
:1022E00034223146FEF7DFF82A463146204604F014
:1022F000C9FA01202168486284F8A10000BF0020CB
:1023000084F8A00000BF00BFDAE7000070B5044603
:10231000002500260CB9012070BD94F8A10028B951
:10232000002084F8A000204600F084F8022084F801
:10233000A1002068806920F0704021688861D4E99C
:1023400001010843E168084321690843216889695C
:102350000843216888612068806835490840216801
:102360008860A08A050420688068A1692943084321
:10237000216888602068C0682D4908402168C860CD
:10238000A08B05042068C068216A2943084321689E
:10239000C860206800692649084021680861A08C4F
:1023A000050420680069A16A29430843216808617F
:1023B000206840691E49084021684861A08D0504D5
:1023C00020684069216B294308432168486194F8DB
:1023D0003500050294F8360006042068C06A00F053
:1023E0007F402168C86246EA050094F8341008432B
:1023F0002168C96A08432168C8622068406B40F0C0
:102400000400216848632068406B40F002002168A6
:1024100048632068806940F00100216888610020DD
:10242000C4F8A400012084F8A100002074E7000093
:1024300000F800F010B586B0044600BF0020009000
:102440005748006840F080605549086008460068B9
:1024500000F08060009000BF00BF00BF002000902F
:102460004F481438006840F400004D4914390860A2
:102470000846006800F40000009000BF00BF00BFE5
:10248000002000900846006840F0020008600846FE
:10249000006800F00200009000BF00BF00BF0020F5
:1024A00000900846006840F0040008600846006894
:1024B00000F00400009000BF00BF00BF00200090AB
:1024C0000846006840F0200008600846006800F0F8
:1024D0002000009000BF00BF00BF00200090084611
:1024E000006840F0400008600846006800F04000C6
:1024F000009000BF00BF00BF0020009008460068A9
:1025000040F0800008600846006800F080000090FD
:1025100000BF00BF00BF002000900846006840F4E4
:10252000807008600846006800F48070009000BF6A
:1025300000BF4020019001200290039003200490EE
:1025400001A91848FFF718FA4FF4806001900220A3
:10255000029000200390032004900E20059001A912
:102560001148FFF709FA4FF40C60019001A90F48D8
:10257000FFF702FA4FF47E40019001A90C48FFF7E3
:10258000FBF940F2F560019001A90A48FFF7F4F960
:102590008020019001A90348FFF7EEF906B010BDB5
:1025A0004438024000080240001402400018024073
:1025B000001C0240002002402DE9F04104460E4676
:1025C0001746984600BF94F8A000012802D10220C7
:1025D000BDE8F081012084F8A00000BF022084F84B
:1025E000A10008EB880000EBC80104F1380000EB03
:1025F00081052E60A86A30446860AF60E86A38449C
:10260000E86042462946204604F03CF90120216852
:10261000486284F8A10000BF002084F8A00000BF39
:1026200000BFD5E72DE9F04105460E46174698460E
:1026300000BF95F8A000012802D10220BDE8F0817A
:10264000012085F8A00000BF022085F8A10008EB5A
:10265000880000EBC80105F1380000EB8104002080
:1026600020602068304460600020A060A06838448A
:10267000E060A662E76242462146284604F002F97D
:1026800001202968486285F8A10000BF002085F874
:10269000A00000BF00BFD1E7704700BF00F01F02DD
:1026A000012191404209920002F1E022C2F800119A
:1026B00000BF70472DE9F05F80460D4616460027A3
:1026C00005F056FC074639462A46334601F0070016
:1026D000C0F1070ABAF1040F02D94FF0040A01E071
:1026E000C0F1070AD14600F1040ABAF1070F02D27D
:1026F0004FF0000A01E0A0F1030AD4464FF0010AAE
:102700000AFA09FAAAF1010A0AEA020A0AFA0CFA12
:102710004FF0010B0BFA0CFBABF1010B0BEA030BB7
:102720004AEA0B042146404605F02AFCBDE8F09F2A
:1027300000BF00F00702064B19684FF6FF0319406F
:10274000044B0B4343EA0221014B196000BF704761
:102750000CED00E00000FA0538B5002400BF0020B1
:1027600000902348006840F08050214908600846E6
:10277000006800F08050009000BF00BF01200104FD
:1027800091FAA1F1B1FA81F11A4A42F82100FFF75A
:102790000FFA044607E0FFF70BFA001BB0F57A7F4B
:1027A00001D9032038BD1448406800F48030B0F5EA
:1027B000803FF0D10120410491FAA1F1B1FA81F1F9
:1027C0000C4A42F82100FFF7F3F9044607E0FFF74F
:1027D000EFF9001BB0F57A7F01D90320E2E7064844
:1027E000406800F40030B0F5003FF0D10020D9E798
:1027F0004038024000000E4200700040F8B5044628
:1028000000250026207800F0010020B9207800F093
:102810000200022866D10020CC498866FFF7C8F97B
:10282000054606E0FFF7C4F9401B022801D9032042
:10283000F8BDC7480068C0F3C0600028F2D1207816
:1028400000F0010098B147F6C07191FAA1F1B1FA18
:1028500081F1606888404FF0E04292FAA2F2B2FA49
:1028600082F2A16891400843B94984310860207818
:1028700000F00200022821D1B5488430006800F041
:10288000E0404FF0E04191FAA1F1B1FA81F120FA74
:1028900001F660688101207B41EA006040EA067031
:1028A000AB4984310860AA488C30006820F01F00D2
:1028B000E169491E0843A6498C3108600120A349FB
:1028C0008866FFF775F9054606E0FFF771F9401BCA
:1028D000022801D90320ABE79D480068C0F3C0601F
:1028E0000028F2D0207800F00400042804D02078DA
:1028F00000F0080008287DD1002094490867FFF700
:1029000057F9054606E0FFF753F9401B022801D9A5
:1029100003208DE78E480068C0F340700028F2D194
:10292000207800F00400042834D1894888300068F9
:1029300000F0E0404FF0E04191FAA1F1B1FA81F1ED
:1029400020FA01F647F6C07191FAA1F1B1FA81F1CE
:10295000206988404FF0706292FAA2F2B2FA82F2D5
:102960006169914008434FF0E04191FAA1F1B1FA59
:1029700081F106FA01F10843754988310860081DA4
:10298000006820F4F851206A401E41EA0020704996
:102990008C310860207800F00800082834D16C4899
:1029A0008830006800F070604FF0706191FAA1F11A
:1029B000B1FA81F120FA01F647F6C07191FAA1F15E
:1029C000B1FA81F1206988404FF0706191FAA1F16C
:1029D000B1FA81F106FA01F108434FF0E04292FAB0
:1029E000A2F2B2FA82F2A1699140084358498831B3
:1029F000086000E01CE0081D006820F44030616AB7
:102A0000084353498C310860012050490867FFF79B
:102A1000CFF8054606E0FFF7CBF8401B022801D9A6
:102A2000032005E74A480068C0F340700028F2D050
:102A3000207800F0200020287DD100BF00200090E9
:102A400043484030006840F08050414940310860C0
:102A50000846006800F08050009000BF00BF3D486D
:102A6000006840F480703B490860FFF7A1F8054614
:102A700006E0FFF79DF8401B022801D90320D7E6A6
:102A80003448006800F480700028F2D0304870307C
:102A9000006800F44070218D01F4407188424AD0F2
:102AA0002B487030006820F4407601202A490860E5
:102AB0000020086026487030066006F0020098B1D9
:102AC000FFF776F8054608E0FFF772F8401B41F281
:102AD0008831884201D90320AAE61D487030006879
:102AE000C0F340000028EFD000BF208D00F44070FC
:102AF000B0F5407F0CD116480830006820F4F8107B
:102B0000164AA16A1140084311490831086007E0DC
:102B10000F480830006820F4F8100D4908310860AB
:102B20000B4870300068218DC1F30B010843084940
:102B30007031086000BF207800F01000102803D129
:102B400094F82C0006490860002071E60000474216
:102B50000038024000700040400E4742FFFCFF0F6B
:102B6000E011474270B504460D46002664480068EF
:102B700000F00F00A84209D261490D7008460068B4
:102B800000F00F00A84201D0012070BD207800F0B5
:102B90000200022807D15B48006820F0F000A1681D
:102BA000084358490860207800F00100002877D0D9
:102BB0006068012807D1534808380068C0F34040D6
:102BC000B8B90120E1E76068022802D060680328F4
:102BD00007D14C4808380068C0F3406048B901206C
:102BE000D3E7484808380068C0F3400008B901201E
:102BF000CBE74448006820F003006168084341497E
:102C00000860FEF7D5FF06466068012810D108E08D
:102C1000FEF7CEFF801B41F28831884201D90320A4
:102C2000B3E73848006800F00C000428F0D137E022
:102C30006068022810D108E0FEF7BAFF801B41F25D
:102C40008831884201D903209FE72E48006800F0B0
:102C50000C000828F0D123E06068032810D108E0B8
:102C6000FEF7A6FF801B41F28831884201D903207C
:102C70008BE72448006800F00C000328F0D10FE037
:102C800008E0FEF795FF801B41F28831884201D9A8
:102C900003207AE71B48006800F00C000028F0D100
:102CA0001748006800F00F00A84209D914490D70B8
:102CB0000846006800F00F00A84201D0012064E738
:102CC000207800F00400042807D10E48006820F4A2
:102CD000E050E16808430B490860207800F00800E4
:102CE000082808D10748006820F46040216940EABC
:102CF000C100044908600F20FFF78CFA002044E768
:102D0000003C0240083802400F2202600D4A12685F
:102D100002F0030242600B4A126802F0F002826085
:102D2000084A126802F4E052C260064A126802F4CD
:102D30006042D2080261044A126802F00F020A607F
:102D40007047000008380240003C024010B500F017
:102D500045F80949096801F0F001F02292FAA2F25F
:102D6000B2FA82F2D140054A515CC8400449086079
:102D70000846006810BD0000083802404CD7000823
:102D80000000002010B5FFF7E1FF0749096801F4D2
:102D9000E0514FF4E05292FAA2F2B2FA82F2D1403C
:102DA000024A515CC84010BD083802404CD70008A8
:102DB00010B5FFF7CBFF0749096801F460414FF4F4
:102DC000604292FAA2F2B2FA82F2D140024A515C17
:102DD000C84010BD083802404CD7000870B500212B
:102DE000002200230020274C246804F00C0424B1A6
:102DF000042C04D0082C41D103E0234840E02348B0
:102E00003EE0204C241F246804F03F011D4C241F89
:102E1000246804F4800484B11C4CB4FBF1F5194C13
:102E2000241F246847F6C076344096FAA6F6B6FA10
:102E300086F6F44005FB04F20FE0134CB4FBF1F509
:102E4000104C241F246847F6C076344096FAA6F644
:102E5000B6FA86F6F44005FB04F20A4C241F2468F7
:102E600004F440344FF4403595FAA5F5B5FA85F5EC
:102E7000EC40641C6300B2FBF3F001E0024800BFC9
:102E800000BF70BD083802400024F40040787D0186
:102E900038B504460025207800F00100002848D00D
:102EA000DE48006800F00C0004280DD0DB48006804
:102EB00000F00C00082811D1D848001F006800F469
:102EC0008000B0F5800F09D1D44808380068C0F3FD
:102ED000404070B3606860BB012038BD2079CF49A5
:102EE000891F0870606890B1FEF762FE054606E033
:102EF000FEF75EFE401B642801D90320EDE7C748BA
:102F000008380068C0F340400028F1D011E0FEF717
:102F10004FFE054606E0FEF74BFE401B642801D934
:102F20000320DAE7BD4808380068C0F340400028B5
:102F3000F1D1207800F00200022869D1B74800687A
:102F400000F00C0058B1B548006800F00C000828EB
:102F500021D1B248001F006800F48000D8B9AF4802
:102F600008380068C0F3400020B1E068012801D0B3
:102F70000120B2E7A9480838006820F0F800F822DC
:102F800092FAA2F2B2FA82F2216991400843A3496F
:102F9000083908603CE0E06828B30120A0490860D7
:102FA000FEF706FE054606E0FEF702FE401B02287D
:102FB00001D9032091E7994808380068C0F3400020
:102FC0000028F1D095480838006820F0F800F82271
:102FD00092FAA2F2B2FA82F22169914008438F4933
:102FE0000839086014E000208D490860FEF7E0FD14
:102FF000054606E0FEF7DCFD401B022801D9032050
:103000006BE7864808380068C0F340000028F1D11B
:10301000207800F0080008282CD16069A8B10120B0
:1030200080490860FEF7C4FD054606E0FEF7C0FDD6
:10303000401B022801D903204FE778486C30006814
:10304000C0F340000028F1D014E00020754908606A
:10305000FEF7AEFD054606E0FEF7AAFD401B02287E
:1030600001D9032039E76D486C300068C0F3400097
:103070000028F1D1207800F00400042857D100BFC7
:103080000020009065483830006840F08050634967
:10309000383108600846006800F08050009000BF9A
:1030A00000BF6148006840F480705F490860FEF727
:1030B0007FFD054606E0FEF77BFD401B022801D997
:1030C00003200AE75848006800F480700028F2D016
:1030D000207A524968310870A068A0B1FEF768FDF7
:1030E000054608E0FEF764FD401B41F28831884246
:1030F00001D90320F1E6494868300068C0F3400078
:103100000028EFD013E0FEF753FD054608E0FEF778
:103110004FFD401B41F28831884201D90320DCE693
:103120003E4868300068C0F340000028EFD1A06935
:10313000F0B33A48006800F00C00082869D0A06994
:10314000022850D1002036490866FEF731FD0546B9
:1031500006E0FEF72DFD401B022801D90320BCE646
:103160002E4808380068C0F340600028F1D1D4E947
:103170000701084347F6C07292FAA2F2B2FA82F24D
:10318000616A914008430122A16AC2EB51014FF4E8
:10319000403292FAA2F2B2FA82F2914008434FF022
:1031A000706292FAA2F2B2FA82F2E16A914000E011
:1031B00031E008431949091F0860012018490866D1
:1031C000FEF7F6FC054606E0FEF7F2FC401B02287F
:1031D00001D9032081E6114808380068C0F3406037
:1031E0000028F1D017E000200D490866FEF7E0FC4A
:1031F000054606E0FEF7DCFC401B022801D903204F
:103200006BE6064808380068C0F340600028F1D13A
:1032100001E0012061E600205FE60000083802407E
:1032200000004742800E47420070004070B50446DF
:103230000D460CB9012070BD94F82C0028B900206F
:1032400084F82D00204600F011F8022084F82C00AC
:10325000211D2068FEF777FA2946D4E90002FEF71F
:10326000DCFA012084F82C000020E4E710B586B0D9
:10327000044600BF002000904348006840F0010071
:10328000414908600846006800F00100009000BF56
:1032900000BF00BF002000903B480838006840F0A5
:1032A00008003949083908600846006800F008003D
:1032B000009000BF00BF00BF0020009008460068DB
:1032C00040F0100008600846006800F01000009010
:1032D00000BF00BF00BF002000900846006840F01B
:1032E000200008600846006800F02000009000BF41
:1032F00000BF00BF002000900846006840F040007A
:1033000008600846006800F04000009000BF00BF61
:1033100000BF002000900846006840F08000086070
:103320000846006800F08000009000BF00BF2C201D
:1033300001900220029001200390032004900C20B1
:10334000059001A91148FEF717FB4CF2037001909C
:1033500001A90F48FEF710FB4FF68370019001A9F9
:103360000C48FEF709FB4FF63F00019001A90A48FF
:10337000FEF702FB48F23710019001A90748FEF75B
:10338000FBFA06B010BD000038380240001C0240B5
:10339000000C0240001002400014024000180240DD
:1033A00070B504460D4694F82C00022800D170BD7B
:1033B000022084F82C0029462068FEF7FEF901203F
:1033C00084F82C000020F2E770B504460D4616463E
:1033D00094F82C00022800D170BD022084F82C0043
:1033E000324629462068FEF7EFF92868022803D103
:1033F000052084F82C0002E0012084F82C00002035
:10340000EAE770B504460E4615460CB9012070BDBA
:1034100094F8490028B9002084F84800204600F0BC
:103420001DF804F108012068FEF724F93146A2686E
:103430002068FEF759F92946236BD4E90102FEF70B
:10344000F5F8A168206850F8210040F00100A2685A
:10345000216841F822000020D9E7000010B586B0AD
:10346000044600BF002000904548006840F001007D
:10347000434908600846006800F00100009000BF62
:1034800000BF00BF002000903D480838006840F0B1
:1034900002003B49083908600846006800F0020055
:1034A000009000BF00BF00BF0020009008460068E9
:1034B00040F0080008600846006800F0080000902E
:1034C00000BF00BF00BF002000900846006840F029
:1034D000100008600846006800F01000009000BF6F
:1034E00000BF00BF002000900846006840F0800048
:1034F00008600846006800F08000009000BF00BF30
:1035000000BF002000901E48006840F001001C49E8
:1035100008600846006800F00100009000BF00BF8E
:103520008815019001200290002003900320049050
:1035300001A91448FEF720FA102001900120029002
:10354000002003900320049001A90F48FEF714FA0D
:103550004CF6B370019002200290012003900320EA
:1035600004900C20059001A90848FEF705FA4FF6D3
:103570008070019001A90648FEF7FEF906B010BD63
:103580003838024000040240001C0240000C024097
:10359000001002407047704710B504460CB9012076
:1035A00010BD94F8390028B9002084F8380020466E
:1035B00000F00CF8022084F83900211D206804F086
:1035C00015FF012084F839000020E9E77047014623
:1035D0000868C06840F001000A68D06008680068A8
:1035E00040F001000A68106000207047704710B575
:1035F000044620680069C0F34000D8B12068C06864
:10360000C0F34000B0B16FF00200216808610120F2
:1036100020762068806900F0030018B12046FFF78B
:10362000E5FF05E0204600F0ADF8204600F0ABF8DD
:103630000020207620680069C0F38000D8B120689F
:10364000C068C0F38000B0B16FF004002168086169
:10365000022020762068806900F4407018B120466E
:10366000FFF7C4FF05E0204600F08CF8204600F08C
:103670008AF80020207620680069C0F3C000D8B125
:103680002068C068C0F3C000B0B16FF008002168C6
:103690000861042020762068C06900F0030018B19A
:1036A0002046FFF7A3FF05E0204600F06BF8204618
:1036B00000F069F80020207620680069C0F300104F
:1036C000D8B12068C068C0F30010B0B16FF010002E
:1036D00021680861082020762068C06900F44070E5
:1036E00018B12046FFF782FF05E0204600F04AF8B7
:1036F000204600F048F8002020762068006900F09D
:10370000010058B12068C06800F0010030B16FF0CE
:10371000010021680861204600F036F82068006941
:10372000C0F3C01058B12068C068C0F3C01030B1F9
:103730006FF08000216808612046FFF72BFF2068AA
:103740000069C0F3801058B12068C068C0F38010D1
:1037500030B16FF0400021680861204600F019F890
:1037600020680069C0F3401058B12068C068C0F3F9
:10377000401030B16FF02000216808612046FFF74B
:103780000AFF10BD7047704710B50446FEF71CFDD8
:1037900010BD7047704701460022002391F8392080
:1037A00091F83A3042EA03007047F8B50446002524
:1037B00000262068006800F001052068C06800F459
:1037C00080767DB176B100BF00200090206800684F
:1037D000009020684068009000BF00BFE06B40F0A0
:1037E0000100E06320680068C0F34005206840697C
:1037F00000F001067DB176B100BF00200090206886
:103800000068009020684068009000BF00BFE06B37
:1038100040F00400E06320680068C0F38005206881
:10382000406900F001067DB176B100BF0020009034
:1038300020680068009020684068009000BF00BFCA
:10384000E06B40F00200E06320680068C0F3C00550
:103850002068406900F001067DB176B100BF00200C
:10386000009020680068009020684068009000BFC9
:1038700000BFE06B40F00800E06320680068C0F320
:1038800040152068C06800F020061DB116B1204622
:1038900004F03FFE20680068C0F3C0152068C068CF
:1038A00000F080061DB116B1204605F039F82068F9
:1038B0000068C0F380152068C06800F040061DB1A4
:1038C00016B1204604F015FEE06B38B1202084F8D4
:1038D000390084F83A002046FFF75CFFF8BD10B5C8
:1038E00004460CB9012010BDA06900B100E000BF82
:1038F00094F8390028B9002084F83800204600F0F8
:1039000027F8242084F839002068C06820F400508B
:103910002168C860204604F04FFE2068006920F44A
:103920009040216808612068406920F02A002168E1
:1039300048612068C06840F400502168C8600020D9
:10394000E063202084F8390084F83A000020CAE7B8
:1039500010B586B004462A49206888424DD100BF80
:10396000002000902748006840F0010025490860C9
:103970000846006800F00100009000BF00BF00BFD3
:10398000002000900846006840F0010008600846EA
:10399000006800F00100009000BF00BF00BF0020E1
:1039A000009018481430006840F010001549143198
:1039B00008600846006800F01000009000BF00BFDB
:1039C00048150190022002900120039002200490EB
:1039D0000720059001A90C48FDF7CEFF4FF4806049
:1039E000019001A90848FDF7C7FF2520FEF755FE05
:1039F000032211462520FEF75DFE06B010BD000033
:103A000000100140303802400000024010B503466B
:103A100093F83A0020282FD101B10AB9012010BD36
:103A200000BF93F83800012801D10220F7E70120F8
:103A300083F8380000BF99629A85DA850020D86340
:103A4000222083F83A001868C06840F480701C682F
:103A5000E0601868406940F001001C68606100BFC8
:103A6000002083F8380000BF1868C06840F02000CC
:103A70001C68E0600020D2E70220D0E71D4A016800
:103A8000914236D11C49098801F4004189BB1A4989
:103A9000098801F4804171B1184909780A2903D0D5
:103AA0000021154A118024E01349098841F400419E
:103AB000114A11801DE0114909780D2906D10E49DE
:103AC000098841F480410C4A118012E00B490978C1
:103AD000094A1288C2F30D02094B99540649098814
:103AE000491C054A118011460988C72901DD0021BA
:103AF000118070470010014030000020320000208B
:103B0000D8010020704700BFFEE701460868406901
:103B1000C0F3802088B16FF480600A68506104208F
:103B2000086400200863202081F83D0000BF0020C9
:103B300081F83C0000BF012070470020FCE7000036
:103B4000F8B504460D461646E06A042806D0E06A39
:103B5000012803D0E06A10F5803F0CD1206800688E
:103B600040F48060216808602068006840F480703C
:103B7000216808600EE0206B11280BD120680068D6
:103B800040F48060216808602068006840F480701C
:103B900021680860334600224FF00111204600F0F2
:103BA000EEF808B10320F8BD2069B0F5804F05D1CB
:103BB000E8B240F001002168086146E005F4407079
:103BC000F02141EAE0102168086132462749204689
:103BD00000F048F930B1206C042801D10120E2E75F
:103BE0000320E0E7E8B22168086132461F49891FD7
:103BF000204600F037F930B1206C042801D10120B3
:103C0000D1E70320CFE700BF002000902068406983
:103C1000009020688069009000BF00BF20680068A5
:103C200040F4807021680860334600224FF0011193
:103C3000204600F0A4F808B10320B4E705F4407072
:103C4000F12141EAE0102168086132460749891FE5
:103C5000204600F007F930B1206C042801D1012082
:103C6000A1E703209FE700209DE700000800010076
:103C700070B504460D461646E06A042806D0E06A90
:103C8000012803D0E06A10F5803F06D12068006863
:103C900040F480702168086008E0206B122805D18C
:103CA0002068006840F48070216808603346002274
:103CB0004FF00111204600F062F808B1032070BDFA
:103CC0002069B0F5804F04D105F0FE00216808613D
:103CD00016E005F44070F02141EAE0102168086127
:103CE00032460F49204600F0BDF830B1206C042860
:103CF00001D10120E3E70320E1E7E8B22168086190
:103D000032460749891F204600F0ACF830B1206CDC
:103D1000042801D10120D2E70320D0E70020CEE71C
:103D20000800010070B504460D46FDF741FF064648
:103D30001DE02046FFF7E9FE08B1012070BD681CB8
:103D4000A8B125B1FDF734FF801BA8420FD9206C24
:103D500040F02000206400202063202084F83D00F3
:103D600000BF002084F83C0000BF0320E6E7206885
:103D70004069C0F380000028DBD00020DEE72DE999
:103D8000F04104460D4617461E464FF00008FDF769
:103D90000FFF804677BB15E0701C98B12EB1FDF780
:103DA00007FFA0EB0800B0420CD9002020632020C0
:103DB00084F83D0000BF002084F83C0000BF0320D1
:103DC000BDE8F081C5F3074001280AD120684069A9
:103DD000A9B20840A9B2884201D101200CE000201C
:103DE0000AE020688069A9B20840A9B2884202D1DD
:103DF000012001E003E000200028CDD030E014E0F5
:103E0000701C90B12EB1FDF7D3FEA0EB0800B042BC
:103E10000BD900202063202084F83D0000BF002043
:103E200084F83C0000BF0320CAE7C5F3074001281F
:103E30000AD120684069A9B20840A9B2884201D1DC
:103E400001200BE0002009E020688069A9B2084049
:103E5000A9B2884201D1012000E000200028CFD182
:103E60000020ADE72DE9F04104460D461646002737
:103E7000FDF79EFE074631E020684069C0F38020D0
:103E8000C0B12068006840F40070216808606FF4D9
:103E90008060216848610420206400202063202085
:103EA00084F83D0000BF002084F83C0000BF0120E2
:103EB000BDE8F081701C88B126B1FDF779FEC01B0A
:103EC000B0420BD900202063202084F83D0000BFC1
:103ED000002084F83C0000BF0320E9E7C5F3074059
:103EE00001280AD120684069A9B20840A9B28842D5
:103EF00001D101200BE0002009E020688069A9B20F
:103F00000840A9B2884201D1012000E00020002829
:103F1000B2D00020CCE770B504460D460026FDF770
:103F200047FE064629E020684069C0F3001080B1D2
:103F30006FF0100021684861002020642063202079
:103F400084F83D0000BF002084F83C0000BF012041
:103F500070BD25B1FDF72CFE801BA8420DD9206C49
:103F600040F020002064202084F83D0000BF0020A5
:103F700084F83C0000BF0320EAE720684069C0F3F2
:103F800080100028CFD00020E2E770B504460D462F
:103F9000FDF70EFE06461DE02046FFF7B6FD08B110
:103FA000012070BD681CA8B125B1FDF701FE801B82
:103FB000A8420FD9206C40F020002064002020632C
:103FC000202084F83D0000BF002084F83C0000BFA2
:103FD0000320E6E720684069C0F3C0100028DBD06A
:103FE0000020DEE738B504460748006818B12046CF
:103FF00001F0B8FF07E005480094438802880021DB
:10400000084600F0B5F938BD840100208C0000207E
:1040100010B51348006818B1012002F03DFD1EE004
:104020001048808848F25251884203D1282001F07C
:1040300043FF14E00B48808845F20841884204D1D0
:104040000021072001F07AFF09E00648808845F248
:104050001051884203D14FF4245001F02DFF10BDC0
:10406000840100208C0000208B490872032842D173
:10407000898848F2525291420ED14FF4A071864A7B
:104080001180F02151802C2151812A2191812B21F5
:10409000D1816021D180FDE07F49898845F20842C5
:1040A00091420FD14FF4A0717B4A1180F0215180D1
:1040B00022215181202191812121D18141F20801C8
:1040C000D180E7E07449898845F210529142E2D1EB
:1040D0004FF44871704A11804FF4F07151804FF4E1
:1040E000305151814FF4285191814FF42C51D1819D
:1040F000A021D180CEE0042843D16749898848F2C5
:10410000525291420ED14FF4A071634A1180F021B6
:1041100051802C2151812A2191812B21D181A021F3
:10412000D180B7E05C49898845F2084291420FD1BD
:104130004FF4A071584A1180F02151802221518101
:10414000202191812121D18141F23801D180A1E04A
:104150005149898845F2105291429CD14FF44871DF
:104160004D4A11804FF4F07151804FF4305151811C
:104170004FF4285191814FF42C51D1816021D1808D
:1041800088E0012843D14449898848F2525291423B
:104190000ED1F021404A11804FF4A07151802C21A2
:1041A00051812A2191812B21D181C021D18071E0BF
:1041B0003949898845F2084291420FD1F021364AA7
:1041C00011804FF4A07151802221518120219181D1
:1041D0002121D1814FF48151D1805BE02E49898822
:1041E00045F21052914255D14FF4F0712A4A118094
:1041F0004FF4487151804FF4305151814FF42851A0
:1042000091814FF42C51D181C021D18042E02249CB
:10421000898848F2525291420ED1F0211E4A1180F3
:104220004FF4A07151802C2151812A2191812B21A1
:10423000D1810021D1802DE01749898845F20842BB
:1042400091420FD1F021144A11804FF4A071518096
:1042500022215181202191812121D18141F210011E
:10426000D18017E00C49898845F21052914211D152
:104270004FF4F071084A11804FF4487151804FF4A7
:10428000305151814FF4285191814FF42C51D181FB
:104290000021D180704700008C00002070B50446DA
:1042A0000D4616462F48006828B13246294620465A
:1042B00001F0ACFE70BD2C48808848F25251884213
:1042C00014D12949888901F0F7FD201201F0E8FD99
:1042D000E0B201F0E5FD2449C88901F0EDFD2812A6
:1042E00001F0DEFDE8B201F0DBFD32E01E4880881F
:1042F00045F20841884206D101231A462946204644
:1043000001F0CCFB25E01848808845F21051884226
:104310001FD11549888901F0CFFD201201F0C0FDA1
:1043200011498989491C88B201F0C6FDE0B201F04B
:10433000B7FD0D49C88901F0BFFD281201F0B0FD9D
:104340000949C989491C88B201F0B6FDE8B201F0FB
:10435000A7FD0548408905490880891C0E8000BFDB
:10436000A8E70000840100208C000020FEFF01600F
:104370002DE9FC5F04460D4616461F46DDF83090D9
:104380000020019083462948006840B13B463246F0
:1043900029462046CDF8009001F006FF44E024486D
:1043A000808845F2084188421FD1781B83B2301BB8
:1043B00082B22946204601F071FB01F0B5FD4FF0B5
:1043C000000B05E01FFA89F001F0A8FD0BF1010BCD
:1043D000781B311B48435845F4D815484388028858
:1043E0000021084601F05AFB1EE0301B401C80B241
:1043F0000190A84616E04146204601F0F7FA01F088
:1044000093FD4FF0000A06E00A49A1F800900AF176
:1044100001001FFA80FA01988245F5DB08F10100DE
:104420001FFA80F8B845E6DDBDE8FC9F8401002056
:104430008C0000200000026000B587B000BF0020A3
:1044400001902448006840F00100224908600846B5
:10445000006800F00100019000BF00BF00BF002015
:1044600001900846006840F00400086008460068B3
:1044700000F00400019000BF00BF0720029001205F
:10448000039004900320059002A91348FDF774FAE5
:104490004420029002A91148FDF76EFA012211464C
:1044A0000D48FDF77FFB012202210B48FDF77AFB47
:1044B000012204210848FDF775FB01220421074869
:1044C000FDF770FB002240210448FDF76BFB07B0AD
:1044D00000BD0000303802400000024000080240E9
:1044E00000B595B000BF00200190FE48006840F084
:1044F0000200FC4908600846006800F002000190D4
:1045000000BF00BF00BF002001900846006840F0D7
:10451000040008600846006800F00400019000BF35
:1045200000BF40200290002003900220049003204E
:10453000059002A9EC48FDF71FFA4FF48070029035
:1045400002A9EA48FDF718FA4FF48071E748FDF731
:1045500021FB88B94021E448FDF71CFB20B14FF452
:104560000040E349888003E047F21600E049888074
:1045700001F0C8FF01F01EBA4FF02040DD4908608D
:10458000DD484860002088600021DA48C160016190
:104590001021416100218161C16141624FF480516C
:1045A00081620021C1624FF48041016300214163B7
:1045B00081634FF48011C1630F200E9000200F9093
:1045C00046201090002014900420079000200890AE
:1045D0000420099000200D9007AA0EA9C548FEF7F7
:1045E00010FF0A2004F01BFA00224FF40061C348B8
:1045F000FDF7D8FA0A2004F012FA01221021C0486F
:10460000FDF7D0FA0A2004F00AFA042001F0E2F9DA
:1046100001F0D6F9B649888001F0D2F9B449888012
:10462000084680884FF6FF7101EA0020B049888073
:1046300001F0C6F9AE4989880843AD49888008462B
:10464000808848F25251884248D0002001F0C2F9D7
:10465000A74988800846808845F2084188423DD0B5
:104660004FF4704001F028FC552001F019FC4FF286
:10467000010001F021FCAA2001F012FC4FF202001F
:1046800001F01AFC522001F00BFC4FF2030001F084
:1046900013FC082001F004FC4FF2040001F00CFCB4
:1046A000012001F0FDFB4FF4454001F093F901F0CA
:1046B00087F98F498880084680884FF6FF7101EAA4
:1046C00000208B4988804CF2015001F083F901F001
:1046D00077F9874989880843854988808448808894
:1046E00048F2525188427CD1112001F0E5FB78203C
:1046F00004F095F9362001F0DFFB002001F0D0FB3B
:104700003A2001F0D9FB052001F0CAFBB22001F0EC
:10471000D3FB0C2001F0C4FB0C2001F0C1FB0020F6
:1047200001F0BEFB332001F0BBFB332001F0B8FBEE
:10473000B72001F0C1FB352001F0B2FBBB2001F036
:10474000BBFB282001F0ACFBC02001F0B5FB2C2006
:1047500001F0A6FBC22001F0AFFB012001F0A0FB9D
:10476000C32001F0A9FB0B2001F09AFBC42001F04B
:10477000A3FB202001F094FBC62001F09DFB0F203D
:1047800001F08EFBD02001F097FBA42001F088FB04
:10479000A12001F085FBE02001F08EFBD02001F08C
:1047A0007FFB012001F07CFB082001F079FB0F204A
:1047B00001F076FB112001F073FB2A2001F070FB61
:1047C000362001F06DFB552001F06AFB442001F01A
:1047D00067FB3A2001F064FB0B2001F061FB06202F
:1047E00000E04DE001F05CFB112001F059FB2020BE
:1047F00001F056FBE12001F05FFBD02001F050FBFF
:10480000022001F04DFB072001F04AFB0A2001F0D5
:1048100047FB0B2001F044FB182001F041FB342042
:1048200001F03EFB432001F03BFB4A2001F038FB46
:104830002B2001F035FB1B2001F032FB1C2001F086
:104840002FFB222001F02CFB1F2001F029FB292047
:1048500001F032FB2C2001F02FFB0420FFF704FCB9
:10486000362001F029FB2249C88801F019FB2048B5
:10487000438802880021084601F010F901F089B848
:104880001B48808845F2084188427DD14FF48071F1
:10489000012001F053FB4FF4E061022001F04EFBD8
:1048A00041F23001032001F049FB0021042001F016
:1048B00045FB40F20221082001F040FB00210920C5
:1048C00001F03CFB00210A2001F038FB00210C2004
:1048D00001F034FB00210D2001F030FB00210F20FE
:1048E00010E000003038024000080240000402409E
:1048F0008C0000203C000020040100A0000C0240BD
:10490000001C024001F01AFB0021102001F016FBF0
:104910000021112001F012FB0021122001F00EFBFA
:104920000021132001F00AFBC82004F078F80721C9
:10493000112001F003FB322004F071F841F2B021A4
:10494000102001F0FBFA322004F069F840F2BD11AA
:10495000122001F0F3FA322004F061F84FF4A05174
:10496000132001F0EBFA0E21292001F0E7FA3220A2
:1049700004F055F80021202001F0E0FA40F23F1148
:10498000212001F0DBFA00E0B3E040F60D313020E9
:1049900001F0D4FA41F62311312001F0CFFA41F6AB
:1049A0002641322001F0CAFA42F21C61332001F0A4
:1049B000C5FA42F21941342001F0C0FA40F60B5119
:1049C000352001F0BBFA41F20601362001F0B6FABB
:1049D0004FF4C261372001F0B1FA40F2067138207D
:1049E00001F0ACFA4FF44171392001F0A7FA40F61A
:1049F00005613A2001F0A2FA40F601613B2001F086
:104A00009DFA4FF487713C2001F098FA40F20E5164
:104A10003D2001F093FA40F203413E2001F08EFA6E
:104A200040F207613F2001F089FA0021502001F097
:104A300085FAEF21512001F081FA0021522001F086
:104A40007DFA40F23F11532001F078FA4FF42741EC
:104A5000602001F073FA0121612001F06FFA00215A
:104A60006A2001F06BFA0021802001F067FA002132
:104A7000812001F063FA0021822001F05FFA002119
:104A8000832001F05BFA0021842001F057FA002115
:104A9000852001F053FA1021902001F04FFA0021F7
:104AA000922001F04BFA0321932001F047FA4FF4D2
:104AB0008871952001F042FA0021972001F03EFA1A
:104AC0000021982001F03AFA0420FFF7CDFAFE48C1
:104AD000C188032001F032FA4FF48971072001F0F8
:104AE0002DFAF948438802880021084600F0D6FFD5
:104AF000C4E6F548808845F210518842F8D132204A
:104B000003F08DFF55214FF4704001F017FAAA21F0
:104B10004FF2010001F012FA52214FF2020001F0AF
:104B20000DFA08214FF2030001F008FA01214FF2BB
:104B3000040001F003FA86214BF6014001F0FEF972
:104B40006A214BF6024001F0F9F986214BF601503B
:104B500001F0F4F96A214BF6025001F0EFF96721F8
:104B60004BF6016001F0EAF900214FF4514001F0E9
:104B7000E5F95D214DF2011001F0E0F900214DF25F
:104B8000021001F0DBF96B214DF2031001F0D6F9B0
:104B900000214DF2041001F0D1F984214DF20510ED
:104BA00001F0CCF900214DF2061001F0C7F99C216B
:104BB0004DF2071001F0C2F900214DF2081001F08A
:104BC000BDF9B1214DF2091001F0B8F900214DF203
:104BD0000A1001F0B3F9D9214DF20B1001F0AEF932
:104BE00000214DF20C1001F0A9F9FD214DF20D103C
:104BF00001F0A4F901214DF20E1001F09FF93821C6
:104C00004DF20F1001F09AF901214DF2101001F050
:104C100095F968214DF2111001F090F901214DF242
:104C2000121001F08BF9B9214DF2131001F086F941
:104C300001214DF2141001F081F9FB214DF2151004
:104C400001F07CF902214DF2161001F077F9632191
:104C50004DF2171001F072F902214DF2181001F017
:104C60006DF9B9214DF2191001F068F902214DF2E8
:104C70001A1001F063F9BB214DF21B1001F05EF92F
:104C800003214DF21C1001F059F903214DF21D10C2
:104C900001F054F903214DF21E1001F04FF94621A5
:104CA0004DF21F1001F04AF903214DF2201001F0DE
:104CB00045F969214DF2211001F040F903214DF22F
:104CC000221001F03BF98F214DF2231001F036F94B
:104CD00003214DF2241001F031F9A4214DF22510E9
:104CE00001F02CF903214DF2261001F027F9B9212A
:104CF0004DF2271001F022F903214DF2281001F0A6
:104D00001DF9C7214DF2291001F018F903214DF2C8
:104D10002A1001F013F9C9214DF22B1001F00EF900
:104D200003214DF22C1001F009F9CB214DF22D1089
:104D300001F004F903214DF22E1001F0FFF8CB2110
:104D40004DF22F1001F0FAF803214DF2301001F06E
:104D5000F5F8CB214DF2311001F0F0F803214DF2BE
:104D6000321001F0EBF8CC214DF2331001F0E6F8EF
:104D700000214FF4524001F0E1F85D214DF2012095
:104D800001F0DCF800214DF2022001F0D7F86B2190
:104D90004DF2032001F0D2F800214DF2042001F081
:104DA000CDF884214DF2052001F0C8F800214DF224
:104DB000062001F0C3F89C214DF2072001F0BEF857
:104DC00000214DF2082001F0B9F8B1214DF209207F
:104DD00001F0B4F800214DF20A2001F0AFF8D9211A
:104DE0004DF20B2001F0AAF800214DF20C2001F049
:104DF000A5F8FD214DF20D2001F0A0F801214DF2A2
:104E00000E2001F09BF838214DF20F2001F096F8AA
:104E100001214DF2102001F091F868214DF211208E
:104E200001F08CF801214DF2122001F087F8B92130
:104E30004DF2132001F082F801214DF2142001F00F
:104E40007DF8FB214DF2152001F078F802214DF29A
:104E5000162001F073F863214DF2172001F06EF86F
:104E600002214DF2182001F069F8B9214DF2192004
:104E700001F064F802214DF21A2001F05FF8BB2125
:104E80004DF21B2001F05AF803214DF21C2001F0D5
:104E900055F803214DF21D2001F050F803214DF289
:104EA0001E2001F04BF846214DF21F2001F046F87C
:104EB00003214DF2202001F041F869214DF221201B
:104EC00001F03CF8032101E08C0000204DF222208B
:104ED00001F034F88F214DF2232001F02FF8032147
:104EE0004DF2242001F02AF8A4214DF2252001F0F2
:104EF00025F803214DF2262001F020F8B9214DF2CA
:104F0000272001F01BF803214DF2282001F016F8AC
:104F1000C7214DF2292001F011F803214DF22A207A
:104F200001F00CF8C9214DF22B2001F007F8032104
:104F30004DF22C2001F002F8CB214DF22D2000F093
:104F4000FDFF03214DF22E2000F0F8FFCB214DF2A2
:104F50002F2000F0F3FF03214DF2302000F0EEFF90
:104F6000CB214DF2312000F0E9FF03214DF2322038
:104F700000F0E4FFCC214DF2332000F0DFFF0021F0
:104F80004FF4534000F0DAFF5D214DF2013000F0A4
:104F9000D5FF00214DF2023000F0D0FF6B214DF221
:104FA000033000F0CBFF00214DF2043000F0C6FFCB
:104FB00084214DF2053000F0C1FF00214DF2063092
:104FC00000F0BCFF9C214DF2073000F0B7FF00213C
:104FD0004DF2083000F0B2FFB1214DF2093000F07F
:104FE000ADFF00214DF20A3000F0A8FFD9214DF2AB
:104FF0000B3000F0A3FF00214DF20C3000F09EFFBB
:10500000FD214DF20D3000F099FF01214DF20E30DF
:1050100000F094FF38214DF20F3000F08FFF012196
:105020004DF2103000F08AFF68214DF2113000F08F
:1050300085FF01214DF2123000F080FFB9214DF2C1
:10504000133000F07BFF01214DF2143000F076FFA9
:10505000FB214DF2153000F071FF02214DF21630A8
:1050600000F06CFF63214DF2173000F067FF022162
:105070004DF2183000F062FFB9214DF2193000F006
:105080005DFF02214DF21A3000F058FFBB214DF2B6
:105090001B3000F053FF03214DF21C3000F04EFF97
:1050A00003214DF21D3000F049FF03214DF21E3067
:1050B00000F044FF46214DF21F3000F03FFF032176
:1050C0004DF2203000F03AFF69214DF2213000F01E
:1050D00035FF03214DF2223000F030FF8F214DF2D9
:1050E000233000F02BFF03214DF2243000F026FF87
:1050F000A4214DF2253000F021FF03214DF226308E
:1051000000F01CFFB9214DF2273000F017FF0321FA
:105110004DF2283000F012FFC7214DF2293000F087
:105120000DFF03214DF22A3000F008FFC9214DF296
:105130002B3000F003FF03214DF22C3000F0FEFE77
:10514000CB214DF22D3000F0F9FE03214DF22E302F
:1051500000F0F4FECB214DF22F3000F0EFFE0321E2
:105160004DF2303000F0EAFECB214DF2313000F04C
:10517000E5FE03214DF2323000F0E0FECC214DF28D
:10518000333000F0DBFE00214FF4544000F0D6FE37
:105190005D214DF2014000F0D1FE00214DF20240B0
:1051A00000F0CCFE6B214DF2034000F0C7FE002161
:1051B0004DF2044000F0C2FE84214DF2054000F0A3
:1051C000BDFE00214DF2064000F0B8FE9C214DF2DC
:1051D000074000F0B3FE00214DF2084000F0AEFEA3
:1051E000B1214DF2094000F0A9FE00214DF20A4024
:1051F00000F0A4FED9214DF20B4000F09FFE0021EB
:105200004DF20C4000F09AFEFD214DF20D4000F0F1
:1052100095FE01214DF20E4000F090FE38214DF236
:105220000F4000F08BFE01214DF2104000F086FE91
:1052300068214DF2114000F081FE01214DF2124033
:1052400000F07CFEB9214DF2134000F077FE012101
:105250004DF2144000F072FEFB214DF2154000F0BB
:105260006DFE02214DF2164000F068FE63214DF202
:10527000174000F063FE02214DF2184000F05EFE80
:10528000B9214DF2194000F059FE02214DF21A40A9
:1052900000F054FEBB214DF21B4000F04FFE0321F5
:1052A0004DF21C4000F04AFE03214DF21D4000F07B
:1052B00045FE03214DF21E4000F040FE46214DF216
:1052C0001F4000F03BFE03214DF2204000F036FE6F
:1052D00069214DF2214000F031FE03214DF22240C0
:1052E00000F02CFE8F214DF2234000F027FE032119
:1052F0004DF2244000F022FEA4214DF2254000F0A2
:105300001DFE03214DF2264000F018FEB9214DF29A
:10531000274000F013FE03214DF2284000F00EFE5E
:10532000C7214DF2294000F009FE03214DF22A4029
:1053300000F004FEC9214DF22B4000F0FFFD0321D7
:105340004DF22C4000F0FAFDCB214DF22D4000F043
:10535000F5FD03214DF22E4000F0F0FDCB214DF282
:105360002F4000F0EBFD03214DF2304000F0E6FD50
:10537000CB214DF2314000F0E1FD03214DF23240EE
:1053800000F0DCFDCC214DF2334000F0D7FD0021D0
:105390004FF4554000F0D2FD5D214DF2015000F078
:1053A000CDFD00214DF2025000F0C8FD6B214DF201
:1053B000035000F0C3FD00214DF2045000F0BEFD8B
:1053C00084214DF2055000F0B9FD00214DF2065048
:1053D00000F0B4FD9C214DF2075000F0AFFD00211C
:1053E0004DF2085000F0AAFDB1214DF2095000F035
:1053F000A5FD00214DF20A5000F0A0FDD9214DF28B
:105400000B5000F09BFD00214DF20C5000F096FD7A
:10541000FD214DF20D5000F091FD01214DF20E5095
:1054200000F08CFD38214DF20F5000F087FD012176
:105430004DF2105000F082FD68214DF2115000F045
:105440007DFD01214DF2125000F078FDB9214DF2A1
:10545000135000F073FD01214DF2145000F06EFD69
:10546000FB214DF2155000F069FD02214DF216505E
:1054700000F064FD63214DF2175000F05FFD022142
:105480004DF2185000F05AFDB9214DF2195000F0BC
:1054900055FD02214DF21A5000F050FDBB214DF296
:1054A0001B5000F04BFD03214DF21C5000F046FD57
:1054B00003214DF21D5000F041FD03214DF21E501D
:1054C00000F03CFD46214DF21F5000F037FD032156
:1054D0004DF2205000F032FD69214DF2215000F0D4
:1054E0002DFD03214DF2225000F028FD8F214DF2B9
:1054F000235000F023FD03214DF2245000F01EFD47
:10550000A4214DF2255000F019FD03214DF2265043
:1055100000F014FDB9214DF2275000F00FFD0321DA
:105520004DF2285000F00AFDC7214DF2295000F03D
:1055300005FD03214DF22A5000F000FDC9214DF276
:105540002B5000F0FBFC03214DF22C5000F0F6FC38
:10555000CB214DF22D5000F0F1FC03214DF22E50E5
:1055600000F0ECFCCB214DF22F5000F0E7FC0321C2
:105570004DF2305000F0E2FCCB214DF2315000F002
:10558000DDFC03214DF2325000F0D8FCCC214DF26D
:10559000335000F0D3FC00214FF4564000F0CEFC15
:1055A0005D214DF2016000F0C9FC00214DF2026066
:1055B00000F0C4FC6B214DF2036000F0BFFC002141
:1055C0004DF2046000F0BAFC84214DF2056000F059
:1055D000B5FC00214DF2066000F0B0FC9C214DF2BC
:1055E000076000F0ABFC00214DF2086000F0A6FC63
:1055F000B1214DF2096000F0A1FC00214DF20A60DA
:1056000000F09CFCD9214DF20B6000F097FC0021CA
:105610004DF20C6000F092FCFD214DF20D6000F0A7
:105620008DFC01214DF20E6000F088FC38214DF216
:105630000F6000F083FC01214DF2106000F07EFC51
:1056400068214DF2116000F079FC01214DF21260E9
:1056500000F074FCB9214DF2136000F06FFC0121E1
:105660004DF2146000F06AFCFB214DF2156000F071
:1056700065FC02214DF2166000F060FC63214DF2E2
:10568000176000F05BFC02214DF2186000F056FC40
:10569000B9214DF2196000F051FC02214DF21A605F
:1056A00000F04CFCBB214DF21B6000F047FC0321D5
:1056B0004DF21C6000F042FC03214DF21D6000F031
:1056C0003DFC03214DF21E6000F038FC46214DF2F6
:1056D0001F6000F033FC03214DF2206000F02EFC2F
:1056E00069214DF2216000F029FC03214DF2226076
:1056F00000F024FC8F214DF2236000F01FFC0321F9
:105700004DF2246000F01AFCA4214DF2256000F057
:1057100015FC03214DF2266000F010FCB9214DF27A
:10572000276000F00BFC03214DF2286000F006FC1E
:10573000C7214DF2296000F001FC03214DF22A60DF
:1057400000F0FCFBC9214DF22B6000F0F7FB0321B8
:105750004DF22C6000F0F2FBCB214DF22D6000F0F9
:10576000EDFB03214DF22E6000F0E8FBCB214DF262
:105770002F6000F0E3FB03214DF2306000F0DEFB10
:10578000CB214DF2316000F0D9FB03214DF23260A4
:1057900000F0D4FBCC214DF2336000F0CFFB24218C
:1057A0004FF43A4000F0CAFB24214BF6012000F0F0
:1057B000C5FB24214BF6022000F0C0FB24214FF44E
:1057C000394000F0BBFB24214BF6011000F0B6FB82
:1057D00024214BF6021000F0B1FB55214FF470402C
:1057E00000F0ACFBAA214FF2010000F0A7FB522110
:1057F0004FF2020000F0A2FB08214FF2030000F07C
:105800009DFB00214FF2040000F098FBCC214FF4E7
:10581000314000F093FB05214FF43C4000F08EFB3B
:1058200005214BF6014000F089FB05214BF60240B3
:1058300000F084FB01214FF4384000F07FFB03218E
:105840004BF6010000F07AFB03214BF6020000F05A
:1058500075FB03214BF6030000F070FB07214BF6AC
:10586000025000F06BFB31214BF6035000F066FB59
:1058700007214BF6026000F061FB31214BF603601B
:1058800000F05CFB07214BF6027000F057FB312162
:105890004BF6037000F052FBAA214FF47F4000F05A
:1058A0004DFB55214FF6017000F048FB25214FF6C6
:1058B000027000F043FB01214FF6037000F03EFB45
:1058C00011214FF2043000F039FB10214FF2063065
:1058D00000F034FB00214FF2083000F02FFB0021D4
:1058E0004FF4545000F02AFB55214FF4685000F05B
:1058F00025FB00214FF4285000F020FB002142F648
:10590000012000F01BFB012142F6022000F016FBF3
:10591000DF2142F6032000F011FB00214FF42C5050
:1059200000F00CFB002142F6013000F007FB0321E0
:1059300042F6023000F002FB1F2142F6033000F075
:10594000FDFA4FF4885000F0B7FA0A2003F067F828
:105950004FF4245000F0B0FA052003F060F8552110
:105960004FF4685000F0EAFA60214FF4585000F00C
:10597000E5FA0420FEF778FB0F48C1884FF4585031
:1059800000F0DCFA0C48438802880021084600F049
:1059900085F80948808845F21051884203D10120DA
:1059A0000649086002E00020044908604FF6FF70D5
:1059B000FEF718FB15B000BD8C000020A08240420D
:1059C00008B5034800880090BDF8000008BD00003D
:1059D0000000026010B50446204600F06DFA052074
:1059E00003F029F8FFF7ECFF10BD000030B50446C6
:1059F0000D462948808848F25251884214D12649E0
:105A0000888900F059FA201200F04AFAE0B200F05A
:105A100047FA2149C88900F04FFA281200F040FAED
:105A2000E8B200F03DFA36E01B48808845F20841B4
:105A300088420AD118498889214600F07FFA164920
:105A4000C889294600F07AFA25E01348808845F293
:105A5000105188421FD11049888900F02DFA201278
:105A600000F01EFA0C498989491C88B200F024FA1A
:105A7000E0B200F015FA0849C88900F01DFA2812B2
:105A800000F00EFA0449C989491C88B200F014FAE2
:105A9000E8B200F005FA30BD8C0000202DE9FC4F83
:105AA00004460D46904699460026B2460027B34666
:105AB0000020019000908A48808848F25251884224
:105AC00032D1264604EB0800401E1FFA80FA2F460A
:105AD00005EB0900401E1FFA80FB019600978049E4
